{
  "address": "0x14b547e6d31705dab3bf1a382bAFFd8274127819",
  "abi": [
    {
      "inputs": [],
      "stateMutability": "nonpayable",
      "type": "constructor"
    },
    {
      "inputs": [
        {
          "internalType": "address",
          "name": "spender",
          "type": "address"
        },
        {
          "internalType": "uint256",
          "name": "allowance",
          "type": "uint256"
        },
        {
          "internalType": "uint256",
          "name": "needed",
          "type": "uint256"
        }
      ],
      "name": "ERC20InsufficientAllowance",
      "type": "error"
    },
    {
      "inputs": [
        {
          "internalType": "address",
          "name": "sender",
          "type": "address"
        },
        {
          "internalType": "uint256",
          "name": "balance",
          "type": "uint256"
        },
        {
          "internalType": "uint256",
          "name": "needed",
          "type": "uint256"
        }
      ],
      "name": "ERC20InsufficientBalance",
      "type": "error"
    },
    {
      "inputs": [
        {
          "internalType": "address",
          "name": "approver",
          "type": "address"
        }
      ],
      "name": "ERC20InvalidApprover",
      "type": "error"
    },
    {
      "inputs": [
        {
          "internalType": "address",
          "name": "receiver",
          "type": "address"
        }
      ],
      "name": "ERC20InvalidReceiver",
      "type": "error"
    },
    {
      "inputs": [
        {
          "internalType": "address",
          "name": "sender",
          "type": "address"
        }
      ],
      "name": "ERC20InvalidSender",
      "type": "error"
    },
    {
      "inputs": [
        {
          "internalType": "address",
          "name": "spender",
          "type": "address"
        }
      ],
      "name": "ERC20InvalidSpender",
      "type": "error"
    },
    {
      "inputs": [
        {
          "internalType": "address",
          "name": "owner",
          "type": "address"
        }
      ],
      "name": "OwnableInvalidOwner",
      "type": "error"
    },
    {
      "inputs": [
        {
          "internalType": "address",
          "name": "account",
          "type": "address"
        }
      ],
      "name": "OwnableUnauthorizedAccount",
      "type": "error"
    },
    {
      "anonymous": false,
      "inputs": [
        {
          "indexed": true,
          "internalType": "address",
          "name": "owner",
          "type": "address"
        },
        {
          "indexed": true,
          "internalType": "address",
          "name": "spender",
          "type": "address"
        },
        {
          "indexed": false,
          "internalType": "uint256",
          "name": "value",
          "type": "uint256"
        }
      ],
      "name": "Approval",
      "type": "event"
    },
    {
      "anonymous": false,
      "inputs": [
        {
          "indexed": true,
          "internalType": "address",
          "name": "user",
          "type": "address"
        },
        {
          "indexed": false,
          "internalType": "uint256",
          "name": "amount",
          "type": "uint256"
        }
      ],
      "name": "CollateralDeposited",
      "type": "event"
    },
    {
      "anonymous": false,
      "inputs": [
        {
          "indexed": true,
          "internalType": "address",
          "name": "user",
          "type": "address"
        },
        {
          "indexed": false,
          "internalType": "uint256",
          "name": "amount",
          "type": "uint256"
        },
        {
          "indexed": false,
          "internalType": "uint256",
          "name": "collateralAmount",
          "type": "uint256"
        }
      ],
      "name": "Mint",
      "type": "event"
    },
    {
      "anonymous": false,
      "inputs": [
        {
          "indexed": true,
          "internalType": "address",
          "name": "previousOwner",
          "type": "address"
        },
        {
          "indexed": true,
          "internalType": "address",
          "name": "newOwner",
          "type": "address"
        }
      ],
      "name": "OwnershipTransferred",
      "type": "event"
    },
    {
      "anonymous": false,
      "inputs": [
        {
          "indexed": true,
          "internalType": "address",
          "name": "user",
          "type": "address"
        },
        {
          "indexed": false,
          "internalType": "uint256",
          "name": "amount",
          "type": "uint256"
        },
        {
          "indexed": false,
          "internalType": "uint256",
          "name": "collateralAmount",
          "type": "uint256"
        }
      ],
      "name": "Redeem",
      "type": "event"
    },
    {
      "anonymous": false,
      "inputs": [
        {
          "indexed": true,
          "internalType": "address",
          "name": "from",
          "type": "address"
        },
        {
          "indexed": true,
          "internalType": "address",
          "name": "to",
          "type": "address"
        },
        {
          "indexed": false,
          "internalType": "uint256",
          "name": "value",
          "type": "uint256"
        }
      ],
      "name": "Transfer",
      "type": "event"
    },
    {
      "inputs": [],
      "name": "COLLATERAL_RATIO",
      "outputs": [
        {
          "internalType": "uint256",
          "name": "",
          "type": "uint256"
        }
      ],
      "stateMutability": "view",
      "type": "function"
    },
    {
      "inputs": [
        {
          "internalType": "address",
          "name": "owner",
          "type": "address"
        },
        {
          "internalType": "address",
          "name": "spender",
          "type": "address"
        }
      ],
      "name": "allowance",
      "outputs": [
        {
          "internalType": "uint256",
          "name": "",
          "type": "uint256"
        }
      ],
      "stateMutability": "view",
      "type": "function"
    },
    {
      "inputs": [
        {
          "internalType": "address",
          "name": "spender",
          "type": "address"
        },
        {
          "internalType": "uint256",
          "name": "value",
          "type": "uint256"
        }
      ],
      "name": "approve",
      "outputs": [
        {
          "internalType": "bool",
          "name": "",
          "type": "bool"
        }
      ],
      "stateMutability": "nonpayable",
      "type": "function"
    },
    {
      "inputs": [
        {
          "internalType": "address",
          "name": "account",
          "type": "address"
        }
      ],
      "name": "balanceOf",
      "outputs": [
        {
          "internalType": "uint256",
          "name": "",
          "type": "uint256"
        }
      ],
      "stateMutability": "view",
      "type": "function"
    },
    {
      "inputs": [
        {
          "internalType": "address",
          "name": "",
          "type": "address"
        }
      ],
      "name": "collateralDeposits",
      "outputs": [
        {
          "internalType": "uint256",
          "name": "",
          "type": "uint256"
        }
      ],
      "stateMutability": "view",
      "type": "function"
    },
    {
      "inputs": [],
      "name": "decimals",
      "outputs": [
        {
          "internalType": "uint8",
          "name": "",
          "type": "uint8"
        }
      ],
      "stateMutability": "view",
      "type": "function"
    },
    {
      "inputs": [
        {
          "internalType": "address",
          "name": "user",
          "type": "address"
        }
      ],
      "name": "getCollateralInfo",
      "outputs": [
        {
          "internalType": "uint256",
          "name": "depositedCollateral",
          "type": "uint256"
        },
        {
          "internalType": "uint256",
          "name": "collateralRatio",
          "type": "uint256"
        }
      ],
      "stateMutability": "view",
      "type": "function"
    },
    {
      "inputs": [
        {
          "internalType": "address",
          "name": "to",
          "type": "address"
        },
        {
          "internalType": "uint256",
          "name": "amount",
          "type": "uint256"
        }
      ],
      "name": "mint",
      "outputs": [],
      "stateMutability": "nonpayable",
      "type": "function"
    },
    {
      "inputs": [],
      "name": "mintWithCollateral",
      "outputs": [],
      "stateMutability": "payable",
      "type": "function"
    },
    {
      "inputs": [],
      "name": "name",
      "outputs": [
        {
          "internalType": "string",
          "name": "",
          "type": "string"
        }
      ],
      "stateMutability": "view",
      "type": "function"
    },
    {
      "inputs": [],
      "name": "owner",
      "outputs": [
        {
          "internalType": "address",
          "name": "",
          "type": "address"
        }
      ],
      "stateMutability": "view",
      "type": "function"
    },
    {
      "inputs": [
        {
          "internalType": "uint256",
          "name": "amount",
          "type": "uint256"
        }
      ],
      "name": "redeem",
      "outputs": [],
      "stateMutability": "nonpayable",
      "type": "function"
    },
    {
      "inputs": [],
      "name": "renounceOwnership",
      "outputs": [],
      "stateMutability": "nonpayable",
      "type": "function"
    },
    {
      "inputs": [],
      "name": "symbol",
      "outputs": [
        {
          "internalType": "string",
          "name": "",
          "type": "string"
        }
      ],
      "stateMutability": "view",
      "type": "function"
    },
    {
      "inputs": [],
      "name": "totalSupply",
      "outputs": [
        {
          "internalType": "uint256",
          "name": "",
          "type": "uint256"
        }
      ],
      "stateMutability": "view",
      "type": "function"
    },
    {
      "inputs": [
        {
          "internalType": "address",
          "name": "to",
          "type": "address"
        },
        {
          "internalType": "uint256",
          "name": "value",
          "type": "uint256"
        }
      ],
      "name": "transfer",
      "outputs": [
        {
          "internalType": "bool",
          "name": "",
          "type": "bool"
        }
      ],
      "stateMutability": "nonpayable",
      "type": "function"
    },
    {
      "inputs": [
        {
          "internalType": "address",
          "name": "from",
          "type": "address"
        },
        {
          "internalType": "address",
          "name": "to",
          "type": "address"
        },
        {
          "internalType": "uint256",
          "name": "value",
          "type": "uint256"
        }
      ],
      "name": "transferFrom",
      "outputs": [
        {
          "internalType": "bool",
          "name": "",
          "type": "bool"
        }
      ],
      "stateMutability": "nonpayable",
      "type": "function"
    },
    {
      "inputs": [
        {
          "internalType": "address",
          "name": "newOwner",
          "type": "address"
        }
      ],
      "name": "transferOwnership",
      "outputs": [],
      "stateMutability": "nonpayable",
      "type": "function"
    },
    {
      "stateMutability": "payable",
      "type": "receive"
    }
  ],
  "transactionHash": "0x40f26a99dd85e4816315b4c7ceac22679b852a23c202570ef9e075878539a0b6",
  "args": [],
  "numDeployments": 1,
  "solcInputHash": "81f334fbcef587e9503e543454ef557b",
  "bytecode": "0x608060405234620000265762000014620001af565b6040516111ca6200082882396111ca90f35b600080fd5b634e487b7160e01b600052604160045260246000fd5b90601f01601f191681019081106001600160401b038211176200006357604052565b6200002b565b90620000806200007860405190565b928362000041565b565b6001600160401b0381116200006357602090601f01601f19160190565b90620000b5620000af8362000082565b62000069565b918252565b620000c6600c6200009f565b6b2aa9a2102334b632b1b7b4b760a11b602082015290565b620000e8620000ba565b90565b620000f760056200009f565b64555344464360d81b602082015290565b620000e8620000eb565b9060ff60a01b9060a01b5b9181191691161790565b62000137620000e8620000e89290565b60ff1690565b9062000151620000e8620001599262000127565b825462000112565b9055565b634e487b7160e01b600052601160045260246000fd5b60ff16604d81116200018557600a0a90565b6200015d565b620000e8620000e8620000e89290565b818102929181159184041417156200018557565b620001cf620001bd620000de565b620001c762000108565b90336200025c565b620001dd601260056200013d565b620000806200020d620001f9620001f3620004e2565b62000173565b62000207620186a06200018b565b6200019b565b33620004ee565b62000224620000e8620000e89290565b6001600160a01b031690565b620000e89062000214565b620002469062000224565b9052565b6020810192916200008091906200023b565b916200026891620004ae565b62000274600062000230565b6200027f8162000224565b6200028a8362000224565b146200029c57506200008090620005ba565b620002c290620002ab60405190565b631e4fbdf760e01b8152918291600483016200024a565b0390fd5b634e487b7160e01b600052602260045260246000fd5b9060016002830492168015620002ff575b6020831014620002f957565b620002c6565b91607f1691620002ed565b9160001960089290920291821b911b6200011d565b919062000334620000e862000159936200018b565b9083546200030a565b62000080916000916200031f565b81811062000357575050565b806200036760006001936200033d565b016200034b565b9190601f81116200037e57505050565b620003926200008093600052602060002090565b906020601f840181900483019310620003b6575b6020601f9091010401906200034b565b9091508190620003a6565b90620003cb815190565b906001600160401b0382116200006357620003f382620003ec8554620002dc565b856200036e565b602090601f831160011462000432576200015992916000918362000426575b5050600019600883021c1916906002021790565b01519050388062000412565b601f198316916200044885600052602060002090565b9260005b81811062000489575091600293918560019694106200046f575b50505002019055565b01516000196008601f8516021c1916905538808062000466565b919360206001819287870151815501950192016200044c565b906200008091620003c1565b90620004c062000080926003620004a2565b6004620004a2565b620000e89060a01c62000137565b620000e89054620004c8565b620000e86005620004d6565b9190620004fc600062000230565b92620005088462000224565b620005138262000224565b146200052557620000809293620006ae565b620002c2846200053460405190565b63ec442f0560e01b8152918291600483016200024a565b620000e89062000224565b620000e890546200054b565b906001600160a01b03906200011d565b620000e89062000224906001600160a01b031682565b620000e89062000572565b620000e89062000588565b90620005b2620000e8620001599262000593565b825462000562565b620005e8620005e1620005ce600562000556565b620005db8460056200059e565b62000593565b9162000593565b907f8be0079c531659141344cd1fd0a4f28419497f9722a3daafe3b4186f6b6457e06200061460405190565b80805b0390a3565b90620006289062000593565b600052602052604060002090565b620000e89081565b620000e8905462000636565b604090620006756200008094969593966200066e606084019860008501906200023b565b6020830152565b0152565b90600019906200011d565b9062000698620000e862000159926200018b565b825462000679565b919082018092116200018557565b816000620006bc8162000230565b620006c78162000224565b620006d28562000224565b036200079b57600080516020620019f283398151915293620006179362000758936200072562000751946200071f620007178c6200071160026200063e565b620006a0565b600262000684565b62000224565b620007308362000224565b0362000770575050620005db62000717886200074d60026200063e565b0390565b9362000593565b936200076360405190565b9182918290815260200190565b620005db9162000780916200061c565b620007948962000790836200063e565b0190565b9062000684565b909150620007b4620007ae84846200061c565b6200063e565b8581106200080057600080516020620019f2833981519152938562000617946200072562000758956200071f620007ee8c62000751980390565b620007fa87866200061c565b62000684565b83620002c2876200081060405190565b63391434e360e21b8152938493600485016200064a56fe60806040526004361015610023575b361561001957600080fd5b61002161090e565b005b60003560e01c806306fdde0314610143578063095ea7b31461013e57806318160ddd1461013957806323b872dd14610134578063313ce5671461012f578063333522101461012a57806340c10f191461012557806370a0823114610120578063715018a61461011b5780638da5cb5b1461011657806395d89b41146101115780639ee671721461010c578063a9059cbb14610107578063d9e69a0514610102578063db006a75146100fd578063dd62ed3e146100f8578063edc7d04f146100f35763f2fde38b0361000e57610577565b61055c565b6104d5565b61049a565b61046b565b610430565b61041d565b610402565b6103cd565b6103b5565b61039a565b61037c565b61034e565b6102f4565b6102d8565b610283565b610255565b6101c7565b600091031261015357565b600080fd5b60005b83811061016b5750506000910152565b818101518382015260200161015b565b61019c6101a56020936101af93610190815190565b80835293849260200190565b95869101610158565b601f01601f191690565b0190565b60208082526101c49291019061017b565b90565b34610153576101d7366004610148565b6101ee6101e26106c4565b604051918291826101b3565b0390f35b6001600160a01b031690565b6001600160a01b0381165b0361015357565b9050359061021d826101fe565b565b80610209565b9050359061021d8261021f565b9190604083820312610153576101c490602061024e8286610210565b9401610225565b34610153576101ee61027161026b366004610232565b906106ce565b60405191829182901515815260200190565b3461015357610293366004610148565b6101ee61029e6106ef565b6040515b9182918290815260200190565b9091606082840312610153576101c46102c88484610210565b93604061024e8260208701610210565b34610153576101ee6102716102ee3660046102af565b916106f9565b3461015357610304366004610148565b6101ee61030f610726565b6040519182918260ff909116815260200190565b90602082820312610153576101c491610210565b90815260408101929161021d9160200152565b0152565b3461015357610366610361366004610323565b610783565b906101ee61037360405190565b92839283610337565b346101535761039561038f366004610232565b906107fe565b604051005b34610153576101ee61029e6103b0366004610323565b610808565b34610153576103c5366004610148565b610395610857565b34610153576103dd366004610148565b6101ee6103e8610872565b604051918291826001600160a01b03909116815260200190565b3461015357610412366004610148565b6101ee6101e261087c565b610428366004610148565b61039561090e565b34610153576101ee610271610446366004610232565b906109e6565b6101c46101c46101c49290565b6101c4606e61044c565b6101c4610459565b346101535761047b366004610148565b6101ee61029e610463565b90602082820312610153576101c491610225565b34610153576103956104ad366004610486565b610aa2565b9190604083820312610153576101c49060206104ce8286610210565b9401610210565b34610153576101ee61029e6104eb3660046104b2565b90610b78565b6101f26101c46101c4926001600160a01b031690565b6101c4906104f1565b6101c490610507565b9061052390610510565b600052602052604060002090565b6101c4916008021c81565b906101c49154610531565b60006105576101c4926006610519565b61053c565b34610153576101ee61029e610572366004610323565b610547565b346101535761039561058a366004610323565b610c1b565b634e487b7160e01b600052602260045260246000fd5b90600160028304921680156105c5575b60208310146105c057565b61058f565b91607f16916105b5565b805460009392916105ec6105e2836105a5565b8085529360200190565b916001811690811561063e575060011461060557505050565b6106189192939450600052602060002090565b916000925b81841061062a5750500190565b80548484015260209093019260010161061d565b92949550505060ff1916825215156020020190565b906101c4916105cf565b634e487b7160e01b600052604160045260246000fd5b90601f01601f1916810190811067ffffffffffffffff82111761069557604052565b61065d565b9061021d6106b4926106ab60405190565b93848092610653565b0383610673565b6101c49061069a565b6101c460036106bb565b6106d9919033610c24565b600190565b6101c49081565b6101c490546106de565b6101c460026106e5565b6106d992919061070a833383610c58565b610cd6565b6101c49060a01c60ff1690565b6101c4905461070f565b6101c4600561071c565b634e487b7160e01b600052601160045260246000fd5b8181029291811591840414171561075957565b610730565b634e487b7160e01b600052601260045260246000fd5b811561077e570490565b61075e565b90610797610792836006610519565b6106e5565b6107a18193610808565b6107ab600061044c565b81036107bd5750506101c4600061044c565b6107e26107d86101c4936107d26103e861044c565b90610746565b6107d2606461044c565b610774565b9061021d916107f4610db5565b9061021d91610e1c565b9061021d916107e7565b6107926101c491610817600090565b506000610519565b610827610db5565b61021d610845565b6101f26101c46101c49290565b6101c49061082f565b61021d610852600061083c565b610e7f565b61021d61081f565b6101c4906101f2565b6101c4905461085f565b6101c46005610868565b6101c460046106bb565b1561088d57565b60405162461bcd60e51b815260206004820152601b60248201527f4d7573742073656e642046494c20617320636f6c6c61746572616c00000000006044820152606490fd5b0390fd5b9190820180921161075957565b90600019905b9181191691161790565b906109036101c461090a9261044c565b82546108e3565b9055565b61092261091b600061044c565b3411610886565b6109ab6109396109336103e861044c565b34610746565b610960610947336006610519565b61095a610953826106e5565b34906108d6565b906108f3565b61096a8133610e1c565b7f4c209b5fc8ad50758f13e2e1088ba56a560dff690a1c6fef26394f4c03821c4f61099433610510565b9283926109a060405190565b918291349083610337565b0390a27fd7243f6f8212d5188fd054141cf6ea89cfc0d91facb8c3afe2f88a13584801426109d860405190565b34815280602081015b0390a2565b6106d9919033610cd6565b156109f857565b60405162461bcd60e51b815260206004820152601a60248201527f496e73756666696369656e742055534446432062616c616e63650000000000006044820152606490fd5b15610a4457565b60405162461bcd60e51b815260206004820152601760248201527f496e73756666696369656e7420636f6c6c61746572616c0000000000000000006044820152606490fd5b9190820391821161075957565b6040513d6000823e3d90fd5b610ab6610aae33610808565b8211156109f1565b610aca610ac46103e861044c565b82610774565b610ae3610adb610792336006610519565b821115610a3d565b610b03610af1336006610519565b61095a83610afe836106e5565b610a89565b610b0d8233610ed3565b600080808084610b24610b1f33610510565b610510565b828215610b6f575bf115610b6a577fe5b754fb1abb7f01b499791d0b820ae3b6af3424ac1c59768edb53f4ec31a92990610b5d33610510565b926109e161037360405190565b610a96565b506108fc610b2c565b6101c491610b9361079292610b8b600090565b506001610519565b610519565b61021d90610ba4610db5565b610bae600061083c565b6001600160a01b0381166001600160a01b03831614610bd1575061021d90610e7f565b6108d290610bde60405190565b9182917f1e4fbdf7000000000000000000000000000000000000000000000000000000008352600483016001600160a01b03909116815260200190565b61021d90610b98565b9160019161021d93610f11565b6001600160a01b03909116815260608101939261021d92909160409161034a906020830152565b91610c638284610b78565b6000198110610c73575b50505050565b818110610c995791610c8a610c9094926000940390565b91610f11565b38808080610c6d565b826108d283610ca760405190565b9384937ffb8f41b200000000000000000000000000000000000000000000000000000000855260048501610c31565b929190610ce3600061083c565b936001600160a01b0385166001600160a01b03821614610d6b576001600160a01b0385166001600160a01b03831614610d215761021d939450611046565b6108d285610d2e60405190565b9182917fec442f05000000000000000000000000000000000000000000000000000000008352600483016001600160a01b03909116815260200190565b6108d285610d7860405190565b9182917f96c6fd1e000000000000000000000000000000000000000000000000000000008352600483016001600160a01b03909116815260200190565b610dbd610872565b339081906001600160a01b031603610dd25750565b6108d290610ddf60405190565b9182917f118cdaa7000000000000000000000000000000000000000000000000000000008352600483016001600160a01b03909116815260200190565b9190610e28600061083c565b926001600160a01b0384166001600160a01b03821614610e4c5761021d9293611046565b6108d284610d2e60405190565b906001600160a01b03906108e9565b90610e786101c461090a92610510565b8254610e59565b610ea0610e9a610e8f6005610868565b610b1f846005610e68565b91610510565b907f8be0079c531659141344cd1fd0a4f28419497f9722a3daafe3b4186f6b6457e0610ecb60405190565b80805b0390a3565b9190610edf600061083c565b926001600160a01b0384166001600160a01b03821614610f04579261021d9293611046565b6108d284610d7860405190565b909192610f1e600061083c565b6001600160a01b0381166001600160a01b03841614610ffc576001600160a01b0381166001600160a01b03851614610fb25750610f6984610f6485610b93866001610519565b6108f3565b610f7257505050565b610ece610fa8610fa27f8c5be1e5ebec7d5bd14f71427d1e84f3dd0314c0f7b2291e5b200ac8c7c3b92593610510565b93610510565b936102a260405190565b6108d290610fbf60405190565b9182917f94280d62000000000000000000000000000000000000000000000000000000008352600483016001600160a01b03909116815260200190565b6108d29061100960405190565b9182917fe602df05000000000000000000000000000000000000000000000000000000008352600483016001600160a01b03909116815260200190565b8160006110528161083c565b6001600160a01b0381166001600160a01b038516036110f9577fddf252ad1be2c89b69c2b068fc378daa952ba7f163c4a11628f55a4df523b3ef93610ece93610fa8936110b9610fa2946101f26110b28c6110ad60026106e5565b6108d6565b60026108f3565b6001600160a01b038316036110df575050610b1f6110b2886110db60026106e5565b0390565b610b1f916110ec91610519565b61095a896101af836106e5565b9091506111096107928484610519565b858110611157577fddf252ad1be2c89b69c2b068fc378daa952ba7f163c4a11628f55a4df523b3ef9385610ece946110b9610fa8956101f261114d8c610fa2980390565b610f648786610519565b836108d28761116560405190565b9384937fe450d38c00000000000000000000000000000000000000000000000000000000855260048501610c3156fea26469706673582212209c182ce2b3b74269d2f55dc529cd1a8715ea484bf8e7ed9f052303721c6cc12a64736f6c63430008180033ddf252ad1be2c89b69c2b068fc378daa952ba7f163c4a11628f55a4df523b3ef",
  "devdoc": {
    "details": "Mock USDFC token for testing VerifiAI marketplace",
    "errors": {
      "ERC20InsufficientAllowance(address,uint256,uint256)": [
        {
          "details": "Indicates a failure with the `spender`s `allowance`. Used in transfers.",
          "params": {
            "allowance": "Amount of tokens a `spender` is allowed to operate with.",
            "needed": "Minimum amount required to perform a transfer.",
            "spender": "Address that may be allowed to operate on tokens without being their owner."
          }
        }
      ],
      "ERC20InsufficientBalance(address,uint256,uint256)": [
        {
          "details": "Indicates an error related to the current `balance` of a `sender`. Used in transfers.",
          "params": {
            "balance": "Current balance for the interacting account.",
            "needed": "Minimum amount required to perform a transfer.",
            "sender": "Address whose tokens are being transferred."
          }
        }
      ],
      "ERC20InvalidApprover(address)": [
        {
          "details": "Indicates a failure with the `approver` of a token to be approved. Used in approvals.",
          "params": {
            "approver": "Address initiating an approval operation."
          }
        }
      ],
      "ERC20InvalidReceiver(address)": [
        {
          "details": "Indicates a failure with the token `receiver`. Used in transfers.",
          "params": {
            "receiver": "Address to which tokens are being transferred."
          }
        }
      ],
      "ERC20InvalidSender(address)": [
        {
          "details": "Indicates a failure with the token `sender`. Used in transfers.",
          "params": {
            "sender": "Address whose tokens are being transferred."
          }
        }
      ],
      "ERC20InvalidSpender(address)": [
        {
          "details": "Indicates a failure with the `spender` to be approved. Used in approvals.",
          "params": {
            "spender": "Address that may be allowed to operate on tokens without being their owner."
          }
        }
      ],
      "OwnableInvalidOwner(address)": [
        {
          "details": "The owner is not a valid owner account. (eg. `address(0)`)"
        }
      ],
      "OwnableUnauthorizedAccount(address)": [
        {
          "details": "The caller account is not authorized to perform an operation."
        }
      ]
    },
    "events": {
      "Approval(address,address,uint256)": {
        "details": "Emitted when the allowance of a `spender` for an `owner` is set by a call to {approve}. `value` is the new allowance."
      },
      "Transfer(address,address,uint256)": {
        "details": "Emitted when `value` tokens are moved from one account (`from`) to another (`to`). Note that `value` may be zero."
      }
    },
    "kind": "dev",
    "methods": {
      "allowance(address,address)": {
        "details": "See {IERC20-allowance}."
      },
      "approve(address,uint256)": {
        "details": "See {IERC20-approve}. NOTE: If `value` is the maximum `uint256`, the allowance is not updated on `transferFrom`. This is semantically equivalent to an infinite approval. Requirements: - `spender` cannot be the zero address."
      },
      "balanceOf(address)": {
        "details": "See {IERC20-balanceOf}."
      },
      "decimals()": {
        "details": "Returns the number of decimals (18 like real USDFC)"
      },
      "getCollateralInfo(address)": {
        "details": "Get user's collateral info",
        "params": {
          "user": "User address"
        },
        "returns": {
          "collateralRatio": "Current collateral ratio percentage",
          "depositedCollateral": "Amount of FIL deposited as collateral"
        }
      },
      "mint(address,uint256)": {
        "details": "Mint tokens directly (only owner, for testing purposes)",
        "params": {
          "amount": "Amount to mint",
          "to": "Address to mint tokens to"
        }
      },
      "mintWithCollateral()": {
        "details": "Mint USDFC by depositing FIL as collateral (mock version)"
      },
      "name()": {
        "details": "Returns the name of the token."
      },
      "owner()": {
        "details": "Returns the address of the current owner."
      },
      "redeem(uint256)": {
        "details": "Redeem USDFC for FIL collateral",
        "params": {
          "amount": "Amount of USDFC to redeem"
        }
      },
      "renounceOwnership()": {
        "details": "Leaves the contract without owner. It will not be possible to call `onlyOwner` functions. Can only be called by the current owner. NOTE: Renouncing ownership will leave the contract without an owner, thereby disabling any functionality that is only available to the owner."
      },
      "symbol()": {
        "details": "Returns the symbol of the token, usually a shorter version of the name."
      },
      "totalSupply()": {
        "details": "See {IERC20-totalSupply}."
      },
      "transfer(address,uint256)": {
        "details": "See {IERC20-transfer}. Requirements: - `to` cannot be the zero address. - the caller must have a balance of at least `value`."
      },
      "transferFrom(address,address,uint256)": {
        "details": "See {IERC20-transferFrom}. Skips emitting an {Approval} event indicating an allowance update. This is not required by the ERC. See {xref-ERC20-_approve-address-address-uint256-bool-}[_approve]. NOTE: Does not update the allowance if the current allowance is the maximum `uint256`. Requirements: - `from` and `to` cannot be the zero address. - `from` must have a balance of at least `value`. - the caller must have allowance for ``from``'s tokens of at least `value`."
      },
      "transferOwnership(address)": {
        "details": "Transfers ownership of the contract to a new account (`newOwner`). Can only be called by the current owner."
      }
    },
    "title": "USDFC - Mock USD Filecoin for Calibration Testnet",
    "version": 1
  },
  "userdoc": {
    "kind": "user",
    "methods": {
      "mintWithCollateral()": {
        "notice": "For testing: 1000 USDFC per FIL (0.1 FIL = 100 USDFC)"
      }
    },
    "notice": "Based on the real USDFC by Secured Finance, this is a testnet version",
    "version": 1
  },
  "storageLayout": {
    "storage": [
      {
        "astId": 307,
        "contract": "contracts/USDFC.sol:USDFC",
        "label": "_balances",
        "offset": 0,
        "slot": "0",
        "type": "t_mapping(t_address,t_uint256)"
      },
      {
        "astId": 313,
        "contract": "contracts/USDFC.sol:USDFC",
        "label": "_allowances",
        "offset": 0,
        "slot": "1",
        "type": "t_mapping(t_address,t_mapping(t_address,t_uint256))"
      },
      {
        "astId": 315,
        "contract": "contracts/USDFC.sol:USDFC",
        "label": "_totalSupply",
        "offset": 0,
        "slot": "2",
        "type": "t_uint256"
      },
      {
        "astId": 317,
        "contract": "contracts/USDFC.sol:USDFC",
        "label": "_name",
        "offset": 0,
        "slot": "3",
        "type": "t_string_storage"
      },
      {
        "astId": 319,
        "contract": "contracts/USDFC.sol:USDFC",
        "label": "_symbol",
        "offset": 0,
        "slot": "4",
        "type": "t_string_storage"
      },
      {
        "astId": 8,
        "contract": "contracts/USDFC.sol:USDFC",
        "label": "_owner",
        "offset": 0,
        "slot": "5",
        "type": "t_address"
      },
      {
        "astId": 945,
        "contract": "contracts/USDFC.sol:USDFC",
        "label": "_decimals",
        "offset": 20,
        "slot": "5",
        "type": "t_uint8"
      },
      {
        "astId": 974,
        "contract": "contracts/USDFC.sol:USDFC",
        "label": "collateralDeposits",
        "offset": 0,
        "slot": "6",
        "type": "t_mapping(t_address,t_uint256)"
      }
    ],
    "types": {
      "t_address": {
        "encoding": "inplace",
        "label": "address",
        "numberOfBytes": "20"
      },
      "t_mapping(t_address,t_mapping(t_address,t_uint256))": {
        "encoding": "mapping",
        "key": "t_address",
        "label": "mapping(address => mapping(address => uint256))",
        "numberOfBytes": "32",
        "value": "t_mapping(t_address,t_uint256)"
      },
      "t_mapping(t_address,t_uint256)": {
        "encoding": "mapping",
        "key": "t_address",
        "label": "mapping(address => uint256)",
        "numberOfBytes": "32",
        "value": "t_uint256"
      },
      "t_string_storage": {
        "encoding": "bytes",
        "label": "string",
        "numberOfBytes": "32"
      },
      "t_uint256": {
        "encoding": "inplace",
        "label": "uint256",
        "numberOfBytes": "32"
      },
      "t_uint8": {
        "encoding": "inplace",
        "label": "uint8",
        "numberOfBytes": "1"
      }
    }
  }
}