{
  "address": "0x1e41e58c7F0b3766ADa3c7f72cf5cc056E571895",
  "abi": [
    {
      "inputs": [
        {
          "internalType": "int256",
          "name": "errorCode",
          "type": "int256"
        }
      ],
      "name": "ActorError",
      "type": "error"
    },
    {
      "inputs": [],
      "name": "ActorNotFound",
      "type": "error"
    },
    {
      "inputs": [],
      "name": "FailToCallActor",
      "type": "error"
    },
    {
      "inputs": [
        {
          "internalType": "uint64",
          "name": "",
          "type": "uint64"
        }
      ],
      "name": "InvalidCodec",
      "type": "error"
    },
    {
      "inputs": [],
      "name": "InvalidResponseLength",
      "type": "error"
    },
    {
      "inputs": [
        {
          "internalType": "uint256",
          "name": "balance",
          "type": "uint256"
        },
        {
          "internalType": "uint256",
          "name": "value",
          "type": "uint256"
        }
      ],
      "name": "NotEnoughBalance",
      "type": "error"
    },
    {
      "inputs": [
        {
          "internalType": "uint64",
          "name": "dealId",
          "type": "uint64"
        }
      ],
      "name": "getDealActivationInfo",
      "outputs": [
        {
          "components": [
            {
              "internalType": "bool",
              "name": "isActivated",
              "type": "bool"
            },
            {
              "internalType": "bool",
              "name": "isTerminated",
              "type": "bool"
            },
            {
              "internalType": "int64",
              "name": "activatedEpoch",
              "type": "int64"
            },
            {
              "internalType": "int64",
              "name": "terminatedEpoch",
              "type": "int64"
            }
          ],
          "internalType": "struct VeriFlowMarketApiHelper.DealActivationInfo",
          "name": "info",
          "type": "tuple"
        }
      ],
      "stateMutability": "nonpayable",
      "type": "function"
    },
    {
      "inputs": [
        {
          "internalType": "uint64",
          "name": "dealId",
          "type": "uint64"
        }
      ],
      "name": "getDealClient",
      "outputs": [
        {
          "internalType": "uint64",
          "name": "clientId",
          "type": "uint64"
        }
      ],
      "stateMutability": "nonpayable",
      "type": "function"
    },
    {
      "inputs": [
        {
          "internalType": "uint64",
          "name": "dealId",
          "type": "uint64"
        }
      ],
      "name": "getDealDataInfo",
      "outputs": [
        {
          "components": [
            {
              "internalType": "bool",
              "name": "isValid",
              "type": "bool"
            },
            {
              "internalType": "uint64",
              "name": "dataSize",
              "type": "uint64"
            },
            {
              "internalType": "bytes32",
              "name": "dataCommitment",
              "type": "bytes32"
            }
          ],
          "internalType": "struct VeriFlowMarketApiHelper.DealDataInfo",
          "name": "info",
          "type": "tuple"
        }
      ],
      "stateMutability": "nonpayable",
      "type": "function"
    },
    {
      "inputs": [
        {
          "internalType": "uint64",
          "name": "dealId",
          "type": "uint64"
        }
      ],
      "name": "getDealProvider",
      "outputs": [
        {
          "internalType": "uint64",
          "name": "providerId",
          "type": "uint64"
        }
      ],
      "stateMutability": "nonpayable",
      "type": "function"
    },
    {
      "inputs": [
        {
          "internalType": "uint64",
          "name": "dealId",
          "type": "uint64"
        }
      ],
      "name": "isDealActive",
      "outputs": [
        {
          "internalType": "bool",
          "name": "isActive",
          "type": "bool"
        }
      ],
      "stateMutability": "nonpayable",
      "type": "function"
    }
  ],
  "transactionHash": "0x3f90512b93664ccb46115b303f68269357efa1dc0d70d2c307e3fd6a46ae3966",
  "args": [],
  "numDeployments": 1,
  "solcInputHash": "905b15f7227855e101dfa404276a2eaf",
  "bytecode": "0x60806040523461001a57604051611d606100208239611d6090f35b600080fdfe6080604052600436101561001257600080fd5b60003560e01c8063117878f8146100625780631e1ebc4e1461005d57806333277715146100585780635de4d198146100535763f73278e203610067576101c5565b610167565b610140565b6100da565b6100a9565b600080fd5b67ffffffffffffffff81165b0361006757565b9050359061008c8261006c565b565b90602082820312610067576100a29161007f565b90565b9052565b34610067576100d66100c46100bf36600461008e565b61034b565b60405191829182901515815260200190565b0390f35b34610067576100d66100f56100f036600461008e565b610488565b6040519182918267ffffffffffffffff909116815260200190565b60608101929161008c919080511515825260208082015167ffffffffffffffff1690830152604090810151910152565b34610067576100d661015b61015636600461008e565b6104ee565b60405191829182610110565b34610067576100d66100f561017d36600461008e565b61057b565b80511515825261008c9190606090819060208181015115159085015260408181015160070b90850152015160070b910152565b60808101929161008c9190610182565b34610067576100d66101e06101db36600461008e565b6105e6565b604051918291826101b5565b6101f96100a26100a29290565b67ffffffffffffffff1690565b6102296100a26100a29273ffffffffffffffffffffffffffffffffffffffff1690565b73ffffffffffffffffffffffffffffffffffffffff1690565b6100a290610206565b6100a290610242565b634e487b7160e01b600052604160045260246000fd5b90601f01601f1916810190811067ffffffffffffffff82111761028c57604052565b610254565b9061008c61029e60405190565b928361026a565b801515610078565b9050519061008c826102a5565b6100788160070b90565b9050519061008c826102ba565b9190608083820312610067576103249060606102ed6080610291565b946102f883826102ad565b865261030783602083016102ad565b602087015261031983604083016102c4565b6040870152016102c4565b6060830152565b90608082820312610067576100a2916102d1565b6040513d6000823e3d90fd5b60008091610358826101ec565b67ffffffffffffffff82161461042f576103c46080916103773061024b565b9061038160405190565b95869384928391907ff73278e20000000000000000000000000000000000000000000000000000000083526004830167ffffffffffffffff909116815260200190565b03925af191821561042a5781926103f5575b5081015115155b90816103e7575090565b6020015115905090565b1590565b6103dd91925061041c9060803d608011610423575b610414818361026a565b81019061032b565b91906103d6565b503d61040a565b61033f565b505090565b0190565b1561043f57565b60405162461bcd60e51b815260206004820152600f60248201527f496e76616c6964206465616c20494400000000000000000000000000000000006044820152606490fd5b0390fd5b6100a2906104aa61049960006101ec565b67ffffffffffffffff831611610438565b6106ac565b6100a26060610291565b6104c16104af565b906000825260208080840160005b8152016000905250565b6100a26104b9565b6100a26100a26100a29290565b9061008c6104fa6104d9565b6040610513829561050e61049960006101ec565b61072b565b6105626105516020600084019361054261052c86515190565b61053d61053960006104e1565b9190565b118852565b015167ffffffffffffffff1690565b67ffffffffffffffff166020850152565b5161057561056e825190565b9160200190565b20910152565b6100a29061058c61049960006101ec565b610762565b6100a26080610291565b6105a3610591565b906000825260208080808501600081520160006104cf565b6100a261059b565b6105d36100a26100a29260070b90565b60070b90565b6105d36100a26100a29290565b9061008c6105f26105bb565b602061063161068561067161067f8561065e61066561065261063b89859e61064a604061064061063b60009e8f9561062c610499886101ec565b6107ac565b9485015160070b90565b6105c3565b60070b9801978852565b015160070b90565b60070b60608a01908152925b5160070b90565b610678610671886105d9565b9160070b90565b1388870152565b926105d9565b13910152565b6100a260056101ec565b6100a26337bc36da6104e1565b6100a260516101ec565b6106f060016106c66100a2936106c0600090565b506107ed565b6106ce61068b565b906106d7610695565b6106df6106a2565b906106ea60006104e1565b93610968565b610a31565b6100a26040610291565b6107076106f5565b9060605b825260006020830152565b6100a26106ff565b6100a2634505760a6104e1565b610750600161073f6100a2936106c0610716565b61074761068b565b906106d761071e565b610a75565b6100a26307a1f0516104e1565b6106f060016107766100a2936106c0600090565b61077e61068b565b906106d7610755565b61078f6106f5565b90600061070b565b6100a2610787565b6100a2639904f2ff6104e1565b6107d160016107c06100a2936106c0610797565b6107c861068b565b906106d761079f565b610b29565b6100a26100a26100a29267ffffffffffffffff1690565b6100a29061081461080d610808610803846107d6565b610b8a565b610c1f565b9182610c67565b610cc6565b6100a260006101ec565b6100a260016101ec565b60005b8381106108405750506000910152565b8181015183820152602001610830565b61087161087a60209361043493610865815190565b80835293849260200190565b9586910161082d565b601f01601f191690565b6101f96100a26100a29267ffffffffffffffff1690565b6100a590610884565b9695939461090061008c966108ef60a0966108de61090d9760208e6108da60c082019a600083019067ffffffffffffffff169052565b0152565b67ffffffffffffffff1660408c0152565b67ffffffffffffffff1660608a0152565b8782036080890152610850565b94019061089b565b67ffffffffffffffff811161028c57602090601f01601f19160190565b9061094461093f83610915565b610291565b918252565b3d15610963576109583d610932565b903d6000602084013e565b606090565b600095929193946109cb6109d7928897610980606090565b506109a973fe00000000000000000000000000000000000005986109a4868b610d0d565b6101ec565b968914610a23576109b8610823565b955b60405196879560208701998a6108a4565b8481038252038261026a565b51915af46109eb6109e6610949565b911590565b6109f8576100a290610e49565b6040517f8a7db5bf000000000000000000000000000000000000000000000000000000008152600490fd5b610a2b610819565b956109ba565b610a4990600090610a4260006104e1565b915061102f565b5090565b369037565b9061008c610a68610a6284610932565b93610915565b601f190160208401610a4d565b610a7d610716565b90600090610a93610a8d836104e1565b826110c7565b90610aa0610539856104e1565b1115610ad3579181610ab86100a294610ac1946111e8565b9286015261102f565b5067ffffffffffffffff166020830152565b5050610af681610aed610ae86100a2946104e1565b610a52565b818501526101ec565b67ffffffffffffffff166020830152565b634e487b7160e01b600052600160045260246000fd5b15610b2457565b610b07565b6100a2610b7f610b7a610b3a610797565b93610b6f610b69610b54610b4e60006104e1565b846110c7565b9190610b6361053960026104e1565b14610b1d565b82611311565b9290869060070b9052565b611311565b5060070b6020830152565b610b9460176104e1565b8111610ba557506100a260016104e1565b610baf60ff6104e1565b8111610bc057506100a260026104e1565b610bcb61ffff6104e1565b8111610bdc57506100a260036104e1565b610bec61053963ffffffff6104e1565b1115610bfc576100a260096104e1565b6100a260056104e1565b610c0e6106f5565b9061070b610716565b6100a2610c06565b610c35610c2a610c17565b916000830151611363565b506100a2610c4360006104e1565b6020830152565b610c576100a26100a29290565b60ff1690565b6100a26000610c4a565b9061008c91610c74610c5d565b90611427565b15610c8157565b60405162461bcd60e51b815260206004820152600c60248201527f496e76616c69642043424f5200000000000000000000000000000000000000006044820152606490fd5b60008091610cd2606090565b50610cf3610ce1602083015190565b610ced610539856104e1565b14610c7a565b0151015190565b90815260408101929161008c9160200152565b90610d173061024b565b31818110610d5e5750506103f1610d2d916115a7565b610d3357565b6040517f64d954b0000000000000000000000000000000000000000000000000000000008152600490fd5b610484610d6a60405190565b9283927f8f0f420600000000000000000000000000000000000000000000000000000000845260048401610cfa565b80610078565b9050519061008c82610d99565b9050519061008c8261006c565b90929192610dc961093f82610915565b93818552818301116100675761008c91602085019061082d565b9080601f830112156100675781516100a292602001610db9565b9160608383031261006757610e128284610d9f565b92610e208360208301610dac565b92604082015167ffffffffffffffff8111610067576100a29201610de3565b6100a260716101ec565b610e62906020610e57825190565b818301019101610dfd565b9190610e6f6101f9610819565b67ffffffffffffffff821603610f1557508151610e8f61053960006104e1565b03610ee9575b610e9f60006104e1565b8103610ea9575090565b61048490610eb660405190565b9182917fd4bb66710000000000000000000000000000000000000000000000000000000083526004830190815260200190565b6040515b7f0e749907000000000000000000000000000000000000000000000000000000008152600490fd5b610f206101f96106a2565b67ffffffffffffffff8216148015610fa0575b15610f5557508151610f4861053960006104e1565b03610e9557604051610eed565b61048490610f6260405190565b9182917ff1f6bced0000000000000000000000000000000000000000000000000000000083526004830167ffffffffffffffff909116815260200190565b50610fac6101f9610e3f565b67ffffffffffffffff821614610f33565b15610fc457565b60405162461bcd60e51b815260206004820152602560248201527f696e76616c6964206d616a20286578706563746564204d616a556e7369676e6560448201527f64496e74290000000000000000000000000000000000000000000000000000006064820152608490fd5b61105561104c6109a4949361053993611046600090565b506116b5565b959192906107d6565b9161106b611064610c57610c5d565b9160ff1690565b14610fbd565b6100a26004610c4a565b1561108257565b60405162461bcd60e51b815260206004820152601f60248201527f696e76616c6964206d616a20286578706563746564204d616a417272617929006044820152606490fd5b6110db61053993926110e492611046600090565b949192906107d6565b916110f3611064610c57611071565b1461107b565b6100a26006610c4a565b6100a26002610c4a565b1561111457565b60405162461bcd60e51b815260206004820152602e60248201527f696e76616c6964206d616a20286578706563746564204d616a546167206f722060448201527f4d616a42797465537472696e67290000000000000000000000000000000000006064820152608490fd5b634e487b7160e01b600052601160045260246000fd5b919082018092116111a257565b61117f565b634e487b7160e01b600052603260045260246000fd5b906111c6825190565b8110156111d4570160200190565b6111a7565b60001981146111a25760010190565b906111f390826116b5565b6111fe8193926107d6565b9161122261120d610c576110f9565b60ff83161491829083156112fa575b5061110d565b6112c8575b506112328183611195565b9261123c82610a52565b9460009261124a60006104e1565b85905b88885b8810156112b6576112a7826112ae926112a1611250956112996112738e8d6111bd565b517fff000000000000000000000000000000000000000000000000000000000000001690565b8c1a926111bd565b536111d9565b9760010190565b96905061124d565b50509250925093506100a29250611195565b6112f492506112e591506112dc90846116b5565b939192906107d6565b91610b63611064610c57611103565b38611227565b905061130a611064610c57611103565b143861121c565b610539929161132a9161132460006105d9565b506118bc565b92906105c3565b634e487b7160e01b600052601260045260246000fd5b8115611351570690565b611331565b919082039182116111a257565b9061136c610716565b50602061138161137b826104e1565b83611347565b61138e61053960006104e1565b036113b9575b61139e8282850152565b60405191828452600083528201019081106100675760405290565b906113e1906113db6113cd61137b856104e1565b6113d6856104e1565b611356565b90611195565b90611394565b610c57906113fb6110646100a29460ff1690565b901b90565b6101f96100a26100a29260ff1690565b610c576100a26100a29267ffffffffffffffff1690565b91909161143460176101ec565b67ffffffffffffffff83161161147c57611479929161146d6114686000611473940151946114626005610c4a565b906113e7565b611400565b17611410565b9061192d565b50565b61148660ff6101ec565b67ffffffffffffffff8316116114dc578051611479936114cc92916114c4916114b3906114626005610c4a565b6114bd6018610c4a565b179061192d565b5051916107d6565b6114d660016104e1565b916119ae565b6114e761ffff6101ec565b67ffffffffffffffff8316116115285780516114799361151e92916114c491611514906114626005610c4a565b6114bd6019610c4a565b6114d660026104e1565b61153563ffffffff6101ec565b67ffffffffffffffff8316116115765780516114799361156c92916114c491611562906114626005610c4a565b6114bd601a610c4a565b6114d660046104e1565b80516114799361159d92916114c491611593906114626005610c4a565b6114bd601b610c4a565b6114d660086104e1565b3f6115b561053960006104e1565b141590565b610c57906115ce6110646100a29460ff1690565b901c90565b156115da57565b60405162461bcd60e51b815260206004820152602560248201527f63616e6e6f742068616e646c652068656164657273207769746820657874726160448201527f203e2032370000000000000000000000000000000000000000000000000000006064820152608490fd5b1561164c57565b60405162461bcd60e51b815260206004820152600c60248201527f696e76616c69642063626f7200000000000000000000000000000000000000006044820152606490fd5b6101f96100a26100a29261ffff1690565b6101f96100a26100a29263ffffffff1690565b90916116c18383611aa2565b916116d66116cf60016104e1565b8095611195565b93846116f76116e560e0610c4a565b86166116f16005610c4a565b906115ba565b94611702601f610c4a565b169161171b611711601c610c4a565b60ff8516106115d3565b6117256018610c4a565b60ff84161061181b576117386018610c4a565b60ff8416146117e15750509084916117506019610c4a565b60ff8216146117be57611763601a610c4a565b60ff82161461179b579161178a9161178561179594610b63611064601b610c4a565b611ba1565b936113db60086104e1565b91929190565b506117ac610539926117b792611b66565b946113db60046104e1565b92936116a2565b506117cf610539926117da92611b0f565b946113db60026104e1565b9293611691565b9095506117fc91506117f68661053994611aa2565b95611195565b9261181561180a6018610c4a565b60ff87161015611645565b93611400565b509394506105399150611400565b6100a26001610c4a565b1561183a57565b60405162461bcd60e51b815260206004820152603560248201527f696e76616c6964206d616a20286578706563746564204d616a5369676e65644960448201527f6e74206f72204d616a556e7369676e6564496e742900000000000000000000006064820152608490fd5b6105d36100a26100a29267ffffffffffffffff1690565b6118fe6118df6118d66109a4959461053994611046600090565b969192906107d6565b916118eb610c57611829565b60ff821614908115611903575b50611833565b6118a5565b9050611913611064610c57610c5d565b14386118f8565b818102929181159184041417156111a257565b90611936610716565b5081515161194d61194760016104e1565b82611195565b9161195c6100a2602086015190565b82101561197e575b6020845192830101538051821161197a57505090565b5290565b61199a61199461198e60026104e1565b8561191a565b85611bd0565b611964565b601f81116111a2576101000a90565b91906119b8610716565b506119fe6119ee6119d46119ce60008701515190565b85611195565b936119e36100a2602088015190565b8511611a195761199f565b6119f860016104e1565b90611356565b83519183830191198251161790528051821161197a57505090565b611a35611a2f611a2960026104e1565b8761191a565b87611bd0565b61199f565b15611a4157565b60405162461bcd60e51b815260206004820152601460248201527f736c6963696e67206f7574206f662072616e67650000000000000000000000006044820152606490fd5b610c576100a26100a29260ff1690565b6100a29060f81c611a86565b6112736100a292611ae692611ab5600090565b50611ae1611ac1825190565b611ada6105396100a2611ad460016104e1565b87611195565b1015611a3a565b6111bd565b611a96565b611afc6100a26100a29261ffff1690565b61ffff1690565b6100a29060f01c611aeb565b6100a2916000611b33611b20845190565b611ada6105396100a2611ad460026104e1565b506020010151611b03565b611b516100a26100a29263ffffffff1690565b63ffffffff1690565b6100a29060e01c611b3e565b6100a2916000611b8a611b77845190565b611ada6105396100a2611ad460046104e1565b506020010151611b5a565b6100a29060c01c610884565b6100a2916000611bc5611bb2845190565b611ada6105396100a2611ad460086104e1565b506020010151611b95565b9061147991611be460008201519282611363565b506100a291611bf1610716565b50805191611c14565b1561006757565b90611c0f6105396100a29390565b900a90565b92611c1d610716565b50611c34611c2c6100a2845190565b841115611bfa565b83515191611c428484611195565b90611c516100a2602088015190565b8211611d0f575b602091865180519584820101958211611d07575b505093919301915b6020611c7f816104e1565b8310611cbb57611cb491611ca3611c9c611ca993875184526104e1565b8092611195565b94611195565b916119f860206104e1565b9091611c74565b509190611ce9611cd9611cf892969596611cd560206104e1565b0390565b611ce46101006104e1565b611c01565b611cf360016104e1565b900390565b90518251821691191617905290565b523880611c6c565b611d25611a2f611d1f60026104e1565b8461191a565b611c5856fea264697066735822122060c4a63e76f35a0ae0e842c925a817bf86366e13c577b235a84feb7bb5bed1f264736f6c63430008180033",
  "devdoc": {
    "details": "Isolated contract for MarketAPI interactions to avoid stack depth issues",
    "kind": "dev",
    "methods": {
      "getDealActivationInfo(uint64)": {
        "params": {
          "dealId": "Deal ID to check"
        },
        "returns": {
          "info": "Deal activation information"
        }
      },
      "getDealClient(uint64)": {
        "params": {
          "dealId": "Deal ID"
        },
        "returns": {
          "clientId": "Client ID"
        }
      },
      "getDealDataInfo(uint64)": {
        "params": {
          "dealId": "Deal ID to check"
        },
        "returns": {
          "info": "Deal data information"
        }
      },
      "getDealProvider(uint64)": {
        "params": {
          "dealId": "Deal ID"
        },
        "returns": {
          "providerId": "Provider ID"
        }
      },
      "isDealActive(uint64)": {
        "params": {
          "dealId": "Deal ID to check"
        },
        "returns": {
          "isActive": "Whether deal is active"
        }
      }
    },
    "title": "VeriFlowMarketApiHelper",
    "version": 1
  },
  "userdoc": {
    "errors": {
      "ActorError(int256)": [
        {
          "notice": "the called actor returned an error as part of its expected behaviour"
        }
      ],
      "ActorNotFound()": [
        {
          "notice": "the actor is not found"
        }
      ],
      "FailToCallActor()": [
        {
          "notice": "an error happened trying to call the actor"
        }
      ],
      "InvalidCodec(uint64)": [
        {
          "notice": "the codec received is not valid"
        }
      ],
      "InvalidResponseLength()": [
        {
          "notice": "the response received is not correct. In some case no response is expected and we received one, or a response was indeed expected and we received none."
        }
      ],
      "NotEnoughBalance(uint256,uint256)": [
        {
          "notice": "the smart contract has no enough balance to transfer"
        }
      ]
    },
    "kind": "user",
    "methods": {
      "getDealActivationInfo(uint64)": {
        "notice": "Get deal activation information (stack-optimized)"
      },
      "getDealClient(uint64)": {
        "notice": "Get deal client ID"
      },
      "getDealDataInfo(uint64)": {
        "notice": "Get deal data information (stack-optimized)"
      },
      "getDealProvider(uint64)": {
        "notice": "Get deal provider ID  "
      },
      "isDealActive(uint64)": {
        "notice": "Simple check if deal is active and valid"
      }
    },
    "notice": "This contract handles all complex Filecoin MarketAPI operations",
    "version": 1
  },
  "storageLayout": {
    "storage": [],
    "types": null
  }
}