{
  "_format": "hh-sol-artifact-1",
  "contractName": "USDFC",
  "sourceName": "contracts/USDFC.sol",
  "abi": [
    {
      "inputs": [],
      "stateMutability": "nonpayable",
      "type": "constructor"
    },
    {
      "inputs": [
        {
          "internalType": "address",
          "name": "spender",
          "type": "address"
        },
        {
          "internalType": "uint256",
          "name": "allowance",
          "type": "uint256"
        },
        {
          "internalType": "uint256",
          "name": "needed",
          "type": "uint256"
        }
      ],
      "name": "ERC20InsufficientAllowance",
      "type": "error"
    },
    {
      "inputs": [
        {
          "internalType": "address",
          "name": "sender",
          "type": "address"
        },
        {
          "internalType": "uint256",
          "name": "balance",
          "type": "uint256"
        },
        {
          "internalType": "uint256",
          "name": "needed",
          "type": "uint256"
        }
      ],
      "name": "ERC20InsufficientBalance",
      "type": "error"
    },
    {
      "inputs": [
        {
          "internalType": "address",
          "name": "approver",
          "type": "address"
        }
      ],
      "name": "ERC20InvalidApprover",
      "type": "error"
    },
    {
      "inputs": [
        {
          "internalType": "address",
          "name": "receiver",
          "type": "address"
        }
      ],
      "name": "ERC20InvalidReceiver",
      "type": "error"
    },
    {
      "inputs": [
        {
          "internalType": "address",
          "name": "sender",
          "type": "address"
        }
      ],
      "name": "ERC20InvalidSender",
      "type": "error"
    },
    {
      "inputs": [
        {
          "internalType": "address",
          "name": "spender",
          "type": "address"
        }
      ],
      "name": "ERC20InvalidSpender",
      "type": "error"
    },
    {
      "inputs": [
        {
          "internalType": "address",
          "name": "owner",
          "type": "address"
        }
      ],
      "name": "OwnableInvalidOwner",
      "type": "error"
    },
    {
      "inputs": [
        {
          "internalType": "address",
          "name": "account",
          "type": "address"
        }
      ],
      "name": "OwnableUnauthorizedAccount",
      "type": "error"
    },
    {
      "anonymous": false,
      "inputs": [
        {
          "indexed": true,
          "internalType": "address",
          "name": "owner",
          "type": "address"
        },
        {
          "indexed": true,
          "internalType": "address",
          "name": "spender",
          "type": "address"
        },
        {
          "indexed": false,
          "internalType": "uint256",
          "name": "value",
          "type": "uint256"
        }
      ],
      "name": "Approval",
      "type": "event"
    },
    {
      "anonymous": false,
      "inputs": [
        {
          "indexed": true,
          "internalType": "address",
          "name": "user",
          "type": "address"
        },
        {
          "indexed": false,
          "internalType": "uint256",
          "name": "amount",
          "type": "uint256"
        }
      ],
      "name": "CollateralDeposited",
      "type": "event"
    },
    {
      "anonymous": false,
      "inputs": [
        {
          "indexed": true,
          "internalType": "address",
          "name": "user",
          "type": "address"
        },
        {
          "indexed": false,
          "internalType": "uint256",
          "name": "amount",
          "type": "uint256"
        },
        {
          "indexed": false,
          "internalType": "uint256",
          "name": "collateralAmount",
          "type": "uint256"
        }
      ],
      "name": "Mint",
      "type": "event"
    },
    {
      "anonymous": false,
      "inputs": [
        {
          "indexed": true,
          "internalType": "address",
          "name": "previousOwner",
          "type": "address"
        },
        {
          "indexed": true,
          "internalType": "address",
          "name": "newOwner",
          "type": "address"
        }
      ],
      "name": "OwnershipTransferred",
      "type": "event"
    },
    {
      "anonymous": false,
      "inputs": [
        {
          "indexed": true,
          "internalType": "address",
          "name": "user",
          "type": "address"
        },
        {
          "indexed": false,
          "internalType": "uint256",
          "name": "amount",
          "type": "uint256"
        },
        {
          "indexed": false,
          "internalType": "uint256",
          "name": "collateralAmount",
          "type": "uint256"
        }
      ],
      "name": "Redeem",
      "type": "event"
    },
    {
      "anonymous": false,
      "inputs": [
        {
          "indexed": true,
          "internalType": "address",
          "name": "from",
          "type": "address"
        },
        {
          "indexed": true,
          "internalType": "address",
          "name": "to",
          "type": "address"
        },
        {
          "indexed": false,
          "internalType": "uint256",
          "name": "value",
          "type": "uint256"
        }
      ],
      "name": "Transfer",
      "type": "event"
    },
    {
      "inputs": [],
      "name": "COLLATERAL_RATIO",
      "outputs": [
        {
          "internalType": "uint256",
          "name": "",
          "type": "uint256"
        }
      ],
      "stateMutability": "view",
      "type": "function"
    },
    {
      "inputs": [
        {
          "internalType": "address",
          "name": "owner",
          "type": "address"
        },
        {
          "internalType": "address",
          "name": "spender",
          "type": "address"
        }
      ],
      "name": "allowance",
      "outputs": [
        {
          "internalType": "uint256",
          "name": "",
          "type": "uint256"
        }
      ],
      "stateMutability": "view",
      "type": "function"
    },
    {
      "inputs": [
        {
          "internalType": "address",
          "name": "spender",
          "type": "address"
        },
        {
          "internalType": "uint256",
          "name": "value",
          "type": "uint256"
        }
      ],
      "name": "approve",
      "outputs": [
        {
          "internalType": "bool",
          "name": "",
          "type": "bool"
        }
      ],
      "stateMutability": "nonpayable",
      "type": "function"
    },
    {
      "inputs": [
        {
          "internalType": "address",
          "name": "account",
          "type": "address"
        }
      ],
      "name": "balanceOf",
      "outputs": [
        {
          "internalType": "uint256",
          "name": "",
          "type": "uint256"
        }
      ],
      "stateMutability": "view",
      "type": "function"
    },
    {
      "inputs": [
        {
          "internalType": "address",
          "name": "",
          "type": "address"
        }
      ],
      "name": "collateralDeposits",
      "outputs": [
        {
          "internalType": "uint256",
          "name": "",
          "type": "uint256"
        }
      ],
      "stateMutability": "view",
      "type": "function"
    },
    {
      "inputs": [],
      "name": "decimals",
      "outputs": [
        {
          "internalType": "uint8",
          "name": "",
          "type": "uint8"
        }
      ],
      "stateMutability": "view",
      "type": "function"
    },
    {
      "inputs": [
        {
          "internalType": "address",
          "name": "user",
          "type": "address"
        }
      ],
      "name": "getCollateralInfo",
      "outputs": [
        {
          "internalType": "uint256",
          "name": "depositedCollateral",
          "type": "uint256"
        },
        {
          "internalType": "uint256",
          "name": "collateralRatio",
          "type": "uint256"
        }
      ],
      "stateMutability": "view",
      "type": "function"
    },
    {
      "inputs": [
        {
          "internalType": "address",
          "name": "to",
          "type": "address"
        },
        {
          "internalType": "uint256",
          "name": "amount",
          "type": "uint256"
        }
      ],
      "name": "mint",
      "outputs": [],
      "stateMutability": "nonpayable",
      "type": "function"
    },
    {
      "inputs": [],
      "name": "mintWithCollateral",
      "outputs": [],
      "stateMutability": "payable",
      "type": "function"
    },
    {
      "inputs": [],
      "name": "name",
      "outputs": [
        {
          "internalType": "string",
          "name": "",
          "type": "string"
        }
      ],
      "stateMutability": "view",
      "type": "function"
    },
    {
      "inputs": [],
      "name": "owner",
      "outputs": [
        {
          "internalType": "address",
          "name": "",
          "type": "address"
        }
      ],
      "stateMutability": "view",
      "type": "function"
    },
    {
      "inputs": [
        {
          "internalType": "uint256",
          "name": "amount",
          "type": "uint256"
        }
      ],
      "name": "redeem",
      "outputs": [],
      "stateMutability": "nonpayable",
      "type": "function"
    },
    {
      "inputs": [],
      "name": "renounceOwnership",
      "outputs": [],
      "stateMutability": "nonpayable",
      "type": "function"
    },
    {
      "inputs": [],
      "name": "symbol",
      "outputs": [
        {
          "internalType": "string",
          "name": "",
          "type": "string"
        }
      ],
      "stateMutability": "view",
      "type": "function"
    },
    {
      "inputs": [],
      "name": "totalSupply",
      "outputs": [
        {
          "internalType": "uint256",
          "name": "",
          "type": "uint256"
        }
      ],
      "stateMutability": "view",
      "type": "function"
    },
    {
      "inputs": [
        {
          "internalType": "address",
          "name": "to",
          "type": "address"
        },
        {
          "internalType": "uint256",
          "name": "value",
          "type": "uint256"
        }
      ],
      "name": "transfer",
      "outputs": [
        {
          "internalType": "bool",
          "name": "",
          "type": "bool"
        }
      ],
      "stateMutability": "nonpayable",
      "type": "function"
    },
    {
      "inputs": [
        {
          "internalType": "address",
          "name": "from",
          "type": "address"
        },
        {
          "internalType": "address",
          "name": "to",
          "type": "address"
        },
        {
          "internalType": "uint256",
          "name": "value",
          "type": "uint256"
        }
      ],
      "name": "transferFrom",
      "outputs": [
        {
          "internalType": "bool",
          "name": "",
          "type": "bool"
        }
      ],
      "stateMutability": "nonpayable",
      "type": "function"
    },
    {
      "inputs": [
        {
          "internalType": "address",
          "name": "newOwner",
          "type": "address"
        }
      ],
      "name": "transferOwnership",
      "outputs": [],
      "stateMutability": "nonpayable",
      "type": "function"
    },
    {
      "stateMutability": "payable",
      "type": "receive"
    }
  ],
  "bytecode": "0x608060405234620000265762000014620001af565b6040516111dd6200082882396111dd90f35b600080fd5b634e487b7160e01b600052604160045260246000fd5b90601f01601f191681019081106001600160401b038211176200006357604052565b6200002b565b90620000806200007860405190565b928362000041565b565b6001600160401b0381116200006357602090601f01601f19160190565b90620000b5620000af8362000082565b62000069565b918252565b620000c6600c6200009f565b6b2aa9a2102334b632b1b7b4b760a11b602082015290565b620000e8620000ba565b90565b620000f760056200009f565b64555344464360d81b602082015290565b620000e8620000eb565b9060ff60a01b9060a01b5b9181191691161790565b62000137620000e8620000e89290565b60ff1690565b9062000151620000e8620001599262000127565b825462000112565b9055565b634e487b7160e01b600052601160045260246000fd5b60ff16604d81116200018557600a0a90565b6200015d565b620000e8620000e8620000e89290565b818102929181159184041417156200018557565b620001cf620001bd620000de565b620001c762000108565b90336200025c565b620001dd601260056200013d565b620000806200020d620001f9620001f3620004e2565b62000173565b62000207620186a06200018b565b6200019b565b33620004ee565b62000224620000e8620000e89290565b6001600160a01b031690565b620000e89062000214565b620002469062000224565b9052565b6020810192916200008091906200023b565b916200026891620004ae565b62000274600062000230565b6200027f8162000224565b6200028a8362000224565b146200029c57506200008090620005ba565b620002c290620002ab60405190565b631e4fbdf760e01b8152918291600483016200024a565b0390fd5b634e487b7160e01b600052602260045260246000fd5b9060016002830492168015620002ff575b6020831014620002f957565b620002c6565b91607f1691620002ed565b9160001960089290920291821b911b6200011d565b919062000334620000e862000159936200018b565b9083546200030a565b62000080916000916200031f565b81811062000357575050565b806200036760006001936200033d565b016200034b565b9190601f81116200037e57505050565b620003926200008093600052602060002090565b906020601f840181900483019310620003b6575b6020601f9091010401906200034b565b9091508190620003a6565b90620003cb815190565b906001600160401b0382116200006357620003f382620003ec8554620002dc565b856200036e565b602090601f831160011462000432576200015992916000918362000426575b5050600019600883021c1916906002021790565b01519050388062000412565b601f198316916200044885600052602060002090565b9260005b81811062000489575091600293918560019694106200046f575b50505002019055565b01516000196008601f8516021c1916905538808062000466565b919360206001819287870151815501950192016200044c565b906200008091620003c1565b90620004c062000080926003620004a2565b6004620004a2565b620000e89060a01c62000137565b620000e89054620004c8565b620000e86005620004d6565b9190620004fc600062000230565b92620005088462000224565b620005138262000224565b146200052557620000809293620006ae565b620002c2846200053460405190565b63ec442f0560e01b8152918291600483016200024a565b620000e89062000224565b620000e890546200054b565b906001600160a01b03906200011d565b620000e89062000224906001600160a01b031682565b620000e89062000572565b620000e89062000588565b90620005b2620000e8620001599262000593565b825462000562565b620005e8620005e1620005ce600562000556565b620005db8460056200059e565b62000593565b9162000593565b907f8be0079c531659141344cd1fd0a4f28419497f9722a3daafe3b4186f6b6457e06200061460405190565b80805b0390a3565b90620006289062000593565b600052602052604060002090565b620000e89081565b620000e8905462000636565b604090620006756200008094969593966200066e606084019860008501906200023b565b6020830152565b0152565b90600019906200011d565b9062000698620000e862000159926200018b565b825462000679565b919082018092116200018557565b816000620006bc8162000230565b620006c78162000224565b620006d28562000224565b036200079b5760008051602062001a0583398151915293620006179362000758936200072562000751946200071f620007178c6200071160026200063e565b620006a0565b600262000684565b62000224565b620007308362000224565b0362000770575050620005db62000717886200074d60026200063e565b0390565b9362000593565b936200076360405190565b9182918290815260200190565b620005db9162000780916200061c565b620007948962000790836200063e565b0190565b9062000684565b909150620007b4620007ae84846200061c565b6200063e565b858110620008005760008051602062001a05833981519152938562000617946200072562000758956200071f620007ee8c62000751980390565b620007fa87866200061c565b62000684565b83620002c2876200081060405190565b63391434e360e21b8152938493600485016200064a56fe60806040526004361015610023575b361561001957600080fd5b610021610901565b005b60003560e01c806306fdde0314610143578063095ea7b31461013e57806318160ddd1461013957806323b872dd14610134578063313ce5671461012f578063333522101461012a57806340c10f191461012557806370a0823114610120578063715018a61461011b5780638da5cb5b1461011657806395d89b41146101115780639ee671721461010c578063a9059cbb14610107578063d9e69a0514610102578063db006a75146100fd578063dd62ed3e146100f8578063edc7d04f146100f35763f2fde38b0361000e57610577565b61055c565b6104d5565b61049a565b61046b565b610430565b61041d565b610402565b6103cd565b6103b5565b61039a565b61037c565b61034e565b6102f4565b6102d8565b610283565b610255565b6101c7565b600091031261015357565b600080fd5b60005b83811061016b5750506000910152565b818101518382015260200161015b565b61019c6101a56020936101af93610190815190565b80835293849260200190565b95869101610158565b601f01601f191690565b0190565b60208082526101c49291019061017b565b90565b34610153576101d7366004610148565b6101ee6101e26106c4565b604051918291826101b3565b0390f35b6001600160a01b031690565b6001600160a01b0381165b0361015357565b9050359061021d826101fe565b565b80610209565b9050359061021d8261021f565b9190604083820312610153576101c490602061024e8286610210565b9401610225565b34610153576101ee61027161026b366004610232565b906106ce565b60405191829182901515815260200190565b3461015357610293366004610148565b6101ee61029e6106ef565b6040515b9182918290815260200190565b9091606082840312610153576101c46102c88484610210565b93604061024e8260208701610210565b34610153576101ee6102716102ee3660046102af565b916106f9565b3461015357610304366004610148565b6101ee61030f610726565b6040519182918260ff909116815260200190565b90602082820312610153576101c491610210565b90815260408101929161021d9160200152565b0152565b3461015357610366610361366004610323565b610783565b906101ee61037360405190565b92839283610337565b346101535761039561038f366004610232565b906107f1565b604051005b34610153576101ee61029e6103b0366004610323565b6107fb565b34610153576103c5366004610148565b61039561084a565b34610153576103dd366004610148565b6101ee6103e8610865565b604051918291826001600160a01b03909116815260200190565b3461015357610412366004610148565b6101ee6101e261086f565b610428366004610148565b610395610901565b34610153576101ee610271610446366004610232565b906109ec565b6101c46101c46101c49290565b6101c4606e61044c565b6101c4610459565b346101535761047b366004610148565b6101ee61029e610463565b90602082820312610153576101c491610225565b34610153576103956104ad366004610486565b610aa8565b9190604083820312610153576101c49060206104ce8286610210565b9401610210565b34610153576101ee61029e6104eb3660046104b2565b90610b8b565b6101f26101c46101c4926001600160a01b031690565b6101c4906104f1565b6101c490610507565b9061052390610510565b600052602052604060002090565b6101c4916008021c81565b906101c49154610531565b60006105576101c4926006610519565b61053c565b34610153576101ee61029e610572366004610323565b610547565b346101535761039561058a366004610323565b610c2e565b634e487b7160e01b600052602260045260246000fd5b90600160028304921680156105c5575b60208310146105c057565b61058f565b91607f16916105b5565b805460009392916105ec6105e2836105a5565b8085529360200190565b916001811690811561063e575060011461060557505050565b6106189192939450600052602060002090565b916000925b81841061062a5750500190565b80548484015260209093019260010161061d565b92949550505060ff1916825215156020020190565b906101c4916105cf565b634e487b7160e01b600052604160045260246000fd5b90601f01601f1916810190811067ffffffffffffffff82111761069557604052565b61065d565b9061021d6106b4926106ab60405190565b93848092610653565b0383610673565b6101c49061069a565b6101c460036106bb565b6106d9919033610c37565b600190565b6101c49081565b6101c490546106de565b6101c460026106e5565b6106d992919061070a833383610c6b565b610ce9565b6101c49060a01c60ff1690565b6101c4905461070f565b6101c4600561071c565b634e487b7160e01b600052601160045260246000fd5b8181029291811591840414171561075957565b610730565b634e487b7160e01b600052601260045260246000fd5b811561077e570490565b61075e565b90610797610792836006610519565b6106e5565b6107a181936107fb565b6107ab600061044c565b81036107bd5750506101c4600061044c565b6107d56101c4926107cf6101c661044c565b90610746565b610774565b9061021d916107e7610dc8565b9061021d91610e2f565b9061021d916107da565b6107926101c49161080a600090565b506000610519565b61081a610dc8565b61021d610838565b6101f26101c46101c49290565b6101c490610822565b61021d610845600061082f565b610e92565b61021d610812565b6101c4906101f2565b6101c49054610852565b6101c4600561085b565b6101c460046106bb565b1561088057565b60405162461bcd60e51b815260206004820152601b60248201527f4d7573742073656e642046494c20617320636f6c6c61746572616c00000000006044820152606490fd5b0390fd5b9190820180921161075957565b90600019905b9181191691161790565b906108f66101c46108fd9261044c565b82546108d6565b9055565b61091561090e600061044c565b3411610879565b6109b161093f61092f6109296101c661044c565b34610746565b610939606461044c565b90610774565b61096661094d336006610519565b610960610959826106e5565b34906108c9565b906108e6565b6109708133610e2f565b7f4c209b5fc8ad50758f13e2e1088ba56a560dff690a1c6fef26394f4c03821c4f61099a33610510565b9283926109a660405190565b918291349083610337565b0390a27fd7243f6f8212d5188fd054141cf6ea89cfc0d91facb8c3afe2f88a13584801426109de60405190565b34815280602081015b0390a2565b6106d9919033610ce9565b156109fe57565b60405162461bcd60e51b815260206004820152601a60248201527f496e73756666696369656e742055534446432062616c616e63650000000000006044820152606490fd5b15610a4a57565b60405162461bcd60e51b815260206004820152601760248201527f496e73756666696369656e7420636f6c6c61746572616c0000000000000000006044820152606490fd5b9190820391821161075957565b6040513d6000823e3d90fd5b610abc610ab4336107fb565b8211156109f7565b610add610ad2610acc606461044c565b83610746565b6109396101c661044c565b610af6610aee610792336006610519565b821115610a43565b610b16610b04336006610519565b61096083610b11836106e5565b610a8f565b610b208233610ee6565b600080808084610b37610b3233610510565b610510565b828215610b82575bf115610b7d577fe5b754fb1abb7f01b499791d0b820ae3b6af3424ac1c59768edb53f4ec31a92990610b7033610510565b926109e761037360405190565b610a9c565b506108fc610b3f565b6101c491610ba661079292610b9e600090565b506001610519565b610519565b61021d90610bb7610dc8565b610bc1600061082f565b6001600160a01b0381166001600160a01b03831614610be4575061021d90610e92565b6108c590610bf160405190565b9182917f1e4fbdf7000000000000000000000000000000000000000000000000000000008352600483016001600160a01b03909116815260200190565b61021d90610bab565b9160019161021d93610f24565b6001600160a01b03909116815260608101939261021d92909160409161034a906020830152565b91610c768284610b8b565b6000198110610c86575b50505050565b818110610cac5791610c9d610ca394926000940390565b91610f24565b38808080610c80565b826108c583610cba60405190565b9384937ffb8f41b200000000000000000000000000000000000000000000000000000000855260048501610c44565b929190610cf6600061082f565b936001600160a01b0385166001600160a01b03821614610d7e576001600160a01b0385166001600160a01b03831614610d345761021d939450611059565b6108c585610d4160405190565b9182917fec442f05000000000000000000000000000000000000000000000000000000008352600483016001600160a01b03909116815260200190565b6108c585610d8b60405190565b9182917f96c6fd1e000000000000000000000000000000000000000000000000000000008352600483016001600160a01b03909116815260200190565b610dd0610865565b339081906001600160a01b031603610de55750565b6108c590610df260405190565b9182917f118cdaa7000000000000000000000000000000000000000000000000000000008352600483016001600160a01b03909116815260200190565b9190610e3b600061082f565b926001600160a01b0384166001600160a01b03821614610e5f5761021d9293611059565b6108c584610d4160405190565b906001600160a01b03906108dc565b90610e8b6101c46108fd92610510565b8254610e6c565b610eb3610ead610ea2600561085b565b610b32846005610e7b565b91610510565b907f8be0079c531659141344cd1fd0a4f28419497f9722a3daafe3b4186f6b6457e0610ede60405190565b80805b0390a3565b9190610ef2600061082f565b926001600160a01b0384166001600160a01b03821614610f17579261021d9293611059565b6108c584610d8b60405190565b909192610f31600061082f565b6001600160a01b0381166001600160a01b0384161461100f576001600160a01b0381166001600160a01b03851614610fc55750610f7c84610f7785610ba6866001610519565b6108e6565b610f8557505050565b610ee1610fbb610fb57f8c5be1e5ebec7d5bd14f71427d1e84f3dd0314c0f7b2291e5b200ac8c7c3b92593610510565b93610510565b936102a260405190565b6108c590610fd260405190565b9182917f94280d62000000000000000000000000000000000000000000000000000000008352600483016001600160a01b03909116815260200190565b6108c59061101c60405190565b9182917fe602df05000000000000000000000000000000000000000000000000000000008352600483016001600160a01b03909116815260200190565b8160006110658161082f565b6001600160a01b0381166001600160a01b0385160361110c577fddf252ad1be2c89b69c2b068fc378daa952ba7f163c4a11628f55a4df523b3ef93610ee193610fbb936110cc610fb5946101f26110c58c6110c060026106e5565b6108c9565b60026108e6565b6001600160a01b038316036110f2575050610b326110c5886110ee60026106e5565b0390565b610b32916110ff91610519565b610960896101af836106e5565b90915061111c6107928484610519565b85811061116a577fddf252ad1be2c89b69c2b068fc378daa952ba7f163c4a11628f55a4df523b3ef9385610ee1946110cc610fbb956101f26111608c610fb5980390565b610f778786610519565b836108c58761117860405190565b9384937fe450d38c00000000000000000000000000000000000000000000000000000000855260048501610c4456fea2646970667358221220976adeafa8e304161edaceec085a13d66a8c6ca80a8b69e169d25cfa07d21fbe64736f6c63430008180033ddf252ad1be2c89b69c2b068fc378daa952ba7f163c4a11628f55a4df523b3ef",
  "linkReferences": {},
  "deployedLinkReferences": {}
}