{
  "contracts/VeriFlowMarketplace.sol": {
    "VeriFlowMarketplace": {
      "abi": [
        {
          "inputs": [
            {
              "internalType": "address",
              "name": "_usdfc",
              "type": "address"
            },
            {
              "internalType": "address",
              "name": "_treasury",
              "type": "address"
            },
            {
              "internalType": "uint256",
              "name": "_providerStakeAmount",
              "type": "uint256"
            }
          ],
          "stateMutability": "nonpayable",
          "type": "constructor"
        },
        {
          "inputs": [
            {
              "internalType": "address",
              "name": "owner",
              "type": "address"
            }
          ],
          "name": "OwnableInvalidOwner",
          "type": "error"
        },
        {
          "inputs": [
            {
              "internalType": "address",
              "name": "account",
              "type": "address"
            }
          ],
          "name": "OwnableUnauthorizedAccount",
          "type": "error"
        },
        {
          "inputs": [],
          "name": "ReentrancyGuardReentrantCall",
          "type": "error"
        },
        {
          "anonymous": false,
          "inputs": [
            {
              "indexed": true,
              "internalType": "uint256",
              "name": "datasetId",
              "type": "uint256"
            },
            {
              "indexed": true,
              "internalType": "address",
              "name": "provider",
              "type": "address"
            },
            {
              "indexed": false,
              "internalType": "uint256",
              "name": "pricePerBatch",
              "type": "uint256"
            }
          ],
          "name": "DatasetListed",
          "type": "event"
        },
        {
          "anonymous": false,
          "inputs": [
            {
              "indexed": true,
              "internalType": "uint256",
              "name": "purchaseId",
              "type": "uint256"
            },
            {
              "indexed": true,
              "internalType": "uint256",
              "name": "datasetId",
              "type": "uint256"
            },
            {
              "indexed": true,
              "internalType": "address",
              "name": "buyer",
              "type": "address"
            },
            {
              "indexed": false,
              "internalType": "uint256",
              "name": "amount",
              "type": "uint256"
            }
          ],
          "name": "DatasetPurchased",
          "type": "event"
        },
        {
          "anonymous": false,
          "inputs": [
            {
              "indexed": true,
              "internalType": "address",
              "name": "previousOwner",
              "type": "address"
            },
            {
              "indexed": true,
              "internalType": "address",
              "name": "newOwner",
              "type": "address"
            }
          ],
          "name": "OwnershipTransferred",
          "type": "event"
        },
        {
          "anonymous": false,
          "inputs": [
            {
              "indexed": true,
              "internalType": "address",
              "name": "provider",
              "type": "address"
            },
            {
              "indexed": false,
              "internalType": "uint256",
              "name": "amount",
              "type": "uint256"
            }
          ],
          "name": "ProviderStaked",
          "type": "event"
        },
        {
          "anonymous": false,
          "inputs": [
            {
              "indexed": true,
              "internalType": "address",
              "name": "provider",
              "type": "address"
            },
            {
              "indexed": false,
              "internalType": "uint256",
              "name": "amount",
              "type": "uint256"
            }
          ],
          "name": "ProviderUnstaked",
          "type": "event"
        },
        {
          "inputs": [],
          "name": "datasetCounter",
          "outputs": [
            {
              "internalType": "uint256",
              "name": "",
              "type": "uint256"
            }
          ],
          "stateMutability": "view",
          "type": "function"
        },
        {
          "inputs": [
            {
              "internalType": "uint256",
              "name": "",
              "type": "uint256"
            }
          ],
          "name": "datasets",
          "outputs": [
            {
              "internalType": "uint256",
              "name": "id",
              "type": "uint256"
            },
            {
              "internalType": "address",
              "name": "provider",
              "type": "address"
            },
            {
              "internalType": "string",
              "name": "metadataUri",
              "type": "string"
            },
            {
              "internalType": "uint256",
              "name": "pricePerBatch",
              "type": "uint256"
            },
            {
              "internalType": "uint64",
              "name": "filecoinDealId",
              "type": "uint64"
            },
            {
              "internalType": "bool",
              "name": "isActive",
              "type": "bool"
            },
            {
              "internalType": "uint256",
              "name": "totalSales",
              "type": "uint256"
            }
          ],
          "stateMutability": "view",
          "type": "function"
        },
        {
          "inputs": [
            {
              "internalType": "uint256",
              "name": "datasetId",
              "type": "uint256"
            }
          ],
          "name": "getDataset",
          "outputs": [
            {
              "components": [
                {
                  "internalType": "uint256",
                  "name": "id",
                  "type": "uint256"
                },
                {
                  "internalType": "address",
                  "name": "provider",
                  "type": "address"
                },
                {
                  "internalType": "string",
                  "name": "metadataUri",
                  "type": "string"
                },
                {
                  "internalType": "uint256",
                  "name": "pricePerBatch",
                  "type": "uint256"
                },
                {
                  "internalType": "uint64",
                  "name": "filecoinDealId",
                  "type": "uint64"
                },
                {
                  "internalType": "bool",
                  "name": "isActive",
                  "type": "bool"
                },
                {
                  "internalType": "uint256",
                  "name": "totalSales",
                  "type": "uint256"
                }
              ],
              "internalType": "struct VeriFlowMarketplace.Dataset",
              "name": "",
              "type": "tuple"
            }
          ],
          "stateMutability": "view",
          "type": "function"
        },
        {
          "inputs": [
            {
              "internalType": "uint256",
              "name": "purchaseId",
              "type": "uint256"
            }
          ],
          "name": "getPurchase",
          "outputs": [
            {
              "components": [
                {
                  "internalType": "uint256",
                  "name": "id",
                  "type": "uint256"
                },
                {
                  "internalType": "uint256",
                  "name": "datasetId",
                  "type": "uint256"
                },
                {
                  "internalType": "address",
                  "name": "buyer",
                  "type": "address"
                },
                {
                  "internalType": "uint256",
                  "name": "amount",
                  "type": "uint256"
                },
                {
                  "internalType": "uint256",
                  "name": "timestamp",
                  "type": "uint256"
                },
                {
                  "internalType": "bool",
                  "name": "isVerified",
                  "type": "bool"
                }
              ],
              "internalType": "struct VeriFlowMarketplace.Purchase",
              "name": "",
              "type": "tuple"
            }
          ],
          "stateMutability": "view",
          "type": "function"
        },
        {
          "inputs": [
            {
              "internalType": "uint256",
              "name": "datasetId",
              "type": "uint256"
            }
          ],
          "name": "isDatasetDealActive",
          "outputs": [
            {
              "internalType": "bool",
              "name": "isActive",
              "type": "bool"
            },
            {
              "internalType": "uint64",
              "name": "dealId",
              "type": "uint64"
            }
          ],
          "stateMutability": "view",
          "type": "function"
        },
        {
          "inputs": [
            {
              "internalType": "string",
              "name": "metadataUri",
              "type": "string"
            },
            {
              "internalType": "uint256",
              "name": "pricePerBatch",
              "type": "uint256"
            },
            {
              "internalType": "uint64",
              "name": "filecoinDealId",
              "type": "uint64"
            }
          ],
          "name": "listDataset",
          "outputs": [],
          "stateMutability": "nonpayable",
          "type": "function"
        },
        {
          "inputs": [],
          "name": "owner",
          "outputs": [
            {
              "internalType": "address",
              "name": "",
              "type": "address"
            }
          ],
          "stateMutability": "view",
          "type": "function"
        },
        {
          "inputs": [],
          "name": "platformFeeRate",
          "outputs": [
            {
              "internalType": "uint256",
              "name": "",
              "type": "uint256"
            }
          ],
          "stateMutability": "view",
          "type": "function"
        },
        {
          "inputs": [],
          "name": "providerStakeAmount",
          "outputs": [
            {
              "internalType": "uint256",
              "name": "",
              "type": "uint256"
            }
          ],
          "stateMutability": "view",
          "type": "function"
        },
        {
          "inputs": [
            {
              "internalType": "address",
              "name": "",
              "type": "address"
            }
          ],
          "name": "providerStakes",
          "outputs": [
            {
              "internalType": "uint256",
              "name": "",
              "type": "uint256"
            }
          ],
          "stateMutability": "view",
          "type": "function"
        },
        {
          "inputs": [],
          "name": "purchaseCounter",
          "outputs": [
            {
              "internalType": "uint256",
              "name": "",
              "type": "uint256"
            }
          ],
          "stateMutability": "view",
          "type": "function"
        },
        {
          "inputs": [
            {
              "internalType": "uint256",
              "name": "datasetId",
              "type": "uint256"
            },
            {
              "internalType": "uint256",
              "name": "batchCount",
              "type": "uint256"
            }
          ],
          "name": "purchaseData",
          "outputs": [],
          "stateMutability": "nonpayable",
          "type": "function"
        },
        {
          "inputs": [
            {
              "internalType": "uint256",
              "name": "",
              "type": "uint256"
            }
          ],
          "name": "purchases",
          "outputs": [
            {
              "internalType": "uint256",
              "name": "id",
              "type": "uint256"
            },
            {
              "internalType": "uint256",
              "name": "datasetId",
              "type": "uint256"
            },
            {
              "internalType": "address",
              "name": "buyer",
              "type": "address"
            },
            {
              "internalType": "uint256",
              "name": "amount",
              "type": "uint256"
            },
            {
              "internalType": "uint256",
              "name": "timestamp",
              "type": "uint256"
            },
            {
              "internalType": "bool",
              "name": "isVerified",
              "type": "bool"
            }
          ],
          "stateMutability": "view",
          "type": "function"
        },
        {
          "inputs": [],
          "name": "renounceOwnership",
          "outputs": [],
          "stateMutability": "nonpayable",
          "type": "function"
        },
        {
          "inputs": [
            {
              "internalType": "uint256",
              "name": "amount",
              "type": "uint256"
            }
          ],
          "name": "stakeAsProvider",
          "outputs": [],
          "stateMutability": "nonpayable",
          "type": "function"
        },
        {
          "inputs": [
            {
              "internalType": "address",
              "name": "newOwner",
              "type": "address"
            }
          ],
          "name": "transferOwnership",
          "outputs": [],
          "stateMutability": "nonpayable",
          "type": "function"
        },
        {
          "inputs": [],
          "name": "treasury",
          "outputs": [
            {
              "internalType": "address",
              "name": "",
              "type": "address"
            }
          ],
          "stateMutability": "view",
          "type": "function"
        },
        {
          "inputs": [
            {
              "internalType": "uint256",
              "name": "newFeeRate",
              "type": "uint256"
            }
          ],
          "name": "updatePlatformFeeRate",
          "outputs": [],
          "stateMutability": "nonpayable",
          "type": "function"
        },
        {
          "inputs": [
            {
              "internalType": "uint256",
              "name": "newStakeAmount",
              "type": "uint256"
            }
          ],
          "name": "updateProviderStakeAmount",
          "outputs": [],
          "stateMutability": "nonpayable",
          "type": "function"
        },
        {
          "inputs": [],
          "name": "usdfc",
          "outputs": [
            {
              "internalType": "contract IERC20",
              "name": "",
              "type": "address"
            }
          ],
          "stateMutability": "view",
          "type": "function"
        }
      ],
      "devdoc": {
        "details": "Minimized core version to avoid Yul stack depth issues",
        "errors": {
          "OwnableInvalidOwner(address)": [
            {
              "details": "The owner is not a valid owner account. (eg. `address(0)`)"
            }
          ],
          "OwnableUnauthorizedAccount(address)": [
            {
              "details": "The caller account is not authorized to perform an operation."
            }
          ],
          "ReentrancyGuardReentrantCall()": [
            {
              "details": "Unauthorized reentrant call."
            }
          ]
        },
        "kind": "dev",
        "methods": {
          "constructor": {
            "params": {
              "_providerStakeAmount": "Minimum provider stake amount",
              "_treasury": "Treasury address",
              "_usdfc": "USDFC token address"
            }
          },
          "getDataset(uint256)": {
            "params": {
              "datasetId": "Dataset ID"
            },
            "returns": {
              "_0": "Dataset information"
            }
          },
          "getPurchase(uint256)": {
            "params": {
              "purchaseId": "Purchase ID"
            },
            "returns": {
              "_0": "Purchase information"
            }
          },
          "isDatasetDealActive(uint256)": {
            "params": {
              "datasetId": "Dataset ID"
            },
            "returns": {
              "dealId": "The Filecoin deal ID (0 if no deal)",
              "isActive": "Whether the deal is active (basic check: deal ID exists)"
            }
          },
          "listDataset(string,uint256,uint64)": {
            "params": {
              "filecoinDealId": "Associated Filecoin deal ID (optional)",
              "metadataUri": "IPFS URI for dataset metadata",
              "pricePerBatch": "Price per training batch in USDFC"
            }
          },
          "owner()": {
            "details": "Returns the address of the current owner."
          },
          "purchaseData(uint256,uint256)": {
            "params": {
              "batchCount": "Number of batches to purchase",
              "datasetId": "Dataset to purchase"
            }
          },
          "renounceOwnership()": {
            "details": "Leaves the contract without owner. It will not be possible to call `onlyOwner` functions. Can only be called by the current owner. NOTE: Renouncing ownership will leave the contract without an owner, thereby disabling any functionality that is only available to the owner."
          },
          "stakeAsProvider(uint256)": {
            "params": {
              "amount": "Amount to stake"
            }
          },
          "transferOwnership(address)": {
            "details": "Transfers ownership of the contract to a new account (`newOwner`). Can only be called by the current owner."
          },
          "updatePlatformFeeRate(uint256)": {
            "params": {
              "newFeeRate": "New fee rate in basis points"
            }
          },
          "updateProviderStakeAmount(uint256)": {
            "params": {
              "newStakeAmount": "New minimum stake amount"
            }
          }
        },
        "title": "VeriFlowMarketplace",
        "version": 1
      },
      "evm": {
        "assembly": "    /* \"contracts/VeriFlowMarketplace.sol\":422:7873  contract VeriFlowMarketplace is Ownable, ReentrancyGuard {... */\n  mstore(0x40, 0xa0)\n  jumpi(tag_51, callvalue)\n  tag_53\n  tag_54\n  tag_15\n  jump\t// in\ntag_54:\n  swap2\n  tag_39\n  jump\t// in\ntag_53:\n  mload(0x40)\n  dataSize(sub_0)\n  dataOffset(sub_0)\n  dup3\n  codecopy\n  mload(0x80)\n  dup2\n  assignImmutable(\"0xeaeba2e6d5db55ec0e36d29579da585b3cbc07168dc9c1795186a4d126c8f86b\")\n  dataSize(sub_0)\n  swap1\n  return\ntag_51:\n  0x00\n  dup1\n  revert\ntag_4:\n  mstore(0x00, shl(0xe0, 0x4e487b71))\n  mstore(0x04, 0x41)\n  revert(0x00, 0x24)\ntag_5:\n  swap1\n  0x1f\n  add\n  not(0x1f)\n  and\n  dup2\n  add\n  swap1\n  dup2\n  lt\n  sub(shl(0x40, 0x01), 0x01)\n  dup3\n  gt\n  or\n  tag_57\n  jumpi\n  0x40\n  mstore\n  jump\t// out\ntag_57:\n  tag_4\n  jump\t// in\ntag_6:\n  swap1\n  tag_59\n  tag_60\n  mload(0x40)\n  swap1\n  jump\ntag_60:\n  swap3\n  dup4\n  tag_5\n  jump\t// in\ntag_59:\n  jump\t// out\ntag_8:\n  sub(shl(0xa0, 0x01), 0x01)\n  and\n  swap1\n  jump\t// out\ntag_61:\n  swap1\n  jump\t// out\ntag_9:\n  sub(shl(0xa0, 0x01), 0x01)\n  dup2\n  and\ntag_62:\n  sub\n  tag_51\n  jumpi\n  jump\t// out\ntag_10:\n  swap1\n  pop\n  mload\n  swap1\n  tag_59\n  dup3\n  tag_9\n  jump\t// in\ntag_12:\n  dup1\n  jump(tag_62)\ntag_13:\n  swap1\n  pop\n  mload\n  swap1\n  tag_59\n  dup3\n  tag_12\n  jump\t// in\ntag_14:\n  swap1\n  swap2\n  0x60\n  dup3\n  dup5\n  sub\n  slt\n  tag_51\n  jumpi\n  tag_61\n  tag_73\n  dup5\n  dup5\n  tag_10\n  jump\t// in\ntag_73:\n  swap4\n  0x40\n  tag_74\n  dup3\n  0x20\n  dup8\n  add\n  tag_10\n  jump\t// in\ntag_74:\n  swap5\n  add\n  tag_13\n  jump\t// in\ntag_15:\n  tag_75\n  bytecodeSize\n  dup1\n  codesize\n  sub\n  dup1\n  tag_76\n  dup2\n  tag_6\n  jump\t// in\ntag_76:\n  swap3\n  dup4\n  codecopy\n  dup2\n  add\n  swap1\n  tag_14\n  jump\t// in\ntag_75:\n  swap1\n  swap2\n  swap3\n  jump\t// out\ntag_17:\n  swap1\n  not(0x00)\n  swap1\ntag_77:\n  swap2\n  dup2\n  not\n  and\n  swap2\n  and\n  or\n  swap1\n  jump\t// out\ntag_18:\n  tag_61\n  tag_61\n  tag_61\n  swap3\n  swap1\n  jump\ntag_19:\n  swap1\n  tag_81\n  tag_61\n  tag_83\n  swap3\n  tag_18\n  jump\t// in\ntag_81:\n  dup3\n  sload\n  tag_17\n  jump\t// in\ntag_83:\n  swap1\n  sstore\n  jump\t// out\ntag_20:\n  tag_8\n  tag_61\n  tag_61\n  swap3\n  swap1\n  jump\ntag_21:\n  tag_61\n  swap1\n  tag_20\n  jump\t// in\ntag_26:\n  iszero\n  tag_91\n  jumpi\n  jump\t// out\ntag_91:\n  mload(0x40)\n  shl(0xe5, 0x461bcd)\n  dup2\n  mstore\n  0x20\n  0x04\n  dup3\n  add\n  mstore\n  0x15\n  0x24\n  dup3\n  add\n  mstore\n  0x496e76616c696420555344464320616464726573730000000000000000000000\n  0x44\n  dup3\n  add\n  mstore\n  0x64\n  swap1\n  revert\ntag_94:\n  sub\n  swap1\n  revert\ntag_30:\n  iszero\n  tag_98\n  jumpi\n  jump\t// out\ntag_98:\n  mload(0x40)\n  shl(0xe5, 0x461bcd)\n  dup2\n  mstore\n  0x20\n  0x04\n  dup3\n  add\n  mstore\n  0x18\n  0x24\n  dup3\n  add\n  mstore\n  0x496e76616c696420747265617375727920616464726573730000000000000000\n  0x44\n  dup3\n  add\n  mstore\n  0x64\n  swap1\n  revert\ntag_31:\n  tag_61\n  swap1\n  tag_8\n  swap1\n  sub(shl(0xa0, 0x01), 0x01)\n  and\n  dup3\n  jump\ntag_32:\n  tag_61\n  swap1\n  tag_31\n  jump\t// in\ntag_33:\n  tag_61\n  swap1\n  tag_32\n  jump\t// in\ntag_34:\n  swap1\n  sub(shl(0xa0, 0x01), 0x01)\n  swap1\n  jump(tag_77)\ntag_36:\n  swap1\n  tag_109\n  tag_61\n  tag_83\n  swap3\n  tag_33\n  jump\t// in\ntag_109:\n  dup3\n  sload\n  tag_34\n  jump\t// in\n    /* \"contracts/VeriFlowMarketplace.sol\":2452:2843  constructor(... */\ntag_39:\n    /* \"contracts/VeriFlowMarketplace.sol\":2794:2836  providerStakeAmount = _providerStakeAmount */\n  tag_59\n    /* \"contracts/VeriFlowMarketplace.sol\":2452:2843  constructor(... */\n  swap3\n  swap2\n    /* \"contracts/VeriFlowMarketplace.sol\":2740:2754  IERC20(_usdfc) */\n  tag_119\n    /* \"contracts/VeriFlowMarketplace.sol\":2764:2784  treasury = _treasury */\n  tag_120\n    /* \"contracts/VeriFlowMarketplace.sol\":2452:2843  constructor(... */\n  swap3\n  tag_121\n    /* \"contracts/VeriFlowMarketplace.sol\":2567:2577  msg.sender */\n  caller\n    /* \"contracts/VeriFlowMarketplace.sol\":2452:2843  constructor(... */\n  tag_42\n  jump\t// in\ntag_121:\n    /* \"contracts/VeriFlowMarketplace.sol\":1788:1791  250 */\n  tag_122\n  0xfa\n  0x09\n  tag_19\n  jump\t// in\ntag_122:\n    /* \"contracts/VeriFlowMarketplace.sol\":2653:2713  require(_treasury != address(0), \"Invalid treasury address\") */\n  tag_123\n    /* \"contracts/VeriFlowMarketplace.sol\":2661:2684  _treasury != address(0) */\n  tag_124\n    /* \"contracts/VeriFlowMarketplace.sol\":2607:2617  address(0) */\n  tag_125\n    /* \"contracts/VeriFlowMarketplace.sol\":2615:2616  0 */\n  0x00\n    /* \"contracts/VeriFlowMarketplace.sol\":2607:2617  address(0) */\n  tag_21\n  jump\t// in\ntag_125:\n    /* \"contracts/VeriFlowMarketplace.sol\":2589:2643  require(_usdfc != address(0), \"Invalid USDFC address\") */\n  tag_8\n  sub(shl(0xa0, 0x01), 0x01)\n    /* \"contracts/VeriFlowMarketplace.sol\":422:7873  contract VeriFlowMarketplace is Ownable, ReentrancyGuard {... */\n  dup3\n  and\n  sub(shl(0xa0, 0x01), 0x01)\n  dup7\n  and\n    /* \"contracts/VeriFlowMarketplace.sol\":2597:2617  _usdfc != address(0) */\n  eq\n  iszero\n    /* \"contracts/VeriFlowMarketplace.sol\":2589:2643  require(_usdfc != address(0), \"Invalid USDFC address\") */\n  tag_26\n  jump\t// in\n    /* \"contracts/VeriFlowMarketplace.sol\":2661:2684  _treasury != address(0) */\ntag_124:\n  sub(shl(0xa0, 0x01), 0x01)\n    /* \"contracts/VeriFlowMarketplace.sol\":422:7873  contract VeriFlowMarketplace is Ownable, ReentrancyGuard {... */\n  dup6\n  and\n    /* \"contracts/VeriFlowMarketplace.sol\":2661:2684  _treasury != address(0) */\n  eq\n  iszero\n    /* \"contracts/VeriFlowMarketplace.sol\":2653:2713  require(_treasury != address(0), \"Invalid treasury address\") */\n  tag_30\n  jump\t// in\ntag_123:\n    /* \"contracts/VeriFlowMarketplace.sol\":2740:2754  IERC20(_usdfc) */\n  tag_33\n  jump\t// in\ntag_119:\n    /* \"contracts/VeriFlowMarketplace.sol\":2732:2754  usdfc = IERC20(_usdfc) */\n  0x80\n  mstore\n    /* \"contracts/VeriFlowMarketplace.sol\":2764:2784  treasury = _treasury */\n  0x02\n  tag_36\n  jump\t// in\ntag_120:\n    /* \"contracts/VeriFlowMarketplace.sol\":2794:2836  providerStakeAmount = _providerStakeAmount */\n  0x03\n  tag_19\n  jump\t// in\n    /* \"@openzeppelin/contracts/utils/ReentrancyGuard.sol\":1674:1714  uint256 private constant NOT_ENTERED = 1 */\ntag_41:\n    /* \"@openzeppelin/contracts/utils/ReentrancyGuard.sol\":1713:1714  1 */\n  tag_61\n  0x01\n  tag_18\n  jump\t// in\n    /* \"@openzeppelin/contracts/utils/ReentrancyGuard.sol\":1893:1945  constructor() {... */\ntag_42:\n  tag_134\n  swap1\n  tag_45\n  jump\t// in\ntag_134:\n    /* \"@openzeppelin/contracts/utils/ReentrancyGuard.sol\":1917:1938  _status = NOT_ENTERED */\n  tag_59\n    /* \"@openzeppelin/contracts/utils/ReentrancyGuard.sol\":1927:1938  NOT_ENTERED */\n  tag_136\n  tag_41\n  jump\t// in\ntag_136:\n    /* \"@openzeppelin/contracts/utils/ReentrancyGuard.sol\":1917:1938  _status = NOT_ENTERED */\n  0x01\n  tag_19\n  jump\t// in\n    /* \"@openzeppelin/contracts/access/Ownable.sol\":1225:1412  constructor(address initialOwner) {... */\ntag_45:\n    /* \"@openzeppelin/contracts/access/Ownable.sol\":1289:1299  address(0) */\n  tag_139\n    /* \"@openzeppelin/contracts/access/Ownable.sol\":1297:1298  0 */\n  0x00\n    /* \"@openzeppelin/contracts/access/Ownable.sol\":1289:1299  address(0) */\n  tag_21\n  jump\t// in\ntag_139:\n  sub(shl(0xa0, 0x01), 0x01)\n    /* \"contracts/VeriFlowMarketplace.sol\":422:7873  contract VeriFlowMarketplace is Ownable, ReentrancyGuard {... */\n  dup2\n  and\n  sub(shl(0xa0, 0x01), 0x01)\n  dup4\n  and\n    /* \"@openzeppelin/contracts/access/Ownable.sol\":1273:1299  initialOwner == address(0) */\n  eq\n    /* \"@openzeppelin/contracts/access/Ownable.sol\":1269:1364  if (initialOwner == address(0)) {... */\n  tag_142\n  jumpi\n    /* \"@openzeppelin/contracts/access/Ownable.sol\":1392:1404  initialOwner */\n  pop\n  tag_59\n  swap1\n  tag_50\n  jump\t// in\n    /* \"@openzeppelin/contracts/access/Ownable.sol\":1269:1364  if (initialOwner == address(0)) {... */\ntag_142:\n    /* \"@openzeppelin/contracts/access/Ownable.sol\":1322:1353  OwnableInvalidOwner(address(0)) */\n  tag_94\n  swap1\n  tag_146\n    /* \"contracts/VeriFlowMarketplace.sol\":422:7873  contract VeriFlowMarketplace is Ownable, ReentrancyGuard {... */\n  mload(0x40)\n  swap1\n  jump\n    /* \"@openzeppelin/contracts/access/Ownable.sol\":1322:1353  OwnableInvalidOwner(address(0)) */\ntag_146:\n  shl(0xe0, 0x1e4fbdf7)\n  dup2\n  mstore\n  swap2\n  dup3\n  swap2\n  0x04\n  dup4\n  add\n  sub(shl(0xa0, 0x01), 0x01)\n    /* \"contracts/VeriFlowMarketplace.sol\":422:7873  contract VeriFlowMarketplace is Ownable, ReentrancyGuard {... */\n  swap1\n  swap2\n  and\n  dup2\n  mstore\n  0x20\n  add\n  swap1\n  jump\ntag_47:\n  tag_61\n  swap1\n  jump(tag_8)\ntag_48:\n  tag_61\n  swap1\n  sload\n  tag_47\n  jump\t// in\n    /* \"@openzeppelin/contracts/access/Ownable.sol\":2912:3099  function _transferOwnership(address newOwner) internal virtual {... */\ntag_50:\n    /* \"@openzeppelin/contracts/access/Ownable.sol\":3052:3092  OwnershipTransferred(oldOwner, newOwner) */\n  tag_150\n  tag_151\n    /* \"@openzeppelin/contracts/access/Ownable.sol\":3004:3010  _owner */\n  tag_152\n  0x00\n  tag_48\n  jump\t// in\ntag_152:\n    /* \"@openzeppelin/contracts/access/Ownable.sol\":3020:3037  _owner = newOwner */\n  tag_123\n  dup5\n  0x00\n  tag_36\n  jump\t// in\n    /* \"@openzeppelin/contracts/access/Ownable.sol\":3052:3092  OwnershipTransferred(oldOwner, newOwner) */\ntag_151:\n  swap2\n  tag_33\n  jump\t// in\ntag_150:\n  swap1\n  0x8be0079c531659141344cd1fd0a4f28419497f9722a3daafe3b4186f6b6457e0\n  tag_154\n    /* \"contracts/VeriFlowMarketplace.sol\":422:7873  contract VeriFlowMarketplace is Ownable, ReentrancyGuard {... */\n  mload(0x40)\n  swap1\n  jump\n    /* \"@openzeppelin/contracts/access/Ownable.sol\":3052:3092  OwnershipTransferred(oldOwner, newOwner) */\ntag_154:\n  0x00\n  swap1\n  log3\n    /* \"@openzeppelin/contracts/access/Ownable.sol\":2912:3099  function _transferOwnership(address newOwner) internal virtual {... */\n  jump\t// out\nstop\n\nsub_0: assembly {\n        /* \"contracts/VeriFlowMarketplace.sol\":422:7873  contract VeriFlowMarketplace is Ownable, ReentrancyGuard {... */\n      mstore(0x40, 0x80)\n      jumpi(tag_253, iszero(lt(calldatasize, 0x04)))\n      0x00\n      dup1\n      revert\n    tag_253:\n      shr(0xe0, calldataload(0x00))\n      dup1\n      0x055680f0\n      eq\n      tag_256\n      jumpi\n      dup1\n      0x0d6b4c9f\n      eq\n      tag_258\n      jumpi\n      dup1\n      0x1006e4cb\n      eq\n      tag_260\n      jumpi\n      dup1\n      0x1cff85e1\n      eq\n      tag_262\n      jumpi\n      dup1\n      0x34f91099\n      eq\n      tag_264\n      jumpi\n      dup1\n      0x3742a9f7\n      eq\n      tag_266\n      jumpi\n      dup1\n      0x61d027b3\n      eq\n      tag_268\n      jumpi\n      dup1\n      0x6854d20f\n      eq\n      tag_270\n      jumpi\n      dup1\n      0x715018a6\n      eq\n      tag_272\n      jumpi\n      dup1\n      0x8392fe31\n      eq\n      tag_274\n      jumpi\n      dup1\n      0x8da5cb5b\n      eq\n      tag_276\n      jumpi\n      dup1\n      0xae3b7f06\n      eq\n      tag_278\n      jumpi\n      dup1\n      0xb33b4924\n      eq\n      tag_280\n      jumpi\n      dup1\n      0xb5126a63\n      eq\n      tag_282\n      jumpi\n      dup1\n      0xb56a1e7d\n      eq\n      tag_284\n      jumpi\n      dup1\n      0xc34f2940\n      eq\n      tag_286\n      jumpi\n      dup1\n      0xee004221\n      eq\n      tag_288\n      jumpi\n      dup1\n      0xeeca08f0\n      eq\n      tag_290\n      jumpi\n      dup1\n      0xf09ce8f3\n      eq\n      tag_292\n      jumpi\n      0xf2fde38b\n      sub\n      tag_3\n      jumpi\n      tag_103\n      jump\t// in\n    tag_292:\n      tag_102\n      jump\t// in\n    tag_290:\n      tag_100\n      jump\t// in\n    tag_288:\n      tag_98\n      jump\t// in\n    tag_286:\n      tag_94\n      jump\t// in\n    tag_284:\n      tag_92\n      jump\t// in\n    tag_282:\n      tag_91\n      jump\t// in\n    tag_280:\n      tag_89\n      jump\t// in\n    tag_278:\n      tag_88\n      jump\t// in\n    tag_276:\n      tag_87\n      jump\t// in\n    tag_274:\n      tag_86\n      jump\t// in\n    tag_272:\n      tag_81\n      jump\t// in\n    tag_270:\n      tag_80\n      jump\t// in\n    tag_268:\n      tag_78\n      jump\t// in\n    tag_266:\n      tag_73\n      jump\t// in\n    tag_264:\n      tag_70\n      jump\t// in\n    tag_262:\n      tag_64\n      jump\t// in\n    tag_260:\n      tag_27\n      jump\t// in\n    tag_258:\n      tag_23\n      jump\t// in\n    tag_256:\n      tag_12\n      jump\t// in\n    tag_3:\n      0x00\n      dup1\n      revert\n    tag_4:\n      0x00\n      swap2\n      sub\n      slt\n      tag_3\n      jumpi\n      jump\t// out\n    tag_7:\n      tag_298\n      swap2\n      0x08\n      mul\n      shr\n      dup2\n      jump\n    tag_298:\n      swap1\n      jump\n    tag_8:\n      swap1\n      tag_298\n      swap2\n      sload\n      tag_7\n      jump\t// in\n        /* \"contracts/VeriFlowMarketplace.sol\":1655:1685  uint256 public purchaseCounter */\n    tag_9:\n      tag_298\n      0x00\n      0x08\n      tag_8\n      jump\t// in\n        /* \"contracts/VeriFlowMarketplace.sol\":422:7873  contract VeriFlowMarketplace is Ownable, ReentrancyGuard {... */\n    tag_10:\n      swap1\n      mstore\n      jump\t// out\n    tag_303:\n      jump\t// out\n    tag_12:\n      jumpi(tag_3, callvalue)\n      tag_306\n      calldatasize\n      0x04\n      tag_4\n      jump\t// in\n    tag_306:\n      tag_307\n      tag_308\n      tag_9\n      jump\t// in\n    tag_308:\n      mload(0x40)\n    tag_309:\n      swap2\n      dup3\n      swap2\n      dup3\n      swap1\n      dup2\n      mstore\n      0x20\n      add\n      swap1\n      jump\n    tag_307:\n      sub\n      swap1\n      return\n    tag_14:\n      0xffffffffffffffffffffffffffffffffffffffff\n      and\n      swap1\n      jump\n    tag_15:\n      tag_311\n      dup2\n      tag_14\n      jump\t// in\n    tag_311:\n      sub\n      tag_3\n      jumpi\n      jump\t// out\n    tag_16:\n      swap1\n      pop\n      calldataload\n      swap1\n      tag_303\n      dup3\n      tag_15\n      jump\t// in\n    tag_17:\n      swap1\n      0x20\n      dup3\n      dup3\n      sub\n      slt\n      tag_3\n      jumpi\n      tag_298\n      swap2\n      tag_16\n      jump\t// in\n    tag_18:\n      tag_14\n      tag_298\n      tag_298\n      swap3\n      0xffffffffffffffffffffffffffffffffffffffff\n      and\n      swap1\n      jump\n    tag_19:\n      tag_298\n      swap1\n      tag_18\n      jump\t// in\n    tag_20:\n      tag_298\n      swap1\n      tag_19\n      jump\t// in\n    tag_21:\n      swap1\n      tag_323\n      swap1\n      tag_20\n      jump\t// in\n    tag_323:\n      0x00\n      mstore\n      0x20\n      mstore\n      keccak256(0x00, 0x40)\n      swap1\n      jump\t// out\n        /* \"contracts/VeriFlowMarketplace.sol\":1562:1611  mapping(address => uint256) public providerStakes */\n    tag_22:\n      0x00\n      tag_324\n      tag_298\n      swap3\n      0x07\n      tag_21\n      jump\t// in\n    tag_324:\n      tag_8\n      jump\t// in\n        /* \"contracts/VeriFlowMarketplace.sol\":422:7873  contract VeriFlowMarketplace is Ownable, ReentrancyGuard {... */\n    tag_23:\n      jumpi(tag_3, callvalue)\n      tag_307\n      tag_308\n      tag_330\n      calldatasize\n      0x04\n      tag_17\n      jump\t// in\n    tag_330:\n      tag_22\n      jump\t// in\n    tag_25:\n      tag_10\n      swap1\n      tag_20\n      jump\t// in\n    tag_26:\n      0x20\n      dup2\n      add\n      swap3\n      swap2\n      tag_303\n      swap2\n      swap1\n      tag_25\n      jump\t// in\n    tag_27:\n      jumpi(tag_3, callvalue)\n      tag_336\n      calldatasize\n      0x04\n      tag_4\n      jump\t// in\n    tag_336:\n      mload(0x40)\n      dup1\n      tag_307\n        /* \"contracts/VeriFlowMarketplace.sol\":540:569  IERC20 public immutable usdfc */\n      immutable(\"0xeaeba2e6d5db55ec0e36d29579da585b3cbc07168dc9c1795186a4d126c8f86b\")\n        /* \"contracts/VeriFlowMarketplace.sol\":422:7873  contract VeriFlowMarketplace is Ownable, ReentrancyGuard {... */\n      dup3\n      tag_26\n      jump\t// in\n    tag_28:\n      dup1\n      jump(tag_311)\n    tag_29:\n      swap1\n      pop\n      calldataload\n      swap1\n      tag_303\n      dup3\n      tag_28\n      jump\t// in\n    tag_30:\n      swap1\n      0x20\n      dup3\n      dup3\n      sub\n      slt\n      tag_3\n      jumpi\n      tag_298\n      swap2\n      tag_29\n      jump\t// in\n    tag_31:\n      tag_298\n      tag_298\n      tag_298\n      swap3\n      swap1\n      jump\n    tag_32:\n      swap1\n      tag_323\n      swap1\n      tag_31\n      jump\t// in\n    tag_34:\n      tag_298\n      swap1\n      dup2\n      jump\n    tag_35:\n      tag_298\n      swap1\n      sload\n      tag_34\n      jump\t// in\n    tag_36:\n      tag_298\n      swap1\n      jump(tag_14)\n    tag_37:\n      tag_298\n      swap1\n      sload\n      tag_36\n      jump\t// in\n    tag_38:\n      mstore(0x00, shl(0xe0, 0x4e487b71))\n      mstore(0x04, 0x22)\n      revert(0x00, 0x24)\n    tag_39:\n      swap1\n      0x01\n      0x02\n      dup4\n      div\n      swap3\n      and\n      dup1\n      iszero\n      tag_357\n      jumpi\n    tag_358:\n      0x20\n      dup4\n      lt\n      eq\n      tag_359\n      jumpi\n      jump\t// out\n    tag_359:\n      tag_38\n      jump\t// in\n    tag_357:\n      swap2\n      0x7f\n      and\n      swap2\n      jump(tag_358)\n    tag_42:\n      dup1\n      sload\n      0x00\n      swap4\n      swap3\n      swap2\n      tag_361\n      tag_362\n      dup4\n      tag_39\n      jump\t// in\n    tag_362:\n      dup1\n      dup6\n      mstore\n      swap4\n      0x20\n      add\n      swap1\n      jump\n    tag_361:\n      swap2\n      0x01\n      dup2\n      and\n      swap1\n      dup2\n      iszero\n      tag_363\n      jumpi\n      pop\n      0x01\n      eq\n      tag_365\n      jumpi\n      pop\n      pop\n      pop\n      jump\t// out\n    tag_365:\n      tag_367\n      swap2\n      swap3\n      swap4\n      swap5\n      pop\n      0x00\n      mstore\n      keccak256(0x00, 0x20)\n      swap1\n      jump\n    tag_367:\n      swap2\n      0x00\n      swap3\n    tag_368:\n      dup2\n      dup5\n      lt\n      tag_369\n      jumpi\n      pop\n      pop\n      add\n      swap1\n      jump\t// out\n    tag_369:\n      dup1\n      sload\n      dup5\n      dup5\n      add\n      mstore\n      0x20\n      swap1\n      swap4\n      add\n      swap3\n      0x01\n      add\n      jump(tag_368)\n    tag_363:\n      swap3\n      swap5\n      swap6\n      pop\n      pop\n      pop\n      not(0xff)\n      and\n      dup3\n      mstore\n      iszero\n      iszero\n      0x20\n      mul\n      add\n      swap1\n      jump\t// out\n    tag_43:\n      swap1\n      tag_298\n      swap2\n      tag_42\n      jump\t// in\n    tag_45:\n      mstore(0x00, shl(0xe0, 0x4e487b71))\n      mstore(0x04, 0x41)\n      revert(0x00, 0x24)\n    tag_46:\n      swap1\n      0x1f\n      add\n      not(0x1f)\n      and\n      dup2\n      add\n      swap1\n      dup2\n      lt\n      0xffffffffffffffff\n      dup3\n      gt\n      or\n      tag_373\n      jumpi\n      0x40\n      mstore\n      jump\t// out\n    tag_373:\n      tag_45\n      jump\t// in\n    tag_47:\n      swap1\n      tag_303\n      tag_376\n      swap3\n      tag_377\n      mload(0x40)\n      swap1\n      jump\n    tag_377:\n      swap4\n      dup5\n      dup1\n      swap3\n      tag_43\n      jump\t// in\n    tag_376:\n      sub\n      dup4\n      tag_46\n      jump\t// in\n    tag_49:\n      tag_298\n      swap1\n    tag_378:\n      0xffffffffffffffff\n      and\n      swap1\n      jump\n    tag_50:\n      tag_298\n      swap1\n      sload\n      tag_49\n      jump\t// in\n    tag_53:\n      tag_298\n      swap1\n      0x40\n      shr\n    tag_381:\n      0xff\n      and\n      swap1\n      jump\n    tag_54:\n      tag_298\n      swap1\n      sload\n      tag_53\n      jump\t// in\n        /* \"contracts/VeriFlowMarketplace.sol\":1362:1405  mapping(uint256 => Dataset) public datasets */\n    tag_55:\n      tag_384\n      swap1\n      0x05\n      tag_32\n      jump\t// in\n    tag_384:\n      tag_385\n      dup2\n      tag_35\n      jump\t// in\n    tag_385:\n      swap2\n      tag_386\n      0x01\n      dup4\n      add\n      tag_37\n      jump\t// in\n    tag_386:\n      swap2\n      tag_387\n      0x02\n      dup3\n      add\n      tag_47\n      jump\t// in\n    tag_387:\n      swap2\n      tag_388\n      0x03\n      dup4\n      add\n      tag_35\n      jump\t// in\n    tag_388:\n      swap2\n      tag_389\n      0x04\n      dup3\n      add\n      tag_50\n      jump\t// in\n    tag_389:\n      swap2\n      tag_298\n      0x05\n      tag_391\n      0x04\n      dup6\n      add\n      tag_54\n      jump\t// in\n    tag_391:\n      swap4\n      add\n      tag_35\n      jump\t// in\n        /* \"contracts/VeriFlowMarketplace.sol\":422:7873  contract VeriFlowMarketplace is Ownable, ReentrancyGuard {... */\n    tag_56:\n      tag_10\n      swap1\n      tag_14\n      jump\t// in\n    tag_58:\n      0x00\n    tag_393:\n      dup4\n      dup2\n      lt\n      tag_394\n      jumpi\n      pop\n      pop\n      0x00\n      swap2\n      add\n      mstore\n      jump\t// out\n    tag_394:\n      dup2\n      dup2\n      add\n      mload\n      dup4\n      dup3\n      add\n      mstore\n      0x20\n      add\n      jump(tag_393)\n    tag_59:\n      tag_396\n      tag_397\n      0x20\n      swap4\n      tag_398\n      swap4\n      tag_399\n      dup2\n      mload\n      swap1\n      jump\n    tag_399:\n      dup1\n      dup4\n      mstore\n      swap4\n      dup5\n      swap3\n      0x20\n      add\n      swap1\n      jump\n    tag_396:\n      swap6\n      dup7\n      swap2\n      add\n      tag_58\n      jump\t// in\n    tag_397:\n      0x1f\n      add\n      not(0x1f)\n      and\n      swap1\n      jump\n    tag_398:\n      add\n      swap1\n      jump\t// out\n    tag_63:\n      swap3\n      0xc0\n      swap5\n      swap9\n      swap8\n      swap6\n      tag_402\n      tag_403\n      tag_303\n      swap10\n      swap5\n      tag_405\n      swap5\n      tag_406\n      tag_407\n      swap9\n      tag_408\n      0xe0\n      dup13\n      add\n      swap5\n      0x00\n      dup14\n      add\n      mstore\n      jump\n    tag_408:\n      0x20\n      dup12\n      add\n      swap1\n      tag_56\n      jump\t// in\n    tag_406:\n      dup9\n      dup3\n      sub\n      0x40\n      dup11\n      add\n      mstore\n      tag_59\n      jump\t// in\n    tag_403:\n      swap11\n      0x60\n      dup8\n      add\n      mstore\n      jump\n    tag_402:\n      0xffffffffffffffff\n      and\n      0x80\n      dup6\n      add\n      mstore\n      jump\n    tag_405:\n      iszero\n      iszero\n      0xa0\n      dup4\n      add\n      mstore\n      jump\n    tag_407:\n      add\n      mstore\n      jump\n    tag_64:\n      jumpi(tag_3, callvalue)\n      tag_307\n      tag_412\n      tag_413\n      calldatasize\n      0x04\n      tag_30\n      jump\t// in\n    tag_413:\n      tag_55\n      jump\t// in\n    tag_412:\n      swap4\n      tag_414\n      swap8\n      swap6\n      swap8\n      swap4\n      swap2\n      swap4\n      mload(0x40)\n      swap1\n      jump\n    tag_414:\n      swap8\n      dup9\n      swap8\n      dup9\n      tag_63\n      jump\t// in\n    tag_65:\n      swap1\n      swap2\n      dup3\n      0x1f\n      dup4\n      add\n      slt\n      iszero\n      tag_3\n      jumpi\n      dup2\n      calldataload\n      swap2\n      0xffffffffffffffff\n      dup4\n      gt\n      tag_3\n      jumpi\n      0x20\n      add\n      swap3\n      0x01\n      dup4\n      mul\n      dup5\n      add\n      gt\n      tag_3\n      jumpi\n      jump\t// out\n    tag_66:\n      0xffffffffffffffff\n      dup2\n      and\n      jump(tag_311)\n    tag_67:\n      swap1\n      pop\n      calldataload\n      swap1\n      tag_303\n      dup3\n      tag_66\n      jump\t// in\n    tag_68:\n      swap2\n      swap1\n      swap2\n      0x60\n      dup2\n      dup5\n      sub\n      slt\n      tag_3\n      jumpi\n      dup1\n      calldataload\n      swap2\n      0xffffffffffffffff\n      dup4\n      gt\n      tag_3\n      jumpi\n      tag_429\n      dup5\n      tag_298\n      swap5\n      dup5\n      add\n      tag_65\n      jump\t// in\n    tag_429:\n      swap4\n      swap1\n      swap5\n      0x40\n      tag_431\n      dup3\n      0x20\n      dup8\n      add\n      tag_29\n      jump\t// in\n    tag_431:\n      swap5\n      add\n      tag_67\n      jump\t// in\n    tag_70:\n      jumpi(tag_3, callvalue)\n      tag_434\n      tag_435\n      calldatasize\n      0x04\n      tag_68\n      jump\t// in\n    tag_435:\n      swap3\n      swap2\n      swap1\n      swap2\n      tag_164\n      jump\t// in\n    tag_434:\n      mload(0x40)\n      stop\n    tag_71:\n      dup1\n      mload\n      dup3\n      mstore\n      tag_303\n      swap2\n      swap1\n      0xa0\n      swap1\n      dup2\n      swap1\n      tag_440\n      0x20\n      dup3\n      add\n      mload\n      0x20\n      dup7\n      add\n      mstore\n      jump\n    tag_440:\n      tag_441\n      0x40\n      dup3\n      add\n      mload\n      0x40\n      dup7\n      add\n      swap1\n      tag_56\n      jump\t// in\n    tag_441:\n      tag_442\n      0x60\n      dup3\n      add\n      mload\n      0x60\n      dup7\n      add\n      mstore\n      jump\n    tag_442:\n      tag_443\n      0x80\n      dup3\n      add\n      mload\n      0x80\n      dup7\n      add\n      mstore\n      jump\n    tag_443:\n      add\n      mload\n      iszero\n      iszero\n      swap2\n      add\n      mstore\n      jump\n    tag_72:\n      0xc0\n      dup2\n      add\n      swap3\n      swap2\n      tag_303\n      swap2\n      swap1\n      tag_71\n      jump\t// in\n    tag_73:\n      jumpi(tag_3, callvalue)\n      tag_307\n      tag_448\n      tag_449\n      calldatasize\n      0x04\n      tag_30\n      jump\t// in\n    tag_449:\n      tag_174\n      jump\t// in\n    tag_448:\n      mload(0x40)\n      swap2\n      dup3\n      swap2\n      dup3\n      tag_72\n      jump\t// in\n    tag_74:\n      tag_298\n      swap2\n      0x08\n      mul\n      shr\n      jump(tag_14)\n    tag_75:\n      swap1\n      tag_298\n      swap2\n      sload\n      tag_74\n      jump\t// in\n        /* \"contracts/VeriFlowMarketplace.sol\":622:645  address public treasury */\n    tag_76:\n      tag_298\n      0x00\n      0x02\n      tag_75\n      jump\t// in\n        /* \"contracts/VeriFlowMarketplace.sol\":422:7873  contract VeriFlowMarketplace is Ownable, ReentrancyGuard {... */\n    tag_77:\n      0x20\n      dup2\n      add\n      swap3\n      swap2\n      tag_303\n      swap2\n      swap1\n      tag_56\n      jump\t// in\n    tag_78:\n      jumpi(tag_3, callvalue)\n      tag_458\n      calldatasize\n      0x04\n      tag_4\n      jump\t// in\n    tag_458:\n      tag_307\n      tag_460\n      tag_76\n      jump\t// in\n    tag_460:\n      mload(0x40)\n      swap2\n      dup3\n      swap2\n      dup3\n      tag_77\n      jump\t// in\n        /* \"contracts/VeriFlowMarketplace.sol\":707:741  uint256 public providerStakeAmount */\n    tag_79:\n      tag_298\n      0x00\n      0x03\n      tag_8\n      jump\t// in\n        /* \"contracts/VeriFlowMarketplace.sol\":422:7873  contract VeriFlowMarketplace is Ownable, ReentrancyGuard {... */\n    tag_80:\n      jumpi(tag_3, callvalue)\n      tag_465\n      calldatasize\n      0x04\n      tag_4\n      jump\t// in\n    tag_465:\n      tag_307\n      tag_308\n      tag_79\n      jump\t// in\n    tag_81:\n      jumpi(tag_3, callvalue)\n      tag_471\n      calldatasize\n      0x04\n      tag_4\n      jump\t// in\n    tag_471:\n      tag_434\n      tag_179\n      jump\t// in\n    tag_82:\n      tag_298\n      swap1\n      jump(tag_381)\n    tag_83:\n      tag_298\n      swap1\n      sload\n      tag_82\n      jump\t// in\n        /* \"contracts/VeriFlowMarketplace.sol\":1474:1519  mapping(uint256 => Purchase) public purchases */\n    tag_84:\n      tag_478\n      swap1\n      0x06\n      tag_32\n      jump\t// in\n    tag_478:\n      swap1\n      tag_479\n      dup3\n      tag_35\n      jump\t// in\n    tag_479:\n      swap2\n      tag_480\n      0x01\n      dup3\n      add\n      tag_35\n      jump\t// in\n    tag_480:\n      swap2\n      tag_481\n      0x02\n      dup4\n      add\n      tag_37\n      jump\t// in\n    tag_481:\n      swap2\n      tag_482\n      0x03\n      dup3\n      add\n      tag_35\n      jump\t// in\n    tag_482:\n      swap2\n      tag_298\n      0x05\n      tag_484\n      0x04\n      dup6\n      add\n      tag_35\n      jump\t// in\n    tag_484:\n      swap4\n      add\n      tag_83\n      jump\t// in\n        /* \"contracts/VeriFlowMarketplace.sol\":422:7873  contract VeriFlowMarketplace is Ownable, ReentrancyGuard {... */\n    tag_85:\n      swap2\n      swap5\n      tag_485\n      tag_486\n      swap3\n      swap9\n      swap8\n      swap6\n      tag_487\n      0xa0\n      swap7\n      tag_488\n      tag_303\n      swap11\n      tag_490\n      0xc0\n      dup11\n      add\n      swap15\n      0x00\n      dup12\n      add\n      mstore\n      jump\n    tag_490:\n      0x20\n      dup10\n      add\n      mstore\n      jump\n    tag_488:\n      0x40\n      dup8\n      add\n      swap1\n      tag_56\n      jump\t// in\n    tag_487:\n      0x60\n      dup6\n      add\n      mstore\n      jump\n    tag_485:\n      0x80\n      dup4\n      add\n      mstore\n      jump\n    tag_486:\n      add\n      swap1\n      iszero\n      iszero\n      swap1\n      mstore\n      jump\n    tag_86:\n      jumpi(tag_3, callvalue)\n      tag_307\n      tag_494\n      tag_495\n      calldatasize\n      0x04\n      tag_30\n      jump\t// in\n    tag_495:\n      tag_84\n      jump\t// in\n    tag_494:\n      swap3\n      tag_496\n      swap7\n      swap5\n      swap7\n      swap3\n      swap2\n      swap3\n      mload(0x40)\n      swap1\n      jump\n    tag_496:\n      swap7\n      dup8\n      swap7\n      dup8\n      tag_85\n      jump\t// in\n    tag_87:\n      jumpi(tag_3, callvalue)\n      tag_499\n      calldatasize\n      0x04\n      tag_4\n      jump\t// in\n    tag_499:\n      tag_307\n      tag_460\n      tag_180\n      jump\t// in\n    tag_88:\n      jumpi(tag_3, callvalue)\n      tag_434\n      tag_506\n      calldatasize\n      0x04\n      tag_30\n      jump\t// in\n    tag_506:\n      tag_188\n      jump\t// in\n    tag_89:\n      jumpi(tag_3, callvalue)\n      tag_434\n      tag_512\n      calldatasize\n      0x04\n      tag_30\n      jump\t// in\n    tag_512:\n      tag_202\n      jump\t// in\n    tag_90:\n      swap2\n      swap1\n      0x40\n      dup4\n      dup3\n      sub\n      slt\n      tag_3\n      jumpi\n      tag_298\n      swap1\n      0x20\n      tag_517\n      dup3\n      dup7\n      tag_29\n      jump\t// in\n    tag_517:\n      swap5\n      add\n      tag_29\n      jump\t// in\n    tag_91:\n      jumpi(tag_3, callvalue)\n      tag_434\n      tag_522\n      calldatasize\n      0x04\n      tag_90\n      jump\t// in\n    tag_522:\n      swap1\n      tag_227\n      jump\t// in\n    tag_92:\n      jumpi(tag_3, callvalue)\n      tag_434\n      tag_528\n      calldatasize\n      0x04\n      tag_30\n      jump\t// in\n    tag_528:\n      tag_230\n      jump\t// in\n        /* \"contracts/VeriFlowMarketplace.sol\":795:824  uint256 public datasetCounter */\n    tag_93:\n      tag_298\n      0x00\n      0x04\n      tag_8\n      jump\t// in\n        /* \"contracts/VeriFlowMarketplace.sol\":422:7873  contract VeriFlowMarketplace is Ownable, ReentrancyGuard {... */\n    tag_94:\n      jumpi(tag_3, callvalue)\n      tag_534\n      calldatasize\n      0x04\n      tag_4\n      jump\t// in\n    tag_534:\n      tag_307\n      tag_308\n      tag_93\n      jump\t// in\n    tag_96:\n      dup1\n      mload\n      dup3\n      mstore\n      swap1\n      tag_298\n      swap1\n      0xc0\n      dup1\n      tag_543\n      0xe0\n      dup5\n      add\n      tag_545\n      0x20\n      dup9\n      add\n      mload\n      0x20\n      dup8\n      add\n      swap1\n      tag_56\n      jump\t// in\n    tag_545:\n      0x40\n      dup8\n      add\n      mload\n      dup6\n      dup3\n      sub\n      0x40\n      dup8\n      add\n      mstore\n      tag_59\n      jump\t// in\n    tag_543:\n      swap5\n      tag_546\n      0x60\n      dup3\n      add\n      mload\n      0x60\n      dup7\n      add\n      mstore\n      jump\n    tag_546:\n      0x80\n      dup2\n      dup2\n      add\n      mload\n      0xffffffffffffffff\n      and\n      swap1\n      dup6\n      add\n      mstore\n      0xa0\n      dup2\n      dup2\n      add\n      mload\n      iszero\n      iszero\n      swap1\n      dup6\n      add\n      mstore\n      add\n      mload\n      swap2\n      add\n      mstore\n      jump\n    tag_97:\n      0x20\n      dup1\n      dup3\n      mstore\n      tag_298\n      swap3\n      swap2\n      add\n      swap1\n      tag_96\n      jump\t// in\n    tag_98:\n      jumpi(tag_3, callvalue)\n      tag_307\n      tag_553\n      tag_554\n      calldatasize\n      0x04\n      tag_30\n      jump\t// in\n    tag_554:\n      tag_236\n      jump\t// in\n    tag_553:\n      mload(0x40)\n      swap2\n      dup3\n      swap2\n      dup3\n      tag_97\n      jump\t// in\n        /* \"contracts/VeriFlowMarketplace.sol\":1755:1791  uint256 public platformFeeRate = 250 */\n    tag_99:\n      tag_298\n      0x00\n      0x09\n      tag_8\n      jump\t// in\n        /* \"contracts/VeriFlowMarketplace.sol\":422:7873  contract VeriFlowMarketplace is Ownable, ReentrancyGuard {... */\n    tag_100:\n      jumpi(tag_3, callvalue)\n      tag_559\n      calldatasize\n      0x04\n      tag_4\n      jump\t// in\n    tag_559:\n      tag_307\n      tag_308\n      tag_99\n      jump\t// in\n    tag_101:\n      swap1\n      iszero\n      iszero\n      dup2\n      mstore\n      0xffffffffffffffff\n      swap1\n      swap2\n      and\n      0x20\n      dup3\n      add\n      mstore\n      0x40\n      add\n      swap1\n      jump\t// out\n    tag_102:\n      jumpi(tag_3, callvalue)\n      tag_567\n      tag_568\n      calldatasize\n      0x04\n      tag_30\n      jump\t// in\n    tag_568:\n      tag_240\n      jump\t// in\n    tag_567:\n      swap1\n      tag_307\n      tag_570\n      mload(0x40)\n      swap1\n      jump\n    tag_570:\n      swap3\n      dup4\n      swap3\n      dup4\n      tag_101\n      jump\t// in\n    tag_103:\n      jumpi(tag_3, callvalue)\n      tag_434\n      tag_574\n      calldatasize\n      0x04\n      tag_17\n      jump\t// in\n    tag_574:\n      tag_243\n      jump\t// in\n    tag_106:\n      0x20\n      dup1\n      dup3\n      mstore\n      0x12\n      swap1\n      dup3\n      add\n      mstore\n      0x496e73756666696369656e74207374616b650000000000000000000000000000\n      0x40\n      dup3\n      add\n      mstore\n      0x60\n      add\n      swap1\n      jump\n    tag_107:\n      iszero\n      tag_580\n      jumpi\n      jump\t// out\n    tag_580:\n      mload(0x40)\n      shl(0xe5, 0x461bcd)\n      dup2\n      mstore\n      dup1\n      tag_583\n      0x04\n      dup3\n      add\n      tag_106\n      jump\t// in\n    tag_583:\n      sub\n      swap1\n      revert\n        /* \"contracts/VeriFlowMarketplace.sol\":2920:3058  modifier onlyStakedProvider() {... */\n    tag_108:\n      swap1\n        /* \"contracts/VeriFlowMarketplace.sol\":3050:3051  _ */\n      tag_303\n        /* \"contracts/VeriFlowMarketplace.sol\":2920:3058  modifier onlyStakedProvider() {... */\n      swap4\n      swap3\n      swap2\n        /* \"contracts/VeriFlowMarketplace.sol\":2960:3040  require(providerStakes[msg.sender] >= providerStakeAmount, \"Insufficient stake\") */\n      tag_585\n        /* \"contracts/VeriFlowMarketplace.sol\":2968:2994  providerStakes[msg.sender] */\n      tag_586\n      tag_587\n        /* \"contracts/VeriFlowMarketplace.sol\":2983:2993  msg.sender */\n      caller\n        /* \"contracts/VeriFlowMarketplace.sol\":2968:2982  providerStakes */\n      0x07\n        /* \"contracts/VeriFlowMarketplace.sol\":2968:2994  providerStakes[msg.sender] */\n      tag_21\n      jump\t// in\n    tag_587:\n      tag_35\n      jump\t// in\n    tag_586:\n        /* \"contracts/VeriFlowMarketplace.sol\":2968:3017  providerStakes[msg.sender] >= providerStakeAmount */\n      tag_588\n      tag_589\n        /* \"contracts/VeriFlowMarketplace.sol\":2998:3017  providerStakeAmount */\n      tag_298\n      0x03\n      tag_35\n      jump\t// in\n        /* \"contracts/VeriFlowMarketplace.sol\":2968:3017  providerStakes[msg.sender] >= providerStakeAmount */\n    tag_589:\n      swap2\n        /* \"contracts/VeriFlowMarketplace.sol\":422:7873  contract VeriFlowMarketplace is Ownable, ReentrancyGuard {... */\n      swap1\n      jump\n        /* \"contracts/VeriFlowMarketplace.sol\":2968:3017  providerStakes[msg.sender] >= providerStakeAmount */\n    tag_588:\n      lt\n      iszero\n        /* \"contracts/VeriFlowMarketplace.sol\":2960:3040  require(providerStakes[msg.sender] >= providerStakeAmount, \"Insufficient stake\") */\n      tag_107\n      jump\t// in\n    tag_585:\n        /* \"contracts/VeriFlowMarketplace.sol\":3050:3051  _ */\n      tag_163\n      jump\t// in\n        /* \"contracts/VeriFlowMarketplace.sol\":422:7873  contract VeriFlowMarketplace is Ownable, ReentrancyGuard {... */\n    tag_114:\n      0x20\n      dup1\n      dup3\n      mstore\n      0x14\n      swap1\n      dup3\n      add\n      mstore\n      0x496e76616c6964206d6574616461746120555249000000000000000000000000\n      0x40\n      dup3\n      add\n      mstore\n      0x60\n      add\n      swap1\n      jump\n    tag_115:\n      iszero\n      tag_597\n      jumpi\n      jump\t// out\n    tag_597:\n      mload(0x40)\n      shl(0xe5, 0x461bcd)\n      dup2\n      mstore\n      dup1\n      tag_583\n      0x04\n      dup3\n      add\n      tag_114\n      jump\t// in\n    tag_118:\n      0x20\n      dup1\n      dup3\n      mstore\n      0x0d\n      swap1\n      dup3\n      add\n      mstore\n      0x496e76616c696420707269636500000000000000000000000000000000000000\n      0x40\n      dup3\n      add\n      mstore\n      0x60\n      add\n      swap1\n      jump\n    tag_119:\n      iszero\n      tag_604\n      jumpi\n      jump\t// out\n    tag_604:\n      mload(0x40)\n      shl(0xe5, 0x461bcd)\n      dup2\n      mstore\n      dup1\n      tag_583\n      0x04\n      dup3\n      add\n      tag_118\n      jump\t// in\n    tag_120:\n      mstore(0x00, shl(0xe0, 0x4e487b71))\n      mstore(0x04, 0x11)\n      revert(0x00, 0x24)\n    tag_121:\n      not(0x00)\n      dup2\n      eq\n      tag_609\n      jumpi\n      0x01\n      add\n      swap1\n      jump\t// out\n    tag_609:\n      tag_120\n      jump\t// in\n    tag_123:\n      swap1\n      not(0x00)\n      swap1\n    tag_611:\n      swap2\n      dup2\n      not\n      and\n      swap2\n      and\n      or\n      swap1\n      jump\t// out\n    tag_124:\n      swap1\n      tag_612\n      tag_298\n      tag_614\n      swap3\n      tag_31\n      jump\t// in\n    tag_612:\n      dup3\n      sload\n      tag_123\n      jump\t// in\n    tag_614:\n      swap1\n      sstore\n      jump\t// out\n    tag_125:\n      swap1\n      tag_303\n      tag_616\n      mload(0x40)\n      swap1\n      jump\n    tag_616:\n      swap3\n      dup4\n      tag_46\n      jump\t// in\n    tag_126:\n      tag_298\n      0xe0\n      tag_125\n      jump\t// in\n    tag_128:\n      swap1\n      tag_10\n      swap1\n      tag_14\n      jump\t// in\n    tag_129:\n      0xffffffffffffffff\n      dup2\n      gt\n      tag_373\n      jumpi\n      0x20\n      swap1\n      0x1f\n      add\n      not(0x1f)\n      and\n      add\n      swap1\n      jump\t// out\n    tag_130:\n      swap1\n      dup3\n      0x00\n      swap4\n      swap3\n      dup3\n      calldatacopy\n      add\n      mstore\n      jump\t// out\n    tag_131:\n      swap1\n      swap3\n      swap2\n      swap3\n      tag_623\n      tag_624\n      dup3\n      tag_129\n      jump\t// in\n    tag_624:\n      tag_125\n      jump\t// in\n    tag_623:\n      swap4\n      dup2\n      dup6\n      mstore\n      dup2\n      dup4\n      add\n      gt\n      tag_3\n      jumpi\n      tag_303\n      swap2\n      0x20\n      dup6\n      add\n      swap1\n      tag_130\n      jump\t// in\n    tag_132:\n      tag_298\n      swap2\n      calldatasize\n      swap2\n      tag_131\n      jump\t// in\n    tag_136:\n      mload\n      swap1\n      jump\n    tag_137:\n      tag_298\n      swap1\n      mload\n      tag_14\n      jump\t// in\n    tag_138:\n      swap1\n      0xffffffffffffffffffffffffffffffffffffffff\n      swap1\n      jump(tag_611)\n    tag_139:\n      swap1\n      tag_634\n      tag_298\n      tag_614\n      swap3\n      tag_20\n      jump\t// in\n    tag_634:\n      dup3\n      sload\n      tag_138\n      jump\t// in\n    tag_142:\n      swap2\n      not(0x00)\n      0x08\n      swap3\n      swap1\n      swap3\n      mul\n      swap2\n      dup3\n      shl\n      swap2\n      shl\n      jump(tag_611)\n    tag_143:\n      swap2\n      swap1\n      tag_639\n      tag_298\n      tag_614\n      swap4\n      tag_31\n      jump\t// in\n    tag_639:\n      swap1\n      dup4\n      sload\n      tag_142\n      jump\t// in\n    tag_145:\n      tag_303\n      swap2\n      0x00\n      swap2\n      tag_143\n      jump\t// in\n    tag_146:\n      dup2\n      dup2\n      lt\n      tag_645\n      jumpi\n      pop\n      pop\n      jump\t// out\n    tag_645:\n      dup1\n      tag_647\n      0x00\n      0x01\n      swap4\n      tag_145\n      jump\t// in\n    tag_647:\n      add\n      jump(tag_146)\n    tag_147:\n      swap2\n      swap1\n      0x1f\n      dup2\n      gt\n      tag_648\n      jumpi\n      pop\n      pop\n      pop\n      jump\t// out\n    tag_648:\n      tag_650\n      tag_303\n      swap4\n      0x00\n      mstore\n      keccak256(0x00, 0x20)\n      swap1\n      jump\n    tag_650:\n      swap1\n      0x20\n      0x1f\n      dup5\n      add\n      dup2\n      swap1\n      div\n      dup4\n      add\n      swap4\n      lt\n      tag_653\n      jumpi\n    tag_654:\n      0x20\n      0x1f\n      swap1\n      swap2\n      add\n      div\n      add\n      swap1\n      tag_146\n      jump\t// in\n    tag_653:\n      swap1\n      swap2\n      pop\n      dup2\n      swap1\n      jump(tag_654)\n    tag_150:\n      swap1\n      tag_658\n      dup2\n      mload\n      swap1\n      jump\n    tag_658:\n      swap1\n      0xffffffffffffffff\n      dup3\n      gt\n      tag_373\n      jumpi\n      tag_661\n      dup3\n      tag_662\n      dup6\n      sload\n      tag_39\n      jump\t// in\n    tag_662:\n      dup6\n      tag_147\n      jump\t// in\n    tag_661:\n      0x20\n      swap1\n      0x1f\n      dup4\n      gt\n      0x01\n      eq\n      tag_663\n      jumpi\n      tag_614\n      swap3\n      swap2\n      0x00\n      swap2\n      dup4\n      tag_666\n      jumpi\n    tag_667:\n      pop\n      pop\n      not(0x00)\n      0x08\n      dup4\n      mul\n      shr\n      not\n      and\n      swap1\n      0x02\n      mul\n      or\n      swap1\n      jump\n    tag_666:\n      add\n      mload\n      swap1\n      pop\n      codesize\n      dup1\n      jump(tag_667)\n    tag_663:\n      not(0x1f)\n      dup4\n      and\n      swap2\n      tag_669\n      dup6\n      0x00\n      mstore\n      keccak256(0x00, 0x20)\n      swap1\n      jump\n    tag_669:\n      swap3\n      0x00\n    tag_670:\n      dup2\n      dup2\n      lt\n      tag_671\n      jumpi\n      pop\n      swap2\n      0x02\n      swap4\n      swap2\n      dup6\n      0x01\n      swap7\n      swap5\n      lt\n      tag_673\n      jumpi\n    tag_674:\n      pop\n      pop\n      pop\n      mul\n      add\n      swap1\n      sstore\n      jump\t// out\n    tag_673:\n      add\n      mload\n      not(0x00)\n      0x08\n      0x1f\n      dup6\n      and\n      mul\n      shr\n      not\n      and\n      swap1\n      sstore\n      codesize\n      dup1\n      dup1\n      jump(tag_674)\n    tag_671:\n      swap2\n      swap4\n      0x20\n      0x01\n      dup2\n      swap3\n      dup8\n      dup8\n      add\n      mload\n      dup2\n      sstore\n      add\n      swap6\n      add\n      swap3\n      add\n      jump(tag_670)\n    tag_151:\n      swap1\n      tag_303\n      swap2\n      tag_150\n      jump\t// in\n    tag_152:\n      mload\n      0xffffffffffffffff\n      and\n      swap1\n      jump\n    tag_153:\n      swap1\n      0xffffffffffffffff\n      swap1\n      jump(tag_611)\n    tag_154:\n      tag_378\n      tag_298\n      tag_298\n      swap3\n      0xffffffffffffffff\n      and\n      swap1\n      jump\n    tag_155:\n      swap1\n      tag_682\n      tag_298\n      tag_614\n      swap3\n      tag_154\n      jump\t// in\n    tag_682:\n      dup3\n      sload\n      tag_153\n      jump\t// in\n    tag_156:\n      mload\n      iszero\n      iszero\n      swap1\n      jump\n    tag_158:\n      swap1\n      0xff0000000000000000\n      swap1\n      0x40\n      shl\n      jump(tag_611)\n    tag_159:\n      iszero\n      iszero\n      swap1\n      jump\n    tag_160:\n      swap1\n      tag_688\n      tag_298\n      tag_614\n      swap3\n      tag_159\n      jump\t// in\n    tag_688:\n      dup3\n      sload\n      tag_158\n      jump\t// in\n    tag_161:\n      0x05\n      tag_691\n      0xc0\n      tag_303\n      swap5\n      tag_693\n      tag_694\n      0x00\n      dup4\n      add\n      tag_136\n      jump\t// in\n    tag_694:\n      dup7\n      tag_124\n      jump\t// in\n    tag_693:\n      tag_695\n      tag_696\n      0x20\n      dup4\n      add\n      tag_137\n      jump\t// in\n    tag_696:\n      0x01\n      dup8\n      add\n      tag_139\n      jump\t// in\n    tag_695:\n      tag_697\n      tag_698\n      0x40\n      dup4\n      add\n      mload\n      swap1\n      jump\n    tag_698:\n      0x02\n      dup8\n      add\n      tag_151\n      jump\t// in\n    tag_697:\n      tag_699\n      tag_700\n      0x60\n      dup4\n      add\n      tag_136\n      jump\t// in\n    tag_700:\n      0x03\n      dup8\n      add\n      tag_124\n      jump\t// in\n    tag_699:\n      tag_701\n      0x04\n      dup7\n      add\n      tag_702\n      tag_703\n      0x80\n      dup6\n      add\n      tag_152\n      jump\t// in\n    tag_703:\n      dup3\n      tag_155\n      jump\t// in\n    tag_702:\n      tag_704\n      0xa0\n      dup5\n      add\n      tag_156\n      jump\t// in\n    tag_704:\n      swap1\n      tag_160\n      jump\t// in\n    tag_701:\n      add\n      tag_136\n      jump\t// in\n    tag_691:\n      swap2\n      add\n      tag_124\n      jump\t// in\n    tag_162:\n      swap1\n      tag_303\n      swap2\n      tag_161\n      jump\t// in\n        /* \"contracts/VeriFlowMarketplace.sol\":4023:4734  function listDataset(... */\n    tag_163:\n      swap1\n        /* \"contracts/VeriFlowMarketplace.sol\":4383:4647  Dataset({... */\n      tag_706\n      tag_707\n        /* \"contracts/VeriFlowMarketplace.sol\":4023:4734  function listDataset(... */\n      swap2\n        /* \"contracts/VeriFlowMarketplace.sol\":4383:4647  Dataset({... */\n      tag_708\n        /* \"contracts/VeriFlowMarketplace.sol\":4356:4647  datasets[datasetCounter] = Dataset({... */\n      tag_709\n        /* \"contracts/VeriFlowMarketplace.sol\":4023:4734  function listDataset(... */\n      swap6\n      swap7\n        /* \"contracts/VeriFlowMarketplace.sol\":4383:4647  Dataset({... */\n      tag_710\n      tag_711\n        /* \"contracts/VeriFlowMarketplace.sol\":4195:4220  bytes(metadataUri).length */\n      tag_712\n        /* \"contracts/VeriFlowMarketplace.sol\":4195:4213  bytes(metadataUri) */\n      tag_713\n      dup7\n      dup11\n        /* \"contracts/VeriFlowMarketplace.sol\":422:7873  contract VeriFlowMarketplace is Ownable, ReentrancyGuard {... */\n      swap2\n      jump\n        /* \"contracts/VeriFlowMarketplace.sol\":4195:4213  bytes(metadataUri) */\n    tag_713:\n        /* \"contracts/VeriFlowMarketplace.sol\":4195:4220  bytes(metadataUri).length */\n      swap1\n        /* \"contracts/VeriFlowMarketplace.sol\":422:7873  contract VeriFlowMarketplace is Ownable, ReentrancyGuard {... */\n      pop\n      swap1\n      jump\n        /* \"contracts/VeriFlowMarketplace.sol\":4195:4220  bytes(metadataUri).length */\n    tag_712:\n        /* \"contracts/VeriFlowMarketplace.sol\":4223:4224  0 */\n      swap5\n        /* \"contracts/VeriFlowMarketplace.sol\":4187:4249  require(bytes(metadataUri).length > 0, \"Invalid metadata URI\") */\n      tag_714\n        /* \"contracts/VeriFlowMarketplace.sol\":4223:4224  0 */\n      0x00\n        /* \"contracts/VeriFlowMarketplace.sol\":4195:4224  bytes(metadataUri).length > 0 */\n      swap7\n      tag_715\n      tag_589\n      dup10\n      tag_31\n      jump\t// in\n    tag_715:\n      gt\n        /* \"contracts/VeriFlowMarketplace.sol\":4187:4249  require(bytes(metadataUri).length > 0, \"Invalid metadata URI\") */\n      tag_115\n      jump\t// in\n    tag_714:\n        /* \"contracts/VeriFlowMarketplace.sol\":4259:4302  require(pricePerBatch > 0, \"Invalid price\") */\n      tag_717\n        /* \"contracts/VeriFlowMarketplace.sol\":4267:4284  pricePerBatch > 0 */\n      tag_718\n      dup8\n      tag_31\n      jump\t// in\n    tag_718:\n      dup13\n      gt\n        /* \"contracts/VeriFlowMarketplace.sol\":4259:4302  require(pricePerBatch > 0, \"Invalid price\") */\n      tag_119\n      jump\t// in\n    tag_717:\n        /* \"contracts/VeriFlowMarketplace.sol\":4321:4337  datasetCounter++ */\n      tag_720\n      tag_721\n      tag_722\n      0x04\n      tag_35\n      jump\t// in\n    tag_722:\n      tag_121\n      jump\t// in\n    tag_721:\n      0x04\n      tag_124\n      jump\t// in\n    tag_720:\n        /* \"contracts/VeriFlowMarketplace.sol\":4409:4423  datasetCounter */\n      tag_723\n      0x04\n      tag_35\n      jump\t// in\n    tag_723:\n        /* \"contracts/VeriFlowMarketplace.sol\":4383:4647  Dataset({... */\n      swap9\n      tag_724\n      tag_725\n      tag_126\n      jump\t// in\n    tag_725:\n      swap11\n      dup9\n      dup13\n      add\n        /* \"contracts/VeriFlowMarketplace.sol\":422:7873  contract VeriFlowMarketplace is Ownable, ReentrancyGuard {... */\n      mstore\n      jump\n        /* \"contracts/VeriFlowMarketplace.sol\":4383:4647  Dataset({... */\n    tag_724:\n      tag_726\n        /* \"contracts/VeriFlowMarketplace.sol\":4447:4457  msg.sender */\n      caller\n        /* \"contracts/VeriFlowMarketplace.sol\":4383:4647  Dataset({... */\n      0x20\n      dup13\n      add\n      tag_128\n      jump\t// in\n    tag_726:\n      tag_132\n      jump\t// in\n    tag_711:\n      0x40\n      dup9\n      add\n        /* \"contracts/VeriFlowMarketplace.sol\":422:7873  contract VeriFlowMarketplace is Ownable, ReentrancyGuard {... */\n      mstore\n      jump\n        /* \"contracts/VeriFlowMarketplace.sol\":4383:4647  Dataset({... */\n    tag_710:\n      tag_727\n      dup9\n      0x60\n      dup9\n      add\n        /* \"contracts/VeriFlowMarketplace.sol\":422:7873  contract VeriFlowMarketplace is Ownable, ReentrancyGuard {... */\n      mstore\n      jump\n        /* \"contracts/VeriFlowMarketplace.sol\":4383:4647  Dataset({... */\n    tag_727:\n        /* \"contracts/VeriFlowMarketplace.sol\":422:7873  contract VeriFlowMarketplace is Ownable, ReentrancyGuard {... */\n      0xffffffffffffffff\n      and\n        /* \"contracts/VeriFlowMarketplace.sol\":4383:4647  Dataset({... */\n      0x80\n      dup7\n      add\n        /* \"contracts/VeriFlowMarketplace.sol\":422:7873  contract VeriFlowMarketplace is Ownable, ReentrancyGuard {... */\n      mstore\n      jump\n        /* \"contracts/VeriFlowMarketplace.sol\":4383:4647  Dataset({... */\n    tag_708:\n        /* \"contracts/VeriFlowMarketplace.sol\":4605:4609  true */\n      0x01\n        /* \"contracts/VeriFlowMarketplace.sol\":4383:4647  Dataset({... */\n      0xa0\n      dup6\n      add\n        /* \"contracts/VeriFlowMarketplace.sol\":422:7873  contract VeriFlowMarketplace is Ownable, ReentrancyGuard {... */\n      mstore\n        /* \"contracts/VeriFlowMarketplace.sol\":4383:4647  Dataset({... */\n      tag_31\n      jump\t// in\n    tag_728:\n      tag_31\n      jump\t// in\n    tag_706:\n      0xc0\n      dup4\n      add\n        /* \"contracts/VeriFlowMarketplace.sol\":422:7873  contract VeriFlowMarketplace is Ownable, ReentrancyGuard {... */\n      mstore\n      jump\n        /* \"contracts/VeriFlowMarketplace.sol\":4383:4647  Dataset({... */\n    tag_707:\n        /* \"contracts/VeriFlowMarketplace.sol\":4356:4380  datasets[datasetCounter] */\n      tag_729\n        /* \"contracts/VeriFlowMarketplace.sol\":4365:4379  datasetCounter */\n      tag_730\n      0x04\n      tag_35\n      jump\t// in\n    tag_730:\n        /* \"contracts/VeriFlowMarketplace.sol\":4356:4364  datasets */\n      0x05\n        /* \"contracts/VeriFlowMarketplace.sol\":4356:4380  datasets[datasetCounter] */\n      tag_32\n      jump\t// in\n    tag_729:\n        /* \"contracts/VeriFlowMarketplace.sol\":4356:4647  datasets[datasetCounter] = Dataset({... */\n      tag_162\n      jump\t// in\n    tag_709:\n        /* \"contracts/VeriFlowMarketplace.sol\":4671:4727  DatasetListed(datasetCounter, msg.sender, pricePerBatch) */\n      tag_731\n        /* \"contracts/VeriFlowMarketplace.sol\":4685:4699  datasetCounter */\n      tag_728\n      0x04\n      tag_35\n      jump\t// in\n        /* \"contracts/VeriFlowMarketplace.sol\":4671:4727  DatasetListed(datasetCounter, msg.sender, pricePerBatch) */\n    tag_731:\n      0xefa8be02df15b3d9e3df64c38716dffefe08137dcc422847518158ed0f7ac29e\n      tag_733\n      tag_734\n        /* \"contracts/VeriFlowMarketplace.sol\":4447:4457  msg.sender */\n      caller\n        /* \"contracts/VeriFlowMarketplace.sol\":4671:4727  DatasetListed(datasetCounter, msg.sender, pricePerBatch) */\n      tag_20\n      jump\t// in\n    tag_734:\n      swap4\n      tag_309\n        /* \"contracts/VeriFlowMarketplace.sol\":422:7873  contract VeriFlowMarketplace is Ownable, ReentrancyGuard {... */\n      mload(0x40)\n      swap1\n      jump\n        /* \"contracts/VeriFlowMarketplace.sol\":4671:4727  DatasetListed(datasetCounter, msg.sender, pricePerBatch) */\n    tag_733:\n      sub\n      swap1\n      log3\n        /* \"contracts/VeriFlowMarketplace.sol\":4023:4734  function listDataset(... */\n      jump\t// out\n    tag_164:\n      swap1\n      tag_303\n      swap4\n      swap3\n      swap2\n      tag_108\n      jump\t// in\n        /* \"contracts/VeriFlowMarketplace.sol\":422:7873  contract VeriFlowMarketplace is Ownable, ReentrancyGuard {... */\n    tag_165:\n      tag_298\n      0xc0\n      tag_125\n      jump\t// in\n    tag_166:\n      tag_738\n      tag_165\n      jump\t// in\n    tag_738:\n      swap1\n      0x00\n      dup3\n      mstore\n      0x20\n      dup1\n      dup1\n      dup1\n      dup1\n      dup1\n      dup8\n      add\n      0x00\n    tag_740:\n      dup2\n      mstore\n      add\n      0x00\n      dup2\n      mstore\n      add\n      0x00\n      dup2\n      mstore\n      add\n      0x00\n      dup2\n      mstore\n      add\n      0x00\n      swap1\n      mstore\n      pop\n      jump\t// out\n    tag_167:\n      tag_298\n      tag_166\n      jump\t// in\n    tag_170:\n      0x20\n      dup1\n      dup3\n      mstore\n      0x13\n      swap1\n      dup3\n      add\n      mstore\n      0x496e76616c696420707572636861736520494400000000000000000000000000\n      0x40\n      dup3\n      add\n      mstore\n      0x60\n      add\n      swap1\n      jump\n    tag_171:\n      iszero\n      tag_749\n      jumpi\n      jump\t// out\n    tag_749:\n      mload(0x40)\n      shl(0xe5, 0x461bcd)\n      dup2\n      mstore\n      dup1\n      tag_583\n      0x04\n      dup3\n      add\n      tag_170\n      jump\t// in\n    tag_172:\n      swap1\n      tag_303\n      tag_754\n      0x05\n      tag_755\n      tag_165\n      jump\t// in\n    tag_755:\n      swap5\n      tag_756\n      tag_757\n      dup3\n      tag_35\n      jump\t// in\n    tag_757:\n      dup8\n      mstore\n      jump\n    tag_756:\n      tag_758\n      tag_759\n      0x01\n      dup4\n      add\n      tag_35\n      jump\t// in\n    tag_759:\n      0x20\n      dup9\n      add\n      mstore\n      jump\n    tag_758:\n      tag_760\n      tag_761\n      0x02\n      dup4\n      add\n      tag_37\n      jump\t// in\n    tag_761:\n      0x40\n      dup9\n      add\n      tag_128\n      jump\t// in\n    tag_760:\n      tag_762\n      tag_763\n      0x03\n      dup4\n      add\n      tag_35\n      jump\t// in\n    tag_763:\n      0x60\n      dup9\n      add\n      mstore\n      jump\n    tag_762:\n      tag_764\n      tag_765\n      0x04\n      dup4\n      add\n      tag_35\n      jump\t// in\n    tag_765:\n      0x80\n      dup9\n      add\n      mstore\n      jump\n    tag_764:\n      add\n      tag_83\n      jump\t// in\n    tag_754:\n      iszero\n      iszero\n      0xa0\n      dup5\n      add\n      mstore\n      jump\n    tag_173:\n      tag_298\n      swap1\n      tag_172\n      jump\t// in\n        /* \"contracts/VeriFlowMarketplace.sol\":6548:6763  function getPurchase(uint256 purchaseId) external view returns (Purchase memory) {... */\n    tag_174:\n        /* \"contracts/VeriFlowMarketplace.sol\":6735:6756  purchases[purchaseId] */\n      tag_767\n        /* \"contracts/VeriFlowMarketplace.sol\":6728:6756  return purchases[purchaseId] */\n      tag_298\n        /* \"contracts/VeriFlowMarketplace.sol\":6548:6763  function getPurchase(uint256 purchaseId) external view returns (Purchase memory) {... */\n      swap2\n        /* \"contracts/VeriFlowMarketplace.sol\":6612:6627  Purchase memory */\n      tag_769\n      tag_167\n      jump\t// in\n    tag_769:\n        /* \"contracts/VeriFlowMarketplace.sol\":6647:6661  purchaseId > 0 */\n      pop\n      tag_770\n        /* \"contracts/VeriFlowMarketplace.sol\":6660:6661  0 */\n      0x00\n        /* \"contracts/VeriFlowMarketplace.sol\":6647:6661  purchaseId > 0 */\n      tag_31\n      jump\t// in\n    tag_770:\n      dup2\n      gt\n        /* \"contracts/VeriFlowMarketplace.sol\":6647:6694  purchaseId > 0 && purchaseId <= purchaseCounter */\n      dup1\n      tag_772\n      jumpi\n        /* \"contracts/VeriFlowMarketplace.sol\":6548:6763  function getPurchase(uint256 purchaseId) external view returns (Purchase memory) {... */\n    tag_773:\n        /* \"contracts/VeriFlowMarketplace.sol\":6639:6718  require(purchaseId > 0 && purchaseId <= purchaseCounter, \"Invalid purchase ID\") */\n      tag_774\n      swap1\n      tag_171\n      jump\t// in\n    tag_774:\n        /* \"contracts/VeriFlowMarketplace.sol\":6735:6744  purchases */\n      0x06\n        /* \"contracts/VeriFlowMarketplace.sol\":6735:6756  purchases[purchaseId] */\n      tag_32\n      jump\t// in\n    tag_767:\n        /* \"contracts/VeriFlowMarketplace.sol\":6728:6756  return purchases[purchaseId] */\n      tag_173\n      jump\t// in\n        /* \"contracts/VeriFlowMarketplace.sol\":6647:6694  purchaseId > 0 && purchaseId <= purchaseCounter */\n    tag_772:\n        /* \"contracts/VeriFlowMarketplace.sol\":6679:6694  purchaseCounter */\n      pop\n        /* \"contracts/VeriFlowMarketplace.sol\":6639:6718  require(purchaseId > 0 && purchaseId <= purchaseCounter, \"Invalid purchase ID\") */\n      tag_774\n        /* \"contracts/VeriFlowMarketplace.sol\":6665:6694  purchaseId <= purchaseCounter */\n      tag_775\n        /* \"contracts/VeriFlowMarketplace.sol\":6679:6694  purchaseCounter */\n      tag_298\n      0x08\n      tag_35\n      jump\t// in\n        /* \"contracts/VeriFlowMarketplace.sol\":6665:6694  purchaseId <= purchaseCounter */\n    tag_775:\n      dup3\n      gt\n      iszero\n        /* \"contracts/VeriFlowMarketplace.sol\":6647:6694  purchaseId > 0 && purchaseId <= purchaseCounter */\n      swap1\n      pop\n      jump(tag_773)\n        /* \"@openzeppelin/contracts/access/Ownable.sol\":1500:1562  modifier onlyOwner() {... */\n    tag_175:\n      tag_778\n      tag_244\n      jump\t// in\n    tag_778:\n        /* \"@openzeppelin/contracts/access/Ownable.sol\":1554:1555  _ */\n      tag_303\n      tag_178\n      jump\t// in\n        /* \"contracts/VeriFlowMarketplace.sol\":422:7873  contract VeriFlowMarketplace is Ownable, ReentrancyGuard {... */\n    tag_176:\n      tag_14\n      tag_298\n      tag_298\n      swap3\n      swap1\n      jump\n    tag_177:\n      tag_298\n      swap1\n      tag_176\n      jump\t// in\n        /* \"@openzeppelin/contracts/access/Ownable.sol\":2293:2394  function renounceOwnership() public virtual onlyOwner {... */\n    tag_178:\n        /* \"@openzeppelin/contracts/access/Ownable.sol\":2376:2386  address(0) */\n      tag_303\n      tag_785\n        /* \"@openzeppelin/contracts/access/Ownable.sol\":2384:2385  0 */\n      0x00\n        /* \"@openzeppelin/contracts/access/Ownable.sol\":2376:2386  address(0) */\n      tag_177\n      jump\t// in\n    tag_785:\n      tag_245\n      jump\t// in\n        /* \"@openzeppelin/contracts/access/Ownable.sol\":2293:2394  function renounceOwnership() public virtual onlyOwner {... */\n    tag_179:\n      tag_303\n      tag_175\n      jump\t// in\n        /* \"@openzeppelin/contracts/access/Ownable.sol\":1638:1723  function owner() public view virtual returns (address) {... */\n    tag_180:\n        /* \"@openzeppelin/contracts/access/Ownable.sol\":1710:1716  _owner */\n      tag_298\n      0x00\n      tag_37\n      jump\t// in\n        /* \"@openzeppelin/contracts/access/Ownable.sol\":1500:1562  modifier onlyOwner() {... */\n    tag_181:\n        /* \"@openzeppelin/contracts/access/Ownable.sol\":1554:1555  _ */\n      tag_303\n        /* \"@openzeppelin/contracts/access/Ownable.sol\":1500:1562  modifier onlyOwner() {... */\n      swap1\n      tag_790\n      tag_244\n      jump\t// in\n    tag_790:\n        /* \"@openzeppelin/contracts/access/Ownable.sol\":1554:1555  _ */\n      tag_187\n      jump\t// in\n        /* \"contracts/VeriFlowMarketplace.sol\":422:7873  contract VeriFlowMarketplace is Ownable, ReentrancyGuard {... */\n    tag_185:\n      0x20\n      dup1\n      dup3\n      mstore\n      0x11\n      swap1\n      dup3\n      add\n      mstore\n      0x466565207261746520746f6f2068696768000000000000000000000000000000\n      0x40\n      dup3\n      add\n      mstore\n      0x60\n      add\n      swap1\n      jump\n    tag_186:\n      iszero\n      tag_797\n      jumpi\n      jump\t// out\n    tag_797:\n      mload(0x40)\n      shl(0xe5, 0x461bcd)\n      dup2\n      mstore\n      dup1\n      tag_583\n      0x04\n      dup3\n      add\n      tag_185\n      jump\t// in\n        /* \"contracts/VeriFlowMarketplace.sol\":7414:7598  function updatePlatformFeeRate(uint256 newFeeRate) external onlyOwner {... */\n    tag_187:\n        /* \"contracts/VeriFlowMarketplace.sol\":7563:7591  platformFeeRate = newFeeRate */\n      tag_303\n        /* \"contracts/VeriFlowMarketplace.sol\":7414:7598  function updatePlatformFeeRate(uint256 newFeeRate) external onlyOwner {... */\n      swap1\n        /* \"contracts/VeriFlowMarketplace.sol\":7494:7542  require(newFeeRate <= 1000, \"Fee rate too high\") */\n      tag_802\n        /* \"contracts/VeriFlowMarketplace.sol\":7502:7520  newFeeRate <= 1000 */\n      tag_803\n        /* \"contracts/VeriFlowMarketplace.sol\":7516:7520  1000 */\n      0x03e8\n        /* \"contracts/VeriFlowMarketplace.sol\":7502:7520  newFeeRate <= 1000 */\n      tag_31\n      jump\t// in\n    tag_803:\n      dup3\n      gt\n      iszero\n        /* \"contracts/VeriFlowMarketplace.sol\":7494:7542  require(newFeeRate <= 1000, \"Fee rate too high\") */\n      tag_186\n      jump\t// in\n    tag_802:\n        /* \"contracts/VeriFlowMarketplace.sol\":7563:7591  platformFeeRate = newFeeRate */\n      0x09\n      tag_124\n      jump\t// in\n        /* \"contracts/VeriFlowMarketplace.sol\":7414:7598  function updatePlatformFeeRate(uint256 newFeeRate) external onlyOwner {... */\n    tag_188:\n      tag_303\n      swap1\n      tag_181\n      jump\t// in\n        /* \"@openzeppelin/contracts/utils/ReentrancyGuard.sol\":2322:2425  modifier nonReentrant() {... */\n    tag_189:\n        /* \"@openzeppelin/contracts/utils/ReentrancyGuard.sol\":2387:2388  _ */\n      tag_806\n        /* \"@openzeppelin/contracts/utils/ReentrancyGuard.sol\":2322:2425  modifier nonReentrant() {... */\n      swap1\n      tag_807\n      tag_248\n      jump\t// in\n    tag_807:\n        /* \"@openzeppelin/contracts/utils/ReentrancyGuard.sol\":2387:2388  _ */\n      tag_201\n      jump\t// in\n    tag_806:\n      tag_303\n      tag_251\n      jump\t// in\n        /* \"contracts/VeriFlowMarketplace.sol\":422:7873  contract VeriFlowMarketplace is Ownable, ReentrancyGuard {... */\n    tag_192:\n      0x20\n      dup1\n      dup3\n      mstore\n      0x19\n      swap1\n      dup3\n      add\n      mstore\n      0x496e73756666696369656e74207374616b6520616d6f756e7400000000000000\n      0x40\n      dup3\n      add\n      mstore\n      0x60\n      add\n      swap1\n      jump\n    tag_193:\n      iszero\n      tag_812\n      jumpi\n      jump\t// out\n    tag_812:\n      mload(0x40)\n      shl(0xe5, 0x461bcd)\n      dup2\n      mstore\n      dup1\n      tag_583\n      0x04\n      dup3\n      add\n      tag_192\n      jump\t// in\n    tag_195:\n      dup1\n      iszero\n      iszero\n      jump(tag_311)\n    tag_196:\n      swap1\n      pop\n      mload\n      swap1\n      tag_303\n      dup3\n      tag_195\n      jump\t// in\n    tag_197:\n      swap1\n      0x20\n      dup3\n      dup3\n      sub\n      slt\n      tag_3\n      jumpi\n      tag_298\n      swap2\n      tag_196\n      jump\t// in\n    tag_198:\n      0x40\n      swap1\n      tag_407\n      tag_303\n      swap5\n      swap7\n      swap6\n      swap4\n      swap7\n      tag_825\n      0x60\n      dup5\n      add\n      swap9\n      0x00\n      dup6\n      add\n      swap1\n      tag_56\n      jump\t// in\n    tag_825:\n      0x20\n      dup4\n      add\n      swap1\n      tag_56\n      jump\t// in\n    tag_199:\n      mload(0x40)\n      returndatasize\n      0x00\n      dup3\n      returndatacopy\n      returndatasize\n      swap1\n      revert\n    tag_200:\n      swap2\n      swap1\n      dup3\n      add\n      dup1\n      swap3\n      gt\n      tag_609\n      jumpi\n      jump\t// out\n        /* \"contracts/VeriFlowMarketplace.sol\":3445:3768  function stakeAsProvider(uint256 amount) external nonReentrant {... */\n    tag_201:\n        /* \"contracts/VeriFlowMarketplace.sol\":3518:3585  require(amount >= providerStakeAmount, \"Insufficient stake amount\") */\n      tag_831\n        /* \"contracts/VeriFlowMarketplace.sol\":3526:3555  amount >= providerStakeAmount */\n      tag_832\n        /* \"contracts/VeriFlowMarketplace.sol\":3536:3555  providerStakeAmount */\n      tag_298\n      0x03\n      tag_35\n      jump\t// in\n        /* \"contracts/VeriFlowMarketplace.sol\":3526:3555  amount >= providerStakeAmount */\n    tag_832:\n      dup3\n      lt\n      iszero\n        /* \"contracts/VeriFlowMarketplace.sol\":3518:3585  require(amount >= providerStakeAmount, \"Insufficient stake amount\") */\n      tag_193\n      jump\t// in\n    tag_831:\n        /* \"contracts/VeriFlowMarketplace.sol\":3604:3657  usdfc.transferFrom(msg.sender, address(this), amount) */\n      tag_835\n      0x20\n        /* \"contracts/VeriFlowMarketplace.sol\":3604:3609  usdfc */\n      dup3\n        /* \"contracts/VeriFlowMarketplace.sol\":3604:3622  usdfc.transferFrom */\n      tag_836\n        /* \"contracts/VeriFlowMarketplace.sol\":3604:3609  usdfc */\n      immutable(\"0xeaeba2e6d5db55ec0e36d29579da585b3cbc07168dc9c1795186a4d126c8f86b\")\n        /* \"contracts/VeriFlowMarketplace.sol\":3604:3622  usdfc.transferFrom */\n      tag_20\n      jump\t// in\n    tag_836:\n        /* \"contracts/VeriFlowMarketplace.sol\":3635:3648  address(this) */\n      tag_837\n        /* \"contracts/VeriFlowMarketplace.sol\":3643:3647  this */\n      address\n        /* \"contracts/VeriFlowMarketplace.sol\":3635:3648  address(this) */\n      tag_20\n      jump\t// in\n    tag_837:\n        /* \"contracts/VeriFlowMarketplace.sol\":3604:3657  usdfc.transferFrom(msg.sender, address(this), amount) */\n      0x00\n      tag_838\n        /* \"contracts/VeriFlowMarketplace.sol\":422:7873  contract VeriFlowMarketplace is Ownable, ReentrancyGuard {... */\n      mload(0x40)\n      swap1\n      jump\n        /* \"contracts/VeriFlowMarketplace.sol\":3604:3657  usdfc.transferFrom(msg.sender, address(this), amount) */\n    tag_838:\n      dup1\n      swap7\n      dup2\n      swap6\n      dup3\n      swap5\n      tag_839\n        /* \"contracts/VeriFlowMarketplace.sol\":3604:3622  usdfc.transferFrom */\n      0x23b872dd\n        /* \"contracts/VeriFlowMarketplace.sol\":422:7873  contract VeriFlowMarketplace is Ownable, ReentrancyGuard {... */\n      0xe0\n      shl\n      swap1\n      jump\n        /* \"contracts/VeriFlowMarketplace.sol\":3604:3657  usdfc.transferFrom(msg.sender, address(this), amount) */\n    tag_839:\n      dup5\n      mstore\n        /* \"contracts/VeriFlowMarketplace.sol\":3623:3633  msg.sender */\n      caller\n        /* \"contracts/VeriFlowMarketplace.sol\":3604:3657  usdfc.transferFrom(msg.sender, address(this), amount) */\n      0x04\n      dup6\n      add\n      tag_198\n      jump\t// in\n    tag_835:\n      sub\n      swap3\n      gas\n      call\n      dup1\n      iszero\n      tag_840\n      jumpi\n      tag_842\n      jumpi\n        /* \"contracts/VeriFlowMarketplace.sol\":3445:3768  function stakeAsProvider(uint256 amount) external nonReentrant {... */\n    tag_843:\n        /* \"contracts/VeriFlowMarketplace.sol\":3623:3633  msg.sender */\n      pop\n        /* \"contracts/VeriFlowMarketplace.sol\":3667:3703  providerStakes[msg.sender] += amount */\n      tag_844\n        /* \"contracts/VeriFlowMarketplace.sol\":3667:3693  providerStakes[msg.sender] */\n      tag_845\n        /* \"contracts/VeriFlowMarketplace.sol\":3623:3633  msg.sender */\n      caller\n        /* \"contracts/VeriFlowMarketplace.sol\":3667:3681  providerStakes */\n      0x07\n        /* \"contracts/VeriFlowMarketplace.sol\":3667:3693  providerStakes[msg.sender] */\n      tag_21\n      jump\t// in\n    tag_845:\n        /* \"contracts/VeriFlowMarketplace.sol\":3667:3703  providerStakes[msg.sender] += amount */\n      tag_846\n      dup4\n      tag_847\n      dup4\n      tag_35\n      jump\t// in\n    tag_847:\n      tag_200\n      jump\t// in\n    tag_846:\n      swap1\n      tag_124\n      jump\t// in\n    tag_844:\n        /* \"contracts/VeriFlowMarketplace.sol\":3727:3761  ProviderStaked(msg.sender, amount) */\n      0xcd6dbb0e62eeb71e114bae8b2e2547921dd19209bebf32b595be3e7d247dbbb4\n      tag_848\n      tag_849\n        /* \"contracts/VeriFlowMarketplace.sol\":3623:3633  msg.sender */\n      caller\n        /* \"contracts/VeriFlowMarketplace.sol\":3727:3761  ProviderStaked(msg.sender, amount) */\n      tag_20\n      jump\t// in\n    tag_849:\n      swap3\n      tag_309\n        /* \"contracts/VeriFlowMarketplace.sol\":422:7873  contract VeriFlowMarketplace is Ownable, ReentrancyGuard {... */\n      mload(0x40)\n      swap1\n      jump\n        /* \"contracts/VeriFlowMarketplace.sol\":3727:3761  ProviderStaked(msg.sender, amount) */\n    tag_848:\n      sub\n      swap1\n      log2\n        /* \"contracts/VeriFlowMarketplace.sol\":3445:3768  function stakeAsProvider(uint256 amount) external nonReentrant {... */\n      jump\t// out\n        /* \"contracts/VeriFlowMarketplace.sol\":3604:3657  usdfc.transferFrom(msg.sender, address(this), amount) */\n    tag_842:\n      tag_851\n      swap1\n      0x20\n      jumpi(tag_852, gt(0x20, returndatasize))\n    tag_853:\n      tag_854\n      dup2\n      dup4\n      tag_46\n      jump\t// in\n    tag_854:\n      dup2\n      add\n      swap1\n      tag_197\n      jump\t// in\n    tag_851:\n      jump(tag_843)\n    tag_852:\n      pop\n      returndatasize\n      jump(tag_853)\n    tag_840:\n      tag_199\n      jump\t// in\n        /* \"contracts/VeriFlowMarketplace.sol\":3445:3768  function stakeAsProvider(uint256 amount) external nonReentrant {... */\n    tag_202:\n      tag_303\n      swap1\n      tag_189\n      jump\t// in\n        /* \"contracts/VeriFlowMarketplace.sol\":422:7873  contract VeriFlowMarketplace is Ownable, ReentrancyGuard {... */\n    tag_205:\n      0x20\n      dup1\n      dup3\n      mstore\n      0x12\n      swap1\n      dup3\n      add\n      mstore\n      0x496e76616c696420646174617365742049440000000000000000000000000000\n      0x40\n      dup3\n      add\n      mstore\n      0x60\n      add\n      swap1\n      jump\n    tag_206:\n      iszero\n      tag_859\n      jumpi\n      jump\t// out\n    tag_859:\n      mload(0x40)\n      shl(0xe5, 0x461bcd)\n      dup2\n      mstore\n      dup1\n      tag_583\n      0x04\n      dup3\n      add\n      tag_205\n      jump\t// in\n    tag_209:\n      0x20\n      dup1\n      dup3\n      mstore\n      0x12\n      swap1\n      dup3\n      add\n      mstore\n      0x44617461736574206e6f74206163746976650000000000000000000000000000\n      0x40\n      dup3\n      add\n      mstore\n      0x60\n      add\n      swap1\n      jump\n    tag_210:\n      iszero\n      tag_866\n      jumpi\n      jump\t// out\n    tag_866:\n      mload(0x40)\n      shl(0xe5, 0x461bcd)\n      dup2\n      mstore\n      dup1\n      tag_583\n      0x04\n      dup3\n      add\n      tag_209\n      jump\t// in\n        /* \"contracts/VeriFlowMarketplace.sol\":3116:3329  modifier validDataset(uint256 datasetId) {... */\n    tag_211:\n      swap1\n        /* \"contracts/VeriFlowMarketplace.sol\":3321:3322  _ */\n      tag_303\n        /* \"contracts/VeriFlowMarketplace.sol\":3116:3329  modifier validDataset(uint256 datasetId) {... */\n      swap2\n        /* \"contracts/VeriFlowMarketplace.sol\":3175:3188  datasetId > 0 */\n      tag_871\n        /* \"contracts/VeriFlowMarketplace.sol\":3187:3188  0 */\n      0x00\n        /* \"contracts/VeriFlowMarketplace.sol\":3175:3188  datasetId > 0 */\n      tag_31\n      jump\t// in\n    tag_871:\n      dup2\n      gt\n        /* \"contracts/VeriFlowMarketplace.sol\":3175:3219  datasetId > 0 && datasetId <= datasetCounter */\n      dup1\n      tag_873\n      jumpi\n        /* \"contracts/VeriFlowMarketplace.sol\":3116:3329  modifier validDataset(uint256 datasetId) {... */\n    tag_874:\n        /* \"contracts/VeriFlowMarketplace.sol\":3167:3242  require(datasetId > 0 && datasetId <= datasetCounter, \"Invalid dataset ID\") */\n      tag_875\n      swap1\n      tag_206\n      jump\t// in\n    tag_875:\n        /* \"contracts/VeriFlowMarketplace.sol\":3252:3311  require(datasets[datasetId].isActive, \"Dataset not active\") */\n      tag_876\n        /* \"contracts/VeriFlowMarketplace.sol\":3260:3288  datasets[datasetId].isActive */\n      tag_877\n      0x04\n        /* \"contracts/VeriFlowMarketplace.sol\":3260:3279  datasets[datasetId] */\n      tag_878\n      dup5\n        /* \"contracts/VeriFlowMarketplace.sol\":3260:3268  datasets */\n      0x05\n        /* \"contracts/VeriFlowMarketplace.sol\":3260:3279  datasets[datasetId] */\n      tag_32\n      jump\t// in\n    tag_878:\n        /* \"contracts/VeriFlowMarketplace.sol\":3260:3288  datasets[datasetId].isActive */\n      add\n      tag_54\n      jump\t// in\n    tag_877:\n        /* \"contracts/VeriFlowMarketplace.sol\":3252:3311  require(datasets[datasetId].isActive, \"Dataset not active\") */\n      tag_210\n      jump\t// in\n    tag_876:\n        /* \"contracts/VeriFlowMarketplace.sol\":3321:3322  _ */\n      tag_212\n      jump\t// in\n        /* \"contracts/VeriFlowMarketplace.sol\":3175:3219  datasetId > 0 && datasetId <= datasetCounter */\n    tag_873:\n        /* \"contracts/VeriFlowMarketplace.sol\":3205:3219  datasetCounter */\n      pop\n        /* \"contracts/VeriFlowMarketplace.sol\":3167:3242  require(datasetId > 0 && datasetId <= datasetCounter, \"Invalid dataset ID\") */\n      tag_875\n        /* \"contracts/VeriFlowMarketplace.sol\":3192:3219  datasetId <= datasetCounter */\n      tag_879\n        /* \"contracts/VeriFlowMarketplace.sol\":3205:3219  datasetCounter */\n      tag_298\n      0x04\n      tag_35\n      jump\t// in\n        /* \"contracts/VeriFlowMarketplace.sol\":3192:3219  datasetId <= datasetCounter */\n    tag_879:\n      dup3\n      gt\n      iszero\n        /* \"contracts/VeriFlowMarketplace.sol\":3175:3219  datasetId > 0 && datasetId <= datasetCounter */\n      swap1\n      pop\n      jump(tag_874)\n        /* \"@openzeppelin/contracts/utils/ReentrancyGuard.sol\":2322:2425  modifier nonReentrant() {... */\n    tag_212:\n      swap1\n        /* \"@openzeppelin/contracts/utils/ReentrancyGuard.sol\":2387:2388  _ */\n      tag_806\n        /* \"@openzeppelin/contracts/utils/ReentrancyGuard.sol\":2322:2425  modifier nonReentrant() {... */\n      swap2\n      tag_883\n      tag_248\n      jump\t// in\n    tag_883:\n        /* \"@openzeppelin/contracts/utils/ReentrancyGuard.sol\":2387:2388  _ */\n      tag_226\n      jump\t// in\n        /* \"contracts/VeriFlowMarketplace.sol\":422:7873  contract VeriFlowMarketplace is Ownable, ReentrancyGuard {... */\n    tag_215:\n      0x20\n      dup1\n      dup3\n      mstore\n      0x13\n      swap1\n      dup3\n      add\n      mstore\n      0x496e76616c696420626174636820636f756e7400000000000000000000000000\n      0x40\n      dup3\n      add\n      mstore\n      0x60\n      add\n      swap1\n      jump\n    tag_216:\n      iszero\n      tag_888\n      jumpi\n      jump\t// out\n    tag_888:\n      mload(0x40)\n      shl(0xe5, 0x461bcd)\n      dup2\n      mstore\n      dup1\n      tag_583\n      0x04\n      dup3\n      add\n      tag_215\n      jump\t// in\n    tag_217:\n      dup2\n      dup2\n      mul\n      swap3\n      swap2\n      dup2\n      iszero\n      swap2\n      dup5\n      div\n      eq\n      or\n      iszero\n      tag_609\n      jumpi\n      jump\t// out\n    tag_219:\n      mstore(0x00, shl(0xe0, 0x4e487b71))\n      mstore(0x04, 0x12)\n      revert(0x00, 0x24)\n    tag_220:\n      dup2\n      iszero\n      tag_902\n      jumpi\n      div\n      swap1\n      jump\t// out\n    tag_902:\n      tag_219\n      jump\t// in\n    tag_221:\n      swap2\n      swap1\n      dup3\n      sub\n      swap2\n      dup3\n      gt\n      tag_609\n      jumpi\n      jump\t// out\n    tag_222:\n      swap1\n      0xff\n      swap1\n      jump(tag_611)\n    tag_223:\n      swap1\n      tag_909\n      tag_298\n      tag_614\n      swap3\n      tag_159\n      jump\t// in\n    tag_909:\n      dup3\n      sload\n      tag_222\n      jump\t// in\n    tag_224:\n      0x05\n      tag_912\n      0xa0\n      tag_303\n      swap5\n      tag_914\n      tag_694\n      0x00\n      dup4\n      add\n      tag_136\n      jump\t// in\n    tag_914:\n      tag_916\n      tag_917\n      0x20\n      dup4\n      add\n      tag_136\n      jump\t// in\n    tag_917:\n      0x01\n      dup8\n      add\n      tag_124\n      jump\t// in\n    tag_916:\n      tag_918\n      tag_919\n      0x40\n      dup4\n      add\n      tag_137\n      jump\t// in\n    tag_919:\n      0x02\n      dup8\n      add\n      tag_139\n      jump\t// in\n    tag_918:\n      tag_920\n      tag_700\n      0x60\n      dup4\n      add\n      tag_136\n      jump\t// in\n    tag_920:\n      tag_922\n      tag_923\n      0x80\n      dup4\n      add\n      tag_136\n      jump\t// in\n    tag_923:\n      0x04\n      dup8\n      add\n      tag_124\n      jump\t// in\n    tag_922:\n      add\n      tag_156\n      jump\t// in\n    tag_912:\n      swap2\n      add\n      tag_223\n      jump\t// in\n    tag_225:\n      swap1\n      tag_303\n      swap2\n      tag_224\n      jump\t// in\n        /* \"contracts/VeriFlowMarketplace.sol\":4897:6068  function purchaseData(... */\n    tag_226:\n        /* \"contracts/VeriFlowMarketplace.sol\":5057:5058  0 */\n      0x00\n        /* \"contracts/VeriFlowMarketplace.sol\":5036:5082  require(batchCount > 0, \"Invalid batch count\") */\n      tag_925\n        /* \"contracts/VeriFlowMarketplace.sol\":5044:5058  batchCount > 0 */\n      tag_926\n      dup3\n      tag_31\n      jump\t// in\n    tag_926:\n      dup5\n      gt\n        /* \"contracts/VeriFlowMarketplace.sol\":5036:5082  require(batchCount > 0, \"Invalid batch count\") */\n      tag_216\n      jump\t// in\n    tag_925:\n        /* \"contracts/VeriFlowMarketplace.sol\":5178:5212  dataset.pricePerBatch * batchCount */\n      tag_928\n        /* \"contracts/VeriFlowMarketplace.sol\":5101:5146  Dataset storage dataset = datasets[datasetId] */\n      tag_929\n        /* \"contracts/VeriFlowMarketplace.sol\":5127:5146  datasets[datasetId] */\n      tag_298\n      dup5\n        /* \"contracts/VeriFlowMarketplace.sol\":5127:5135  datasets */\n      0x05\n        /* \"contracts/VeriFlowMarketplace.sol\":5127:5146  datasets[datasetId] */\n      tag_32\n      jump\t// in\n        /* \"contracts/VeriFlowMarketplace.sol\":5101:5146  Dataset storage dataset = datasets[datasetId] */\n    tag_929:\n        /* \"contracts/VeriFlowMarketplace.sol\":5178:5199  dataset.pricePerBatch */\n      swap4\n      tag_931\n      0x03\n      dup7\n      add\n      tag_35\n      jump\t// in\n    tag_931:\n        /* \"contracts/VeriFlowMarketplace.sol\":5178:5212  dataset.pricePerBatch * batchCount */\n      tag_217\n      jump\t// in\n    tag_928:\n        /* \"contracts/VeriFlowMarketplace.sol\":5302:5317  platformFeeRate */\n      swap3\n        /* \"contracts/VeriFlowMarketplace.sol\":5287:5326  (totalAmount * platformFeeRate) / 10000 */\n      tag_932\n        /* \"contracts/VeriFlowMarketplace.sol\":5288:5317  totalAmount * platformFeeRate */\n      tag_933\n        /* \"contracts/VeriFlowMarketplace.sol\":5302:5317  platformFeeRate */\n      tag_934\n      0x09\n      tag_35\n      jump\t// in\n    tag_934:\n        /* \"contracts/VeriFlowMarketplace.sol\":5288:5317  totalAmount * platformFeeRate */\n      dup7\n      tag_217\n      jump\t// in\n    tag_933:\n        /* \"contracts/VeriFlowMarketplace.sol\":5287:5326  (totalAmount * platformFeeRate) / 10000 */\n      tag_935\n        /* \"contracts/VeriFlowMarketplace.sol\":5321:5326  10000 */\n      0x2710\n        /* \"contracts/VeriFlowMarketplace.sol\":5287:5326  (totalAmount * platformFeeRate) / 10000 */\n      tag_31\n      jump\t// in\n    tag_935:\n      swap1\n      tag_220\n      jump\t// in\n    tag_932:\n        /* \"contracts/VeriFlowMarketplace.sol\":5361:5386  totalAmount - platformFee */\n      swap1\n        /* \"contracts/VeriFlowMarketplace.sol\":5433:5486  usdfc.transferFrom(msg.sender, treasury, platformFee) */\n      tag_936\n        /* \"contracts/VeriFlowMarketplace.sol\":5361:5386  totalAmount - platformFee */\n      tag_937\n      dup4\n      dup8\n      tag_221\n      jump\t// in\n    tag_937:\n        /* \"contracts/VeriFlowMarketplace.sol\":5433:5438  usdfc */\n      swap3\n        /* \"contracts/VeriFlowMarketplace.sol\":5433:5451  usdfc.transferFrom */\n      tag_938\n        /* \"contracts/VeriFlowMarketplace.sol\":5433:5438  usdfc */\n      immutable(\"0xeaeba2e6d5db55ec0e36d29579da585b3cbc07168dc9c1795186a4d126c8f86b\")\n        /* \"contracts/VeriFlowMarketplace.sol\":5433:5451  usdfc.transferFrom */\n      tag_20\n      jump\t// in\n    tag_938:\n        /* \"contracts/VeriFlowMarketplace.sol\":5433:5486  usdfc.transferFrom(msg.sender, treasury, platformFee) */\n      0x20\n        /* \"contracts/VeriFlowMarketplace.sol\":5433:5451  usdfc.transferFrom */\n      0x23b872dd\n        /* \"contracts/VeriFlowMarketplace.sol\":5464:5472  treasury */\n      swap3\n      tag_939\n      0x02\n      tag_37\n      jump\t// in\n    tag_939:\n        /* \"contracts/VeriFlowMarketplace.sol\":422:7873  contract VeriFlowMarketplace is Ownable, ReentrancyGuard {... */\n      mload(0x40)\n        /* \"contracts/VeriFlowMarketplace.sol\":5433:5486  usdfc.transferFrom(msg.sender, treasury, platformFee) */\n      swap6\n      dup7\n      swap3\n      dup4\n      swap3\n      tag_839\n      dup9\n        /* \"contracts/VeriFlowMarketplace.sol\":422:7873  contract VeriFlowMarketplace is Ownable, ReentrancyGuard {... */\n      0xe0\n      shl\n      swap1\n      jump\n        /* \"contracts/VeriFlowMarketplace.sol\":5433:5486  usdfc.transferFrom(msg.sender, treasury, platformFee) */\n    tag_936:\n      sub\n      dup2\n      dup10\n      dup6\n      gas\n      call\n      swap3\n      dup4\n      iszero\n      tag_840\n      jumpi\n        /* \"contracts/VeriFlowMarketplace.sol\":5496:5560  usdfc.transferFrom(msg.sender, dataset.provider, providerAmount) */\n      0x20\n        /* \"contracts/VeriFlowMarketplace.sol\":5433:5486  usdfc.transferFrom(msg.sender, treasury, platformFee) */\n      swap4\n      tag_944\n      jumpi\n        /* \"contracts/VeriFlowMarketplace.sol\":4897:6068  function purchaseData(... */\n    tag_945:\n        /* \"contracts/VeriFlowMarketplace.sol\":5527:5543  dataset.provider */\n      pop\n        /* \"contracts/VeriFlowMarketplace.sol\":5496:5560  usdfc.transferFrom(msg.sender, dataset.provider, providerAmount) */\n      tag_839\n        /* \"contracts/VeriFlowMarketplace.sol\":5527:5543  dataset.provider */\n      dup7\n      tag_947\n      0x01\n      dup8\n      add\n      tag_37\n      jump\t// in\n    tag_947:\n        /* \"contracts/VeriFlowMarketplace.sol\":5496:5560  usdfc.transferFrom(msg.sender, dataset.provider, providerAmount) */\n      swap4\n      tag_948\n      tag_949\n        /* \"contracts/VeriFlowMarketplace.sol\":422:7873  contract VeriFlowMarketplace is Ownable, ReentrancyGuard {... */\n      mload(0x40)\n      swap1\n      jump\n        /* \"contracts/VeriFlowMarketplace.sol\":5496:5560  usdfc.transferFrom(msg.sender, dataset.provider, providerAmount) */\n    tag_949:\n      swap9\n      dup10\n      swap7\n      dup8\n      swap6\n      dup7\n      swap5\n        /* \"contracts/VeriFlowMarketplace.sol\":422:7873  contract VeriFlowMarketplace is Ownable, ReentrancyGuard {... */\n      0xe0\n      shl\n      swap1\n      jump\n        /* \"contracts/VeriFlowMarketplace.sol\":5496:5560  usdfc.transferFrom(msg.sender, dataset.provider, providerAmount) */\n    tag_948:\n      sub\n      swap3\n      gas\n      call\n      dup1\n      iszero\n      tag_840\n      jumpi\n        /* \"contracts/VeriFlowMarketplace.sol\":5935:5968  dataset.totalSales += totalAmount */\n      tag_953\n      swap4\n        /* \"contracts/VeriFlowMarketplace.sol\":5127:5135  datasets */\n      0x05\n      swap4\n        /* \"contracts/VeriFlowMarketplace.sol\":5633:5884  purchases[purchaseCounter] = Purchase({... */\n      tag_952\n      swap3\n        /* \"contracts/VeriFlowMarketplace.sol\":5496:5560  usdfc.transferFrom(msg.sender, dataset.provider, providerAmount) */\n      tag_954\n      jumpi\n        /* \"contracts/VeriFlowMarketplace.sol\":4897:6068  function purchaseData(... */\n    tag_955:\n        /* \"contracts/VeriFlowMarketplace.sol\":5606:5623  purchaseCounter++ */\n      pop\n      tag_956\n      tag_957\n      tag_722\n      0x08\n      tag_35\n      jump\t// in\n    tag_957:\n      0x08\n      tag_124\n      jump\t// in\n    tag_956:\n        /* \"contracts/VeriFlowMarketplace.sol\":5662:5884  Purchase({... */\n      tag_959\n        /* \"contracts/VeriFlowMarketplace.sol\":5689:5704  purchaseCounter */\n      tag_960\n      0x08\n      tag_35\n      jump\t// in\n    tag_960:\n        /* \"contracts/VeriFlowMarketplace.sol\":5662:5884  Purchase({... */\n      swap2\n      tag_961\n      tag_962\n      tag_165\n      jump\t// in\n    tag_962:\n      swap4\n      dup3\n      dup6\n      add\n        /* \"contracts/VeriFlowMarketplace.sol\":422:7873  contract VeriFlowMarketplace is Ownable, ReentrancyGuard {... */\n      mstore\n      jump\n        /* \"contracts/VeriFlowMarketplace.sol\":5662:5884  Purchase({... */\n    tag_961:\n      tag_963\n      dup9\n      0x20\n      dup6\n      add\n        /* \"contracts/VeriFlowMarketplace.sol\":422:7873  contract VeriFlowMarketplace is Ownable, ReentrancyGuard {... */\n      mstore\n      jump\n        /* \"contracts/VeriFlowMarketplace.sol\":5662:5884  Purchase({... */\n    tag_963:\n      tag_964\n        /* \"contracts/VeriFlowMarketplace.sol\":5452:5462  msg.sender */\n      caller\n        /* \"contracts/VeriFlowMarketplace.sol\":5662:5884  Purchase({... */\n      0x40\n      dup6\n      add\n      tag_128\n      jump\t// in\n    tag_964:\n      tag_965\n      dup10\n      0x60\n      dup6\n      add\n        /* \"contracts/VeriFlowMarketplace.sol\":422:7873  contract VeriFlowMarketplace is Ownable, ReentrancyGuard {... */\n      mstore\n      jump\n        /* \"contracts/VeriFlowMarketplace.sol\":5662:5884  Purchase({... */\n    tag_965:\n      tag_405\n        /* \"contracts/VeriFlowMarketplace.sol\":5827:5842  block.timestamp */\n      timestamp\n        /* \"contracts/VeriFlowMarketplace.sol\":5662:5884  Purchase({... */\n      0x80\n      dup6\n      add\n        /* \"contracts/VeriFlowMarketplace.sol\":422:7873  contract VeriFlowMarketplace is Ownable, ReentrancyGuard {... */\n      mstore\n      jump\n        /* \"contracts/VeriFlowMarketplace.sol\":5662:5884  Purchase({... */\n    tag_959:\n        /* \"contracts/VeriFlowMarketplace.sol\":5633:5659  purchases[purchaseCounter] */\n      tag_967\n        /* \"contracts/VeriFlowMarketplace.sol\":5643:5658  purchaseCounter */\n      tag_774\n      0x08\n      tag_35\n      jump\t// in\n        /* \"contracts/VeriFlowMarketplace.sol\":5633:5659  purchases[purchaseCounter] */\n    tag_967:\n        /* \"contracts/VeriFlowMarketplace.sol\":5633:5884  purchases[purchaseCounter] = Purchase({... */\n      tag_225\n      jump\t// in\n    tag_952:\n        /* \"contracts/VeriFlowMarketplace.sol\":5935:5953  dataset.totalSales */\n      add\n        /* \"contracts/VeriFlowMarketplace.sol\":5935:5968  dataset.totalSales += totalAmount */\n      tag_846\n      dup5\n      tag_847\n      dup4\n      tag_35\n      jump\t// in\n    tag_953:\n        /* \"contracts/VeriFlowMarketplace.sol\":5992:6061  DatasetPurchased(purchaseCounter, datasetId, msg.sender, totalAmount) */\n      tag_971\n      tag_972\n        /* \"contracts/VeriFlowMarketplace.sol\":6009:6024  purchaseCounter */\n      tag_728\n      0x08\n      tag_35\n      jump\t// in\n        /* \"contracts/VeriFlowMarketplace.sol\":5992:6061  DatasetPurchased(purchaseCounter, datasetId, msg.sender, totalAmount) */\n    tag_972:\n      swap2\n      tag_31\n      jump\t// in\n    tag_971:\n        /* \"contracts/VeriFlowMarketplace.sol\":5452:5462  msg.sender */\n      swap1\n        /* \"contracts/VeriFlowMarketplace.sol\":5992:6061  DatasetPurchased(purchaseCounter, datasetId, msg.sender, totalAmount) */\n      0xe23a9f2b581d4c09f7762bf67538c16587cdbba4484a10cf60ea9140a5feafd2\n      tag_974\n      tag_975\n        /* \"contracts/VeriFlowMarketplace.sol\":5452:5462  msg.sender */\n      caller\n        /* \"contracts/VeriFlowMarketplace.sol\":5992:6061  DatasetPurchased(purchaseCounter, datasetId, msg.sender, totalAmount) */\n      tag_20\n      jump\t// in\n    tag_975:\n      swap5\n      tag_309\n        /* \"contracts/VeriFlowMarketplace.sol\":422:7873  contract VeriFlowMarketplace is Ownable, ReentrancyGuard {... */\n      mload(0x40)\n      swap1\n      jump\n        /* \"contracts/VeriFlowMarketplace.sol\":5992:6061  DatasetPurchased(purchaseCounter, datasetId, msg.sender, totalAmount) */\n    tag_974:\n      sub\n      swap1\n      log4\n        /* \"contracts/VeriFlowMarketplace.sol\":4897:6068  function purchaseData(... */\n      jump\t// out\n        /* \"contracts/VeriFlowMarketplace.sol\":5496:5560  usdfc.transferFrom(msg.sender, dataset.provider, providerAmount) */\n    tag_954:\n      tag_977\n      swap1\n      0x20\n      jumpi(tag_852, gt(0x20, returndatasize))\n      tag_854\n      dup2\n      dup4\n      tag_46\n      jump\t// in\n    tag_977:\n      jump(tag_955)\n        /* \"contracts/VeriFlowMarketplace.sol\":5433:5486  usdfc.transferFrom(msg.sender, treasury, platformFee) */\n    tag_944:\n      tag_981\n      swap1\n      dup5\n      returndatasize\n      dup7\n      gt\n      tag_852\n      jumpi\n      tag_854\n      dup2\n      dup4\n      tag_46\n      jump\t// in\n    tag_981:\n      jump(tag_945)\n        /* \"contracts/VeriFlowMarketplace.sol\":4897:6068  function purchaseData(... */\n    tag_227:\n      swap1\n      tag_303\n      swap2\n      tag_211\n      jump\t// in\n        /* \"@openzeppelin/contracts/access/Ownable.sol\":1500:1562  modifier onlyOwner() {... */\n    tag_228:\n        /* \"@openzeppelin/contracts/access/Ownable.sol\":1554:1555  _ */\n      tag_303\n        /* \"@openzeppelin/contracts/access/Ownable.sol\":1500:1562  modifier onlyOwner() {... */\n      swap1\n      tag_987\n      tag_244\n      jump\t// in\n    tag_987:\n        /* \"contracts/VeriFlowMarketplace.sol\":7828:7864  providerStakeAmount = newStakeAmount */\n      tag_303\n        /* \"contracts/VeriFlowMarketplace.sol\":7740:7871  function updateProviderStakeAmount(uint256 newStakeAmount) external onlyOwner {... */\n      swap1\n        /* \"contracts/VeriFlowMarketplace.sol\":7828:7864  providerStakeAmount = newStakeAmount */\n      0x03\n      tag_124\n      jump\t// in\n        /* \"contracts/VeriFlowMarketplace.sol\":7740:7871  function updateProviderStakeAmount(uint256 newStakeAmount) external onlyOwner {... */\n    tag_230:\n      tag_303\n      swap1\n      tag_228\n      jump\t// in\n        /* \"contracts/VeriFlowMarketplace.sol\":422:7873  contract VeriFlowMarketplace is Ownable, ReentrancyGuard {... */\n    tag_232:\n      tag_990\n      tag_126\n      jump\t// in\n    tag_990:\n      swap1\n      0x00\n      dup3\n      mstore\n      0x20\n      dup1\n      dup1\n      dup1\n      dup1\n      dup1\n      dup1\n      dup9\n      add\n      0x00\n      dup2\n      mstore\n      add\n      0x60\n      jump(tag_740)\n    tag_233:\n      tag_298\n      tag_232\n      jump\t// in\n    tag_234:\n      swap1\n      tag_303\n      tag_1000\n      0x05\n      tag_1001\n      tag_126\n      jump\t// in\n    tag_1001:\n      swap5\n      tag_1002\n      tag_757\n      dup3\n      tag_35\n      jump\t// in\n    tag_1002:\n      tag_1004\n      tag_1005\n      0x01\n      dup4\n      add\n      tag_37\n      jump\t// in\n    tag_1005:\n      0x20\n      dup9\n      add\n      tag_128\n      jump\t// in\n    tag_1004:\n      tag_1006\n      tag_711\n      0x02\n      dup4\n      add\n      tag_47\n      jump\t// in\n    tag_1006:\n      tag_1008\n      tag_763\n      0x03\n      dup4\n      add\n      tag_35\n      jump\t// in\n    tag_1008:\n      tag_1010\n      tag_1011\n      0x04\n      dup4\n      add\n      tag_50\n      jump\t// in\n    tag_1011:\n      0xffffffffffffffff\n      and\n      0x80\n      dup9\n      add\n      mstore\n      jump\n    tag_1010:\n      tag_1012\n      tag_1013\n      0x04\n      dup4\n      add\n      tag_54\n      jump\t// in\n    tag_1013:\n      iszero\n      iszero\n      0xa0\n      dup9\n      add\n      mstore\n      jump\n    tag_1012:\n      add\n      tag_35\n      jump\t// in\n    tag_1000:\n      0xc0\n      dup5\n      add\n      mstore\n      jump\n    tag_235:\n      tag_298\n      swap1\n      tag_234\n      jump\t// in\n        /* \"contracts/VeriFlowMarketplace.sol\":6203:6409  function getDataset(uint256 datasetId) external view returns (Dataset memory) {... */\n    tag_236:\n        /* \"contracts/VeriFlowMarketplace.sol\":6383:6402  datasets[datasetId] */\n      tag_1015\n        /* \"contracts/VeriFlowMarketplace.sol\":6376:6402  return datasets[datasetId] */\n      tag_298\n        /* \"contracts/VeriFlowMarketplace.sol\":6203:6409  function getDataset(uint256 datasetId) external view returns (Dataset memory) {... */\n      swap2\n        /* \"contracts/VeriFlowMarketplace.sol\":6265:6279  Dataset memory */\n      tag_1017\n      tag_233\n      jump\t// in\n    tag_1017:\n        /* \"contracts/VeriFlowMarketplace.sol\":6299:6312  datasetId > 0 */\n      pop\n      tag_1018\n        /* \"contracts/VeriFlowMarketplace.sol\":6311:6312  0 */\n      0x00\n        /* \"contracts/VeriFlowMarketplace.sol\":6299:6312  datasetId > 0 */\n      tag_31\n      jump\t// in\n    tag_1018:\n      dup2\n      gt\n        /* \"contracts/VeriFlowMarketplace.sol\":6299:6343  datasetId > 0 && datasetId <= datasetCounter */\n      dup1\n      tag_1020\n      jumpi\n        /* \"contracts/VeriFlowMarketplace.sol\":6203:6409  function getDataset(uint256 datasetId) external view returns (Dataset memory) {... */\n    tag_1021:\n        /* \"contracts/VeriFlowMarketplace.sol\":6291:6366  require(datasetId > 0 && datasetId <= datasetCounter, \"Invalid dataset ID\") */\n      tag_730\n      swap1\n      tag_206\n      jump\t// in\n        /* \"contracts/VeriFlowMarketplace.sol\":6383:6402  datasets[datasetId] */\n    tag_1015:\n        /* \"contracts/VeriFlowMarketplace.sol\":6376:6402  return datasets[datasetId] */\n      tag_235\n      jump\t// in\n        /* \"contracts/VeriFlowMarketplace.sol\":6299:6343  datasetId > 0 && datasetId <= datasetCounter */\n    tag_1020:\n        /* \"contracts/VeriFlowMarketplace.sol\":6329:6343  datasetCounter */\n      pop\n        /* \"contracts/VeriFlowMarketplace.sol\":6291:6366  require(datasetId > 0 && datasetId <= datasetCounter, \"Invalid dataset ID\") */\n      tag_730\n        /* \"contracts/VeriFlowMarketplace.sol\":6316:6343  datasetId <= datasetCounter */\n      tag_1023\n        /* \"contracts/VeriFlowMarketplace.sol\":6329:6343  datasetCounter */\n      tag_298\n      0x04\n      tag_35\n      jump\t// in\n        /* \"contracts/VeriFlowMarketplace.sol\":6316:6343  datasetId <= datasetCounter */\n    tag_1023:\n      dup3\n      gt\n      iszero\n        /* \"contracts/VeriFlowMarketplace.sol\":6299:6343  datasetId > 0 && datasetId <= datasetCounter */\n      swap1\n      pop\n      jump(tag_1021)\n        /* \"contracts/VeriFlowMarketplace.sol\":3116:3329  modifier validDataset(uint256 datasetId) {... */\n    tag_237:\n      swap1\n        /* \"contracts/VeriFlowMarketplace.sol\":3321:3322  _ */\n      tag_1026\n        /* \"contracts/VeriFlowMarketplace.sol\":3116:3329  modifier validDataset(uint256 datasetId) {... */\n      swap3\n      swap2\n        /* \"contracts/VeriFlowMarketplace.sol\":3175:3188  datasetId > 0 */\n      tag_1027\n        /* \"contracts/VeriFlowMarketplace.sol\":3187:3188  0 */\n      0x00\n        /* \"contracts/VeriFlowMarketplace.sol\":3175:3188  datasetId > 0 */\n      tag_31\n      jump\t// in\n    tag_1027:\n      dup4\n      gt\n        /* \"contracts/VeriFlowMarketplace.sol\":3175:3219  datasetId > 0 && datasetId <= datasetCounter */\n      dup1\n      tag_1029\n      jumpi\n        /* \"contracts/VeriFlowMarketplace.sol\":3116:3329  modifier validDataset(uint256 datasetId) {... */\n    tag_1030:\n        /* \"contracts/VeriFlowMarketplace.sol\":3167:3242  require(datasetId > 0 && datasetId <= datasetCounter, \"Invalid dataset ID\") */\n      tag_1031\n      swap1\n      tag_206\n      jump\t// in\n    tag_1031:\n        /* \"contracts/VeriFlowMarketplace.sol\":3252:3311  require(datasets[datasetId].isActive, \"Dataset not active\") */\n      tag_1032\n        /* \"contracts/VeriFlowMarketplace.sol\":3260:3288  datasets[datasetId].isActive */\n      tag_877\n      0x04\n        /* \"contracts/VeriFlowMarketplace.sol\":3260:3279  datasets[datasetId] */\n      tag_878\n      dup7\n        /* \"contracts/VeriFlowMarketplace.sol\":3260:3268  datasets */\n      0x05\n        /* \"contracts/VeriFlowMarketplace.sol\":3260:3279  datasets[datasetId] */\n      tag_32\n      jump\t// in\n        /* \"contracts/VeriFlowMarketplace.sol\":3252:3311  require(datasets[datasetId].isActive, \"Dataset not active\") */\n    tag_1032:\n        /* \"contracts/VeriFlowMarketplace.sol\":3321:3322  _ */\n      tag_239\n      jump\t// in\n    tag_1026:\n        /* \"contracts/VeriFlowMarketplace.sol\":3116:3329  modifier validDataset(uint256 datasetId) {... */\n      swap1\n      swap2\n      jump\t// out\n        /* \"contracts/VeriFlowMarketplace.sol\":3175:3219  datasetId > 0 && datasetId <= datasetCounter */\n    tag_1029:\n        /* \"contracts/VeriFlowMarketplace.sol\":3205:3219  datasetCounter */\n      pop\n        /* \"contracts/VeriFlowMarketplace.sol\":3167:3242  require(datasetId > 0 && datasetId <= datasetCounter, \"Invalid dataset ID\") */\n      tag_1031\n        /* \"contracts/VeriFlowMarketplace.sol\":3192:3219  datasetId <= datasetCounter */\n      tag_1035\n        /* \"contracts/VeriFlowMarketplace.sol\":3205:3219  datasetCounter */\n      tag_298\n      0x04\n      tag_35\n      jump\t// in\n        /* \"contracts/VeriFlowMarketplace.sol\":3192:3219  datasetId <= datasetCounter */\n    tag_1035:\n      dup5\n      gt\n      iszero\n        /* \"contracts/VeriFlowMarketplace.sol\":3175:3219  datasetId > 0 && datasetId <= datasetCounter */\n      swap1\n      pop\n      jump(tag_1030)\n        /* \"contracts/VeriFlowMarketplace.sol\":422:7873  contract VeriFlowMarketplace is Ownable, ReentrancyGuard {... */\n    tag_238:\n      tag_378\n      tag_298\n      tag_298\n      swap3\n      swap1\n      jump\n        /* \"contracts/VeriFlowMarketplace.sol\":7025:7281  function isDatasetDealActive(uint256 datasetId) ... */\n    tag_239:\n        /* \"contracts/VeriFlowMarketplace.sol\":7209:7243  datasets[datasetId].filecoinDealId */\n      tag_1041\n        /* \"contracts/VeriFlowMarketplace.sol\":7025:7281  function isDatasetDealActive(uint256 datasetId) ... */\n      swap3\n        /* \"contracts/VeriFlowMarketplace.sol\":7209:7243  datasets[datasetId].filecoinDealId */\n      0x04\n        /* \"contracts/VeriFlowMarketplace.sol\":7025:7281  function isDatasetDealActive(uint256 datasetId) ... */\n      swap3\n        /* \"contracts/VeriFlowMarketplace.sol\":7209:7228  datasets[datasetId] */\n      tag_1042\n        /* \"contracts/VeriFlowMarketplace.sol\":7025:7281  function isDatasetDealActive(uint256 datasetId) ... */\n      swap3\n      pop\n        /* \"contracts/VeriFlowMarketplace.sol\":7209:7228  datasets[datasetId] */\n      pop\n        /* \"contracts/VeriFlowMarketplace.sol\":7209:7217  datasets */\n      0x05\n        /* \"contracts/VeriFlowMarketplace.sol\":7209:7228  datasets[datasetId] */\n      tag_32\n      jump\t// in\n    tag_1042:\n        /* \"contracts/VeriFlowMarketplace.sol\":7209:7243  datasets[datasetId].filecoinDealId */\n      add\n      tag_50\n      jump\t// in\n    tag_1041:\n        /* \"contracts/VeriFlowMarketplace.sol\":7200:7243  dealId = datasets[datasetId].filecoinDealId */\n      dup1\n        /* \"contracts/VeriFlowMarketplace.sol\":7264:7274  dealId > 0 */\n      tag_1043\n      tag_1044\n        /* \"contracts/VeriFlowMarketplace.sol\":7273:7274  0 */\n      0x00\n        /* \"contracts/VeriFlowMarketplace.sol\":7264:7274  dealId > 0 */\n      tag_238\n      jump\t// in\n    tag_1044:\n      swap2\n        /* \"contracts/VeriFlowMarketplace.sol\":422:7873  contract VeriFlowMarketplace is Ownable, ReentrancyGuard {... */\n      0xffffffffffffffff\n      and\n      swap1\n      jump\n        /* \"contracts/VeriFlowMarketplace.sol\":7264:7274  dealId > 0 */\n    tag_1043:\n      gt\n        /* \"contracts/VeriFlowMarketplace.sol\":7025:7281  function isDatasetDealActive(uint256 datasetId) ... */\n      swap2\n      jump\t// out\n    tag_240:\n        /* \"contracts/VeriFlowMarketplace.sol\":7170:7183  uint64 dealId */\n      tag_1026\n      swap1\n        /* \"contracts/VeriFlowMarketplace.sol\":422:7873  contract VeriFlowMarketplace is Ownable, ReentrancyGuard {... */\n      0x00\n        /* \"contracts/VeriFlowMarketplace.sol\":7170:7183  uint64 dealId */\n      dup1\n      tag_237\n      jump\t// in\n        /* \"@openzeppelin/contracts/access/Ownable.sol\":1500:1562  modifier onlyOwner() {... */\n    tag_241:\n        /* \"@openzeppelin/contracts/access/Ownable.sol\":1554:1555  _ */\n      tag_303\n        /* \"@openzeppelin/contracts/access/Ownable.sol\":1500:1562  modifier onlyOwner() {... */\n      swap1\n      tag_1048\n      tag_244\n      jump\t// in\n    tag_1048:\n        /* \"@openzeppelin/contracts/access/Ownable.sol\":2639:2649  address(0) */\n      tag_1049\n        /* \"@openzeppelin/contracts/access/Ownable.sol\":2647:2648  0 */\n      0x00\n        /* \"@openzeppelin/contracts/access/Ownable.sol\":2639:2649  address(0) */\n      tag_177\n      jump\t// in\n    tag_1049:\n        /* \"@openzeppelin/contracts/access/Ownable.sol\":2627:2649  newOwner == address(0) */\n      tag_1050\n      dup2\n      tag_14\n      jump\t// in\n    tag_1050:\n      tag_1051\n      dup4\n      tag_14\n      jump\t// in\n    tag_1051:\n      eq\n        /* \"@openzeppelin/contracts/access/Ownable.sol\":2623:2714  if (newOwner == address(0)) {... */\n      tag_1052\n      jumpi\n        /* \"@openzeppelin/contracts/access/Ownable.sol\":2742:2750  newOwner */\n      pop\n      tag_303\n      swap1\n      tag_245\n      jump\t// in\n        /* \"@openzeppelin/contracts/access/Ownable.sol\":2623:2714  if (newOwner == address(0)) {... */\n    tag_1052:\n        /* \"@openzeppelin/contracts/access/Ownable.sol\":2672:2703  OwnableInvalidOwner(address(0)) */\n      tag_583\n      swap1\n      tag_1056\n        /* \"contracts/VeriFlowMarketplace.sol\":422:7873  contract VeriFlowMarketplace is Ownable, ReentrancyGuard {... */\n      mload(0x40)\n      swap1\n      jump\n        /* \"@openzeppelin/contracts/access/Ownable.sol\":2672:2703  OwnableInvalidOwner(address(0)) */\n    tag_1056:\n      swap2\n      dup3\n      swap2\n      0x1e4fbdf700000000000000000000000000000000000000000000000000000000\n      dup4\n      mstore\n      0x04\n      dup4\n      add\n      tag_77\n      jump\t// in\n        /* \"@openzeppelin/contracts/access/Ownable.sol\":2543:2758  function transferOwnership(address newOwner) public virtual onlyOwner {... */\n    tag_243:\n      tag_303\n      swap1\n      tag_241\n      jump\t// in\n        /* \"@openzeppelin/contracts/access/Ownable.sol\":1796:1958  function _checkOwner() internal view virtual {... */\n    tag_244:\n        /* \"@openzeppelin/contracts/access/Ownable.sol\":1855:1862  owner() */\n      tag_1058\n      tag_180\n      jump\t// in\n    tag_1058:\n        /* \"@openzeppelin/contracts/utils/Context.sol\":735:745  msg.sender */\n      caller\n        /* \"@openzeppelin/contracts/access/Ownable.sol\":1855:1878  owner() != _msgSender() */\n      swap1\n      tag_1060\n      tag_1061\n      dup4\n      tag_14\n      jump\t// in\n    tag_1061:\n      swap2\n      tag_14\n      jump\t// in\n    tag_1060:\n      sub\n        /* \"@openzeppelin/contracts/access/Ownable.sol\":1851:1952  if (owner() != _msgSender()) {... */\n      tag_1062\n      jumpi\n        /* \"@openzeppelin/contracts/access/Ownable.sol\":1796:1958  function _checkOwner() internal view virtual {... */\n      pop\n      jump\t// out\n        /* \"@openzeppelin/contracts/access/Ownable.sol\":1851:1952  if (owner() != _msgSender()) {... */\n    tag_1062:\n        /* \"@openzeppelin/contracts/access/Ownable.sol\":1901:1941  OwnableUnauthorizedAccount(_msgSender()) */\n      tag_583\n      swap1\n      tag_1065\n        /* \"contracts/VeriFlowMarketplace.sol\":422:7873  contract VeriFlowMarketplace is Ownable, ReentrancyGuard {... */\n      mload(0x40)\n      swap1\n      jump\n        /* \"@openzeppelin/contracts/access/Ownable.sol\":1901:1941  OwnableUnauthorizedAccount(_msgSender()) */\n    tag_1065:\n      swap2\n      dup3\n      swap2\n      0x118cdaa700000000000000000000000000000000000000000000000000000000\n      dup4\n      mstore\n      0x04\n      dup4\n      add\n      tag_77\n      jump\t// in\n        /* \"@openzeppelin/contracts/access/Ownable.sol\":2912:3099  function _transferOwnership(address newOwner) internal virtual {... */\n    tag_245:\n        /* \"@openzeppelin/contracts/access/Ownable.sol\":3052:3092  OwnershipTransferred(oldOwner, newOwner) */\n      tag_1066\n      tag_1067\n        /* \"@openzeppelin/contracts/access/Ownable.sol\":3004:3010  _owner */\n      tag_1068\n      0x00\n      tag_37\n      jump\t// in\n    tag_1068:\n        /* \"@openzeppelin/contracts/access/Ownable.sol\":3020:3037  _owner = newOwner */\n      tag_1069\n      dup5\n      0x00\n      tag_139\n      jump\t// in\n    tag_1069:\n        /* \"@openzeppelin/contracts/access/Ownable.sol\":3052:3092  OwnershipTransferred(oldOwner, newOwner) */\n      tag_20\n      jump\t// in\n    tag_1067:\n      swap2\n      tag_20\n      jump\t// in\n    tag_1066:\n      swap1\n      0x8be0079c531659141344cd1fd0a4f28419497f9722a3daafe3b4186f6b6457e0\n      tag_1070\n        /* \"contracts/VeriFlowMarketplace.sol\":422:7873  contract VeriFlowMarketplace is Ownable, ReentrancyGuard {... */\n      mload(0x40)\n      swap1\n      jump\n        /* \"@openzeppelin/contracts/access/Ownable.sol\":3052:3092  OwnershipTransferred(oldOwner, newOwner) */\n    tag_1070:\n      dup1\n      dup1\n      tag_733\n        /* \"contracts/VeriFlowMarketplace.sol\":422:7873  contract VeriFlowMarketplace is Ownable, ReentrancyGuard {... */\n      jump\n        /* \"@openzeppelin/contracts/utils/ReentrancyGuard.sol\":1720:1756  uint256 private constant ENTERED = 2 */\n    tag_247:\n        /* \"@openzeppelin/contracts/utils/ReentrancyGuard.sol\":1755:1756  2 */\n      tag_298\n      0x02\n      tag_31\n      jump\t// in\n        /* \"@openzeppelin/contracts/utils/ReentrancyGuard.sol\":2431:2738  function _nonReentrantBefore() private {... */\n    tag_248:\n        /* \"@openzeppelin/contracts/utils/ReentrancyGuard.sol\":2558:2565  _status */\n      tag_1076\n      0x01\n      tag_35\n      jump\t// in\n    tag_1076:\n        /* \"@openzeppelin/contracts/utils/ReentrancyGuard.sol\":2569:2576  ENTERED */\n      tag_1077\n      tag_247\n      jump\t// in\n    tag_1077:\n        /* \"@openzeppelin/contracts/utils/ReentrancyGuard.sol\":2558:2576  _status == ENTERED */\n      swap1\n      dup2\n      eq\n        /* \"@openzeppelin/contracts/utils/ReentrancyGuard.sol\":2554:2640  if (_status == ENTERED) {... */\n      tag_1080\n      jumpi\n        /* \"@openzeppelin/contracts/utils/ReentrancyGuard.sol\":2714:2731  _status = ENTERED */\n      tag_303\n      swap1\n      0x01\n      tag_124\n      jump\t// in\n        /* \"@openzeppelin/contracts/utils/ReentrancyGuard.sol\":2554:2640  if (_status == ENTERED) {... */\n    tag_1080:\n        /* \"contracts/VeriFlowMarketplace.sol\":422:7873  contract VeriFlowMarketplace is Ownable, ReentrancyGuard {... */\n      mload(0x40)\n        /* \"@openzeppelin/contracts/utils/ReentrancyGuard.sol\":2599:2629  ReentrancyGuardReentrantCall() */\n      0x3ee5aeb500000000000000000000000000000000000000000000000000000000\n      dup2\n      mstore\n      0x04\n      swap1\n        /* \"contracts/VeriFlowMarketplace.sol\":422:7873  contract VeriFlowMarketplace is Ownable, ReentrancyGuard {... */\n      revert\n        /* \"@openzeppelin/contracts/utils/ReentrancyGuard.sol\":1674:1714  uint256 private constant NOT_ENTERED = 1 */\n    tag_250:\n        /* \"@openzeppelin/contracts/utils/ReentrancyGuard.sol\":1713:1714  1 */\n      tag_298\n      0x01\n      tag_31\n      jump\t// in\n        /* \"@openzeppelin/contracts/utils/ReentrancyGuard.sol\":2744:2952  function _nonReentrantAfter() private {... */\n    tag_251:\n        /* \"@openzeppelin/contracts/utils/ReentrancyGuard.sol\":2924:2945  _status = NOT_ENTERED */\n      tag_303\n        /* \"@openzeppelin/contracts/utils/ReentrancyGuard.sol\":2934:2945  NOT_ENTERED */\n      tag_1090\n      tag_250\n      jump\t// in\n    tag_1090:\n        /* \"@openzeppelin/contracts/utils/ReentrancyGuard.sol\":2924:2945  _status = NOT_ENTERED */\n      0x01\n      tag_124\n      jump\t// in\n\n    auxdata: 0xa2646970667358221220b80dd6e91ec9ee9725b56603291611b45c8d0c78b82162556386f5269aea520164736f6c63430008180033\n}\n",
        "bytecode": {
          "linkReferences": {},
          "object": "60a06040523462000048576200001f6200001862000122565b916200029b565b604051611dd36200042682396080518181816102bb0152818161147901526118540152611dd390f35b600080fd5b634e487b7160e01b600052604160045260246000fd5b90601f01601f191681019081106001600160401b038211176200008557604052565b6200004d565b90620000a26200009a60405190565b928362000063565b565b6001600160a01b031690565b90565b6001600160a01b0381165b036200004857565b90505190620000a282620000b3565b80620000be565b90505190620000a282620000d5565b90916060828403126200004857620000b0620001088484620000c6565b9360406200011a8260208701620000c6565b9401620000dc565b62000145620021f98038038062000139816200008b565b928339810190620000eb565b909192565b90600019905b9181191691161790565b620000b0620000b0620000b09290565b906200017e620000b062000186926200015a565b82546200014a565b9055565b620000a4620000b0620000b09290565b620000b0906200018a565b15620001ad57565b60405162461bcd60e51b815260206004820152601560248201527f496e76616c6964205553444643206164647265737300000000000000000000006044820152606490fd5b0390fd5b15620001fe57565b60405162461bcd60e51b815260206004820152601860248201527f496e76616c6964207472656173757279206164647265737300000000000000006044820152606490fd5b620000b090620000a4906001600160a01b031682565b620000b09062000243565b620000b09062000259565b906001600160a01b039062000150565b9062000293620000b0620001869262000264565b82546200026f565b620000a292916200030f6200031a92620002b5336200032e565b620002c360fa60096200016a565b62000309620002f7620002d760006200019a565b620000a46001600160a01b0382166001600160a01b0386161415620001a5565b6001600160a01b0385161415620001f6565b62000264565b60805260026200027f565b60036200016a565b620000b060016200015a565b62000339906200034f565b620000a26200034762000322565b60016200016a565b6200035b60006200019a565b6001600160a01b0381166001600160a01b03831614620003815750620000a290620003cb565b620001f2906200039060405190565b631e4fbdf760e01b8152918291600483016001600160a01b03909116815260200190565b620000b090620000a4565b620000b09054620003b4565b620003f3620003ec620003df6000620003bf565b620003098460006200027f565b9162000264565b907f8be0079c531659141344cd1fd0a4f28419497f9722a3daafe3b4186f6b6457e06200041f60405190565b600090a356fe6080604052600436101561001257600080fd5b60003560e01c8063055680f0146101525780630d6b4c9f1461014d5780631006e4cb146101485780631cff85e11461014357806334f910991461013e5780633742a9f71461013957806361d027b3146101345780636854d20f1461012f578063715018a61461012a5780638392fe31146101255780638da5cb5b14610120578063ae3b7f061461011b578063b33b492414610116578063b5126a6314610111578063b56a1e7d1461010c578063c34f294014610107578063ee00422114610102578063eeca08f0146100fd578063f09ce8f3146100f85763f2fde38b0361015757610aa8565b610a7a565b610a43565b610a10565b610976565b610952565b610939565b6108fe565b6108e6565b6108cb565b610897565b6107c8565b6107ad565b61077a565b61071f565b610698565b6105d0565b6102a2565b61026e565b610192565b600080fd5b600091031261015757565b610172916008021c81565b90565b906101729154610167565b61017260006008610175565b9052565b565b34610157576101a236600461015c565b6101be6101ad610180565b6040515b9182918290815260200190565b0390f35b73ffffffffffffffffffffffffffffffffffffffff1690565b6101e4816101c2565b0361015757565b90503590610190826101db565b9060208282031261015757610172916101eb565b6101c26101726101729273ffffffffffffffffffffffffffffffffffffffff1690565b6101729061020c565b6101729061022f565b9061024b90610238565b600052602052604060002090565b6000610269610172926007610241565b610175565b34610157576101be6101ad6102843660046101f8565b610259565b61018c90610238565b6020810192916101909190610289565b34610157576102b236600461015c565b604051806101be7f000000000000000000000000000000000000000000000000000000000000000082610292565b806101e4565b90503590610190826102e0565b9060208282031261015757610172916102e6565b6101726101726101729290565b9061024b90610307565b6101729081565b610172905461031e565b610172906101c2565b610172905461032f565b634e487b7160e01b600052602260045260246000fd5b9060016002830492168015610378575b602083101461037357565b610342565b91607f1691610368565b8054600093929161039f61039583610358565b8085529360200190565b91600181169081156103f157506001146103b857505050565b6103cb9192939450600052602060002090565b916000925b8184106103dd5750500190565b8054848401526020909301926001016103d0565b92949550505060ff1916825215156020020190565b9061017291610382565b634e487b7160e01b600052604160045260246000fd5b90601f01601f1916810190811067ffffffffffffffff82111761044857604052565b610410565b906101906104679261045e60405190565b93848092610406565b0383610426565b610172905b67ffffffffffffffff1690565b610172905461046e565b6101729060401c5b60ff1690565b610172905461048a565b6104ad906005610314565b6104b681610325565b916104c360018301610338565b916104d06002820161044d565b916104dd60038301610325565b916104ea60048201610480565b9161017260056104fc60048501610498565b9301610325565b61018c906101c2565b60005b83811061051f5750506000910152565b818101518382015260200161050f565b61055061055960209361056393610544815190565b80835293849260200190565b9586910161050c565b601f01601f191690565b0190565b9260c0949897956105b26105aa61019099946105c39461059d6105cc9861059360e08c019460008d0152565b60208b0190610503565b88820360408a015261052f565b9a6060870152565b67ffffffffffffffff166080850152565b151560a0830152565b0152565b34610157576101be6105eb6105e63660046102f3565b6104a2565b936105fb97959793919360405190565b97889788610567565b909182601f830112156101575781359167ffffffffffffffff831161015757602001926001830284011161015757565b67ffffffffffffffff81166101e4565b9050359061019082610634565b9190916060818403126101575780359167ffffffffffffffff83116101575761067f84610172948401610604565b939094604061069182602087016102e6565b9401610644565b34610157576106b46106ab366004610651565b92919091611111565b604051005b80518252610190919060a09081906106d660208201516020860152565b6106e860408201516040860190610503565b6106f760608201516060860152565b61070660808201516080860152565b01511515910152565b60c08101929161019091906106b9565b34610157576101be61073a6107353660046102f3565b61124c565b6040519182918261070f565b610172916008021c6101c2565b906101729154610746565b61017260006002610753565b6020810192916101909190610503565b346101575761078a36600461015c565b6101be61079561075e565b6040519182918261076a565b61017260006003610175565b34610157576107bd36600461015c565b6101be6101ad6107a1565b34610157576107d836600461015c565b6106b46112d6565b61017290610492565b61017290546107e0565b6107fe906006610314565b9061080882610325565b9161081560018201610325565b9161082260028301610338565b9161082f60038201610325565b91610172600561084160048501610325565b93016107e9565b919461088861088f9298979561088160a0966108776101909a61087060c08a019e60008b0152565b6020890152565b6040870190610503565b6060850152565b6080830152565b019015159052565b34610157576101be6108b26108ad3660046102f3565b6107f3565b926108c296949692919260405190565b96879687610848565b34610157576108db36600461015c565b6101be6107956112de565b34610157576106b46108f93660046102f3565b611371565b34610157576106b46109113660046102f3565b611575565b91906040838203126101575761017290602061093282866102e6565b94016102e6565b34610157576106b461094c366004610916565b90611a07565b34610157576106b46109653660046102f3565b611a28565b61017260006004610175565b346101575761098636600461015c565b6101be6101ad61096a565b80518252906101729060c0806109c860e084016109b660208801516020870190610503565b6040870151858203604087015261052f565b946109d860608201516060860152565b60808181015167ffffffffffffffff169085015260a0818101511515908501520151910152565b602080825261017292910190610991565b34610157576101be610a2b610a263660046102f3565b611afe565b604051918291826109ff565b61017260006009610175565b3461015757610a5336600461015c565b6101be6101ad610a37565b901515815267ffffffffffffffff909116602082015260400190565b3461015757610a92610a8d3660046102f3565b611be8565b906101be610a9f60405190565b92839283610a5e565b34610157576106b4610abb3660046101f8565b611c67565b60208082526012908201527f496e73756666696369656e74207374616b650000000000000000000000000000604082015260600190565b15610afe57565b60405162461bcd60e51b815280610b1760048201610ac0565b0390fd5b90610190939291610b53610b38610b33336007610241565b610325565b610b4c610b486101726003610325565b9190565b1015610af7565b610fd7565b60208082526014908201527f496e76616c6964206d6574616461746120555249000000000000000000000000604082015260600190565b15610b9657565b60405162461bcd60e51b815280610b1760048201610b58565b6020808252600d908201527f496e76616c696420707269636500000000000000000000000000000000000000604082015260600190565b15610bed57565b60405162461bcd60e51b815280610b1760048201610baf565b634e487b7160e01b600052601160045260246000fd5b6000198114610c2b5760010190565b610c06565b90600019905b9181191691161790565b90610c50610172610c5792610307565b8254610c30565b9055565b90610190610c6860405190565b9283610426565b61017260e0610c5b565b9061018c906101c2565b67ffffffffffffffff811161044857602090601f01601f19160190565b90826000939282370152565b90929192610cc1610cbc82610c83565b610c5b565b938185528183011161015757610190916020850190610ca0565b610172913691610cac565b5190565b61017290516101c2565b9073ffffffffffffffffffffffffffffffffffffffff90610c36565b90610d20610172610c5792610238565b8254610cf4565b9160001960089290920291821b911b610c36565b9190610d4c610172610c5793610307565b908354610d27565b61019091600091610d3b565b818110610d6b575050565b80610d796000600193610d54565b01610d60565b9190601f8111610d8e57505050565b610da061019093600052602060002090565b906020601f840181900483019310610dc2575b6020601f909101040190610d60565b9091508190610db3565b90610dd5815190565b9067ffffffffffffffff821161044857610df982610df38554610358565b85610d7f565b602090601f8311600114610e3457610c57929160009183610e29575b5050600019600883021c1916906002021790565b015190503880610e15565b601f19831691610e4985600052602060002090565b9260005b818110610e8757509160029391856001969410610e6e575b50505002019055565b01516000196008601f8516021c19169055388080610e65565b91936020600181928787015181550195019201610e4d565b9061019091610dcc565b5167ffffffffffffffff1690565b9067ffffffffffffffff90610c36565b6104736101726101729267ffffffffffffffff1690565b90610eee610172610c5792610ec7565b8254610eb7565b51151590565b9068ff00000000000000009060401b610c36565b151590565b90610f24610172610c5792610f0f565b8254610efb565b6005610fc660c061019094610f4b610f4560008301610ce6565b86610c40565b610f63610f5a60208301610cea565b60018701610d10565b610f7a610f71604083015190565b60028701610e9f565b610f92610f8960608301610ce6565b60038701610c40565b610fc060048601610fae610fa860808501610ea9565b82610ede565b610fba60a08401610ef5565b90610f14565b01610ce6565b9101610c40565b9061019091610f2b565b906110a86110af916110976110c8959661107b611074610ffd610ff8868a91565b905090565b94611016600096611010610b4889610307565b11610b8f565b61102961102287610307565b8c11610be6565b61104561103e6110396004610325565b610c1c565b6004610c40565b61104f6004610325565b9861106261105b610c6f565b9a888c0152565b61106f3360208c01610c79565b610cdb565b6040880152565b611086886060880152565b67ffffffffffffffff166080860152565b600160a0850152610307565b610307565b60c0830152565b6110c36110bc6004610325565b6005610314565b610fcd565b6110d56110a36004610325565b7fefa8be02df15b3d9e3df64c38716dffefe08137dcc422847518158ed0f7ac29e61110c61110233610238565b936101b160405190565b0390a3565b90610190939291610b1b565b61017260c0610c5b565b61112f61111d565b906000825260208080808080870160005b8152016000815201600081520160008152016000905250565b610172611127565b60208082526013908201527f496e76616c696420707572636861736520494400000000000000000000000000604082015260600190565b1561119f57565b60405162461bcd60e51b815280610b1760048201611161565b9061019061123a60056111c961111d565b946111da6111d682610325565b8752565b6111f06111e960018301610325565b6020880152565b6112086111ff60028301610338565b60408801610c79565b61121e61121760038301610325565b6060880152565b61123461122d60048301610325565b6080880152565b016107e9565b151560a0840152565b610172906111b8565b61127e6101729161125b611159565b506112666000610307565b811180611283575b61127790611198565b6006610314565b611243565b506112776112946101726008610325565b821115905061126e565b6112a6611c70565b6101906112c4565b6101c26101726101729290565b610172906112ae565b6101906112d160006112bb565b611cd0565b61019061129e565b6101726000610338565b610190906112f4611c70565b611350565b60208082526011908201527f466565207261746520746f6f2068696768000000000000000000000000000000604082015260600190565b1561133757565b60405162461bcd60e51b815280610b17600482016112f9565b6101909061136a6113626103e8610307565b821115611330565b6009610c40565b610190906112e8565b61138b90611386611d32565b611456565b610190611d8b565b60208082526019908201527f496e73756666696369656e74207374616b6520616d6f756e7400000000000000604082015260600190565b156113d157565b60405162461bcd60e51b815280610b1760048201611393565b8015156101e4565b90505190610190826113ea565b9060208282031261015757610172916113f2565b6040906105cc610190949695939661143360608401986000850190610503565b6020830190610503565b6040513d6000823e3d90fd5b91908201809211610c2b57565b61146e6114666101726003610325565b8210156113ca565b6114d160208261149d7f0000000000000000000000000000000000000000000000000000000000000000610238565b6114a630610238565b60006114b160405190565b8096819582946114c56323b872dd60e01b90565b84523360048501611413565b03925af1801561157057611543575b506115076114ef336007610241565b611501836114fc83610325565b611449565b90610c40565b7fcd6dbb0e62eeb71e114bae8b2e2547921dd19209bebf32b595be3e7d247dbbb461153e61153433610238565b926101b160405190565b0390a2565b6115649060203d602011611569575b61155c8183610426565b8101906113ff565b6114e0565b503d611552565b61143d565b6101909061137a565b60208082526012908201527f496e76616c696420646174617365742049440000000000000000000000000000604082015260600190565b156115bc57565b60405162461bcd60e51b815280610b176004820161157e565b60208082526012908201527f44617461736574206e6f74206163746976650000000000000000000000000000604082015260600190565b1561161357565b60405162461bcd60e51b815280610b17600482016115d5565b906101909161163b6000610307565b81118061166f575b61164c906115b5565b61166a611665600461165f846005610314565b01610498565b61160c565b61168a565b5061164c6116806101726004610325565b8211159050611643565b9061138b91611697611d32565b6117e0565b60208082526013908201527f496e76616c696420626174636820636f756e7400000000000000000000000000604082015260600190565b156116da57565b60405162461bcd60e51b815280610b176004820161169c565b81810292918115918404141715610c2b57565b634e487b7160e01b600052601260045260246000fd5b8115611726570490565b611706565b91908203918211610c2b57565b9060ff90610c36565b90611751610172610c5792610f0f565b8254611738565b60056117cf60a061019094611772610f4560008301610ce6565b61178a61178160208301610ce6565b60018701610c40565b6117a261179960408301610cea565b60028701610d10565b6117b1610f8960608301610ce6565b6117c96117c060808301610ce6565b60048701610c40565b01610ef5565b9101611741565b9061019091611758565b60006117f56117ee82610307565b84116116d3565b611818611806610172846005610314565b9361181360038601610325565b6116f3565b9261184061182f6118296009610325565b866116f3565b61183a612710610307565b9061171c565b9061189c61184e838761172b565b926118787f0000000000000000000000000000000000000000000000000000000000000000610238565b60206323b872dd9261188a6002610338565b60405195869283926114c58860e01b90565b038189855af1928315611570576020936119ec575b506114c5866118c260018701610338565b936118dc6118cf60405190565b9889968795869460e01b90565b03925af180156115705761197c9360059361196e926119cf575b5061190e6119076110396008610325565b6008610c40565b61195c61191b6008610325565b9161192e61192761111d565b9382850152565b611939886020850152565b6119463360408501610c79565b611951896060850152565b6105c3426080850152565b6119696112776008610325565b6117d6565b01611501846114fc83610325565b61199261198c6110a36008610325565b91610307565b907fe23a9f2b581d4c09f7762bf67538c16587cdbba4484a10cf60ea9140a5feafd26119ca6119c033610238565b946101b160405190565b0390a4565b6119e79060203d6020116115695761155c8183610426565b6118f6565b611a0290843d86116115695761155c8183610426565b6118b1565b906101909161162c565b61019090611a1d611c70565b610190906003610c40565b61019090611a11565b611a39610c6f565b90600082526020808080808080880160008152016060611140565b610172611a31565b90610190611aee6005611a6d610c6f565b94611a7a6111d682610325565b611a92611a8960018301610338565b60208801610c79565b611aa16110746002830161044d565b611ab061121760038301610325565b611ad0611abf60048301610480565b67ffffffffffffffff166080880152565b611ae8611adf60048301610498565b151560a0880152565b01610325565b60c0840152565b61017290611a5c565b611b2961017291611b0d611a54565b50611b186000610307565b811180611b2e575b6110bc906115b5565b611af5565b506110bc611b3f6101726004610325565b8211159050611b20565b90611b829291611b596000610307565b831180611b86575b611b6a906115b5565b611b7d611665600461165f866005610314565b611bae565b9091565b50611b6a611b976101726004610325565b8411159050611b61565b6104736101726101729290565b611bc892600492611bc29250506005610314565b01610480565b80611be4611bd66000611ba1565b9167ffffffffffffffff1690565b1191565b611b8290600080611b49565b61019090611c00611c70565b611c0a60006112bb565b611c13816101c2565b611c1c836101c2565b14611c2b575061019090611cd0565b610b1790611c3860405190565b9182917f1e4fbdf70000000000000000000000000000000000000000000000000000000083526004830161076a565b61019090611bf4565b611c786112de565b3390611c8c611c86836101c2565b916101c2565b03611c945750565b610b1790611ca160405190565b9182917f118cdaa70000000000000000000000000000000000000000000000000000000083526004830161076a565b611cf6611cf0611ce06000610338565b611ceb846000610d10565b610238565b91610238565b907f8be0079c531659141344cd1fd0a4f28419497f9722a3daafe3b4186f6b6457e0611d2160405190565b808061110c565b6101726002610307565b611d3c6001610325565b611d44611d28565b908114611d5657610190906001610c40565b6040517f3ee5aeb5000000000000000000000000000000000000000000000000000000008152600490fd5b6101726001610307565b610190611d96611d81565b6001610c4056fea2646970667358221220b80dd6e91ec9ee9725b56603291611b45c8d0c78b82162556386f5269aea520164736f6c63430008180033",
          "opcodes": "PUSH1 0xA0 PUSH1 0x40 MSTORE CALLVALUE PUSH3 0x48 JUMPI PUSH3 0x1F PUSH3 0x18 PUSH3 0x122 JUMP JUMPDEST SWAP2 PUSH3 0x29B JUMP JUMPDEST PUSH1 0x40 MLOAD PUSH2 0x1DD3 PUSH3 0x426 DUP3 CODECOPY PUSH1 0x80 MLOAD DUP2 DUP2 DUP2 PUSH2 0x2BB ADD MSTORE DUP2 DUP2 PUSH2 0x1479 ADD MSTORE PUSH2 0x1854 ADD MSTORE PUSH2 0x1DD3 SWAP1 RETURN JUMPDEST PUSH1 0x0 DUP1 REVERT JUMPDEST PUSH4 0x4E487B71 PUSH1 0xE0 SHL PUSH1 0x0 MSTORE PUSH1 0x41 PUSH1 0x4 MSTORE PUSH1 0x24 PUSH1 0x0 REVERT JUMPDEST SWAP1 PUSH1 0x1F ADD PUSH1 0x1F NOT AND DUP2 ADD SWAP1 DUP2 LT PUSH1 0x1 PUSH1 0x1 PUSH1 0x40 SHL SUB DUP3 GT OR PUSH3 0x85 JUMPI PUSH1 0x40 MSTORE JUMP JUMPDEST PUSH3 0x4D JUMP JUMPDEST SWAP1 PUSH3 0xA2 PUSH3 0x9A PUSH1 0x40 MLOAD SWAP1 JUMP JUMPDEST SWAP3 DUP4 PUSH3 0x63 JUMP JUMPDEST JUMP JUMPDEST PUSH1 0x1 PUSH1 0x1 PUSH1 0xA0 SHL SUB AND SWAP1 JUMP JUMPDEST SWAP1 JUMP JUMPDEST PUSH1 0x1 PUSH1 0x1 PUSH1 0xA0 SHL SUB DUP2 AND JUMPDEST SUB PUSH3 0x48 JUMPI JUMP JUMPDEST SWAP1 POP MLOAD SWAP1 PUSH3 0xA2 DUP3 PUSH3 0xB3 JUMP JUMPDEST DUP1 PUSH3 0xBE JUMP JUMPDEST SWAP1 POP MLOAD SWAP1 PUSH3 0xA2 DUP3 PUSH3 0xD5 JUMP JUMPDEST SWAP1 SWAP2 PUSH1 0x60 DUP3 DUP5 SUB SLT PUSH3 0x48 JUMPI PUSH3 0xB0 PUSH3 0x108 DUP5 DUP5 PUSH3 0xC6 JUMP JUMPDEST SWAP4 PUSH1 0x40 PUSH3 0x11A DUP3 PUSH1 0x20 DUP8 ADD PUSH3 0xC6 JUMP JUMPDEST SWAP5 ADD PUSH3 0xDC JUMP JUMPDEST PUSH3 0x145 PUSH3 0x21F9 DUP1 CODESIZE SUB DUP1 PUSH3 0x139 DUP2 PUSH3 0x8B JUMP JUMPDEST SWAP3 DUP4 CODECOPY DUP2 ADD SWAP1 PUSH3 0xEB JUMP JUMPDEST SWAP1 SWAP2 SWAP3 JUMP JUMPDEST SWAP1 PUSH1 0x0 NOT SWAP1 JUMPDEST SWAP2 DUP2 NOT AND SWAP2 AND OR SWAP1 JUMP JUMPDEST PUSH3 0xB0 PUSH3 0xB0 PUSH3 0xB0 SWAP3 SWAP1 JUMP JUMPDEST SWAP1 PUSH3 0x17E PUSH3 0xB0 PUSH3 0x186 SWAP3 PUSH3 0x15A JUMP JUMPDEST DUP3 SLOAD PUSH3 0x14A JUMP JUMPDEST SWAP1 SSTORE JUMP JUMPDEST PUSH3 0xA4 PUSH3 0xB0 PUSH3 0xB0 SWAP3 SWAP1 JUMP JUMPDEST PUSH3 0xB0 SWAP1 PUSH3 0x18A JUMP JUMPDEST ISZERO PUSH3 0x1AD JUMPI JUMP JUMPDEST PUSH1 0x40 MLOAD PUSH3 0x461BCD PUSH1 0xE5 SHL DUP2 MSTORE PUSH1 0x20 PUSH1 0x4 DUP3 ADD MSTORE PUSH1 0x15 PUSH1 0x24 DUP3 ADD MSTORE PUSH32 0x496E76616C696420555344464320616464726573730000000000000000000000 PUSH1 0x44 DUP3 ADD MSTORE PUSH1 0x64 SWAP1 REVERT JUMPDEST SUB SWAP1 REVERT JUMPDEST ISZERO PUSH3 0x1FE JUMPI JUMP JUMPDEST PUSH1 0x40 MLOAD PUSH3 0x461BCD PUSH1 0xE5 SHL DUP2 MSTORE PUSH1 0x20 PUSH1 0x4 DUP3 ADD MSTORE PUSH1 0x18 PUSH1 0x24 DUP3 ADD MSTORE PUSH32 0x496E76616C696420747265617375727920616464726573730000000000000000 PUSH1 0x44 DUP3 ADD MSTORE PUSH1 0x64 SWAP1 REVERT JUMPDEST PUSH3 0xB0 SWAP1 PUSH3 0xA4 SWAP1 PUSH1 0x1 PUSH1 0x1 PUSH1 0xA0 SHL SUB AND DUP3 JUMP JUMPDEST PUSH3 0xB0 SWAP1 PUSH3 0x243 JUMP JUMPDEST PUSH3 0xB0 SWAP1 PUSH3 0x259 JUMP JUMPDEST SWAP1 PUSH1 0x1 PUSH1 0x1 PUSH1 0xA0 SHL SUB SWAP1 PUSH3 0x150 JUMP JUMPDEST SWAP1 PUSH3 0x293 PUSH3 0xB0 PUSH3 0x186 SWAP3 PUSH3 0x264 JUMP JUMPDEST DUP3 SLOAD PUSH3 0x26F JUMP JUMPDEST PUSH3 0xA2 SWAP3 SWAP2 PUSH3 0x30F PUSH3 0x31A SWAP3 PUSH3 0x2B5 CALLER PUSH3 0x32E JUMP JUMPDEST PUSH3 0x2C3 PUSH1 0xFA PUSH1 0x9 PUSH3 0x16A JUMP JUMPDEST PUSH3 0x309 PUSH3 0x2F7 PUSH3 0x2D7 PUSH1 0x0 PUSH3 0x19A JUMP JUMPDEST PUSH3 0xA4 PUSH1 0x1 PUSH1 0x1 PUSH1 0xA0 SHL SUB DUP3 AND PUSH1 0x1 PUSH1 0x1 PUSH1 0xA0 SHL SUB DUP7 AND EQ ISZERO PUSH3 0x1A5 JUMP JUMPDEST PUSH1 0x1 PUSH1 0x1 PUSH1 0xA0 SHL SUB DUP6 AND EQ ISZERO PUSH3 0x1F6 JUMP JUMPDEST PUSH3 0x264 JUMP JUMPDEST PUSH1 0x80 MSTORE PUSH1 0x2 PUSH3 0x27F JUMP JUMPDEST PUSH1 0x3 PUSH3 0x16A JUMP JUMPDEST PUSH3 0xB0 PUSH1 0x1 PUSH3 0x15A JUMP JUMPDEST PUSH3 0x339 SWAP1 PUSH3 0x34F JUMP JUMPDEST PUSH3 0xA2 PUSH3 0x347 PUSH3 0x322 JUMP JUMPDEST PUSH1 0x1 PUSH3 0x16A JUMP JUMPDEST PUSH3 0x35B PUSH1 0x0 PUSH3 0x19A JUMP JUMPDEST PUSH1 0x1 PUSH1 0x1 PUSH1 0xA0 SHL SUB DUP2 AND PUSH1 0x1 PUSH1 0x1 PUSH1 0xA0 SHL SUB DUP4 AND EQ PUSH3 0x381 JUMPI POP PUSH3 0xA2 SWAP1 PUSH3 0x3CB JUMP JUMPDEST PUSH3 0x1F2 SWAP1 PUSH3 0x390 PUSH1 0x40 MLOAD SWAP1 JUMP JUMPDEST PUSH4 0x1E4FBDF7 PUSH1 0xE0 SHL DUP2 MSTORE SWAP2 DUP3 SWAP2 PUSH1 0x4 DUP4 ADD PUSH1 0x1 PUSH1 0x1 PUSH1 0xA0 SHL SUB SWAP1 SWAP2 AND DUP2 MSTORE PUSH1 0x20 ADD SWAP1 JUMP JUMPDEST PUSH3 0xB0 SWAP1 PUSH3 0xA4 JUMP JUMPDEST PUSH3 0xB0 SWAP1 SLOAD PUSH3 0x3B4 JUMP JUMPDEST PUSH3 0x3F3 PUSH3 0x3EC PUSH3 0x3DF PUSH1 0x0 PUSH3 0x3BF JUMP JUMPDEST PUSH3 0x309 DUP5 PUSH1 0x0 PUSH3 0x27F JUMP JUMPDEST SWAP2 PUSH3 0x264 JUMP JUMPDEST SWAP1 PUSH32 0x8BE0079C531659141344CD1FD0A4F28419497F9722A3DAAFE3B4186F6B6457E0 PUSH3 0x41F PUSH1 0x40 MLOAD SWAP1 JUMP JUMPDEST PUSH1 0x0 SWAP1 LOG3 JUMP INVALID PUSH1 0x80 PUSH1 0x40 MSTORE PUSH1 0x4 CALLDATASIZE LT ISZERO PUSH2 0x12 JUMPI PUSH1 0x0 DUP1 REVERT JUMPDEST PUSH1 0x0 CALLDATALOAD PUSH1 0xE0 SHR DUP1 PUSH4 0x55680F0 EQ PUSH2 0x152 JUMPI DUP1 PUSH4 0xD6B4C9F EQ PUSH2 0x14D JUMPI DUP1 PUSH4 0x1006E4CB EQ PUSH2 0x148 JUMPI DUP1 PUSH4 0x1CFF85E1 EQ PUSH2 0x143 JUMPI DUP1 PUSH4 0x34F91099 EQ PUSH2 0x13E JUMPI DUP1 PUSH4 0x3742A9F7 EQ PUSH2 0x139 JUMPI DUP1 PUSH4 0x61D027B3 EQ PUSH2 0x134 JUMPI DUP1 PUSH4 0x6854D20F EQ PUSH2 0x12F JUMPI DUP1 PUSH4 0x715018A6 EQ PUSH2 0x12A JUMPI DUP1 PUSH4 0x8392FE31 EQ PUSH2 0x125 JUMPI DUP1 PUSH4 0x8DA5CB5B EQ PUSH2 0x120 JUMPI DUP1 PUSH4 0xAE3B7F06 EQ PUSH2 0x11B JUMPI DUP1 PUSH4 0xB33B4924 EQ PUSH2 0x116 JUMPI DUP1 PUSH4 0xB5126A63 EQ PUSH2 0x111 JUMPI DUP1 PUSH4 0xB56A1E7D EQ PUSH2 0x10C JUMPI DUP1 PUSH4 0xC34F2940 EQ PUSH2 0x107 JUMPI DUP1 PUSH4 0xEE004221 EQ PUSH2 0x102 JUMPI DUP1 PUSH4 0xEECA08F0 EQ PUSH2 0xFD JUMPI DUP1 PUSH4 0xF09CE8F3 EQ PUSH2 0xF8 JUMPI PUSH4 0xF2FDE38B SUB PUSH2 0x157 JUMPI PUSH2 0xAA8 JUMP JUMPDEST PUSH2 0xA7A JUMP JUMPDEST PUSH2 0xA43 JUMP JUMPDEST PUSH2 0xA10 JUMP JUMPDEST PUSH2 0x976 JUMP JUMPDEST PUSH2 0x952 JUMP JUMPDEST PUSH2 0x939 JUMP JUMPDEST PUSH2 0x8FE JUMP JUMPDEST PUSH2 0x8E6 JUMP JUMPDEST PUSH2 0x8CB JUMP JUMPDEST PUSH2 0x897 JUMP JUMPDEST PUSH2 0x7C8 JUMP JUMPDEST PUSH2 0x7AD JUMP JUMPDEST PUSH2 0x77A JUMP JUMPDEST PUSH2 0x71F JUMP JUMPDEST PUSH2 0x698 JUMP JUMPDEST PUSH2 0x5D0 JUMP JUMPDEST PUSH2 0x2A2 JUMP JUMPDEST PUSH2 0x26E JUMP JUMPDEST PUSH2 0x192 JUMP JUMPDEST PUSH1 0x0 DUP1 REVERT JUMPDEST PUSH1 0x0 SWAP2 SUB SLT PUSH2 0x157 JUMPI JUMP JUMPDEST PUSH2 0x172 SWAP2 PUSH1 0x8 MUL SHR DUP2 JUMP JUMPDEST SWAP1 JUMP JUMPDEST SWAP1 PUSH2 0x172 SWAP2 SLOAD PUSH2 0x167 JUMP JUMPDEST PUSH2 0x172 PUSH1 0x0 PUSH1 0x8 PUSH2 0x175 JUMP JUMPDEST SWAP1 MSTORE JUMP JUMPDEST JUMP JUMPDEST CALLVALUE PUSH2 0x157 JUMPI PUSH2 0x1A2 CALLDATASIZE PUSH1 0x4 PUSH2 0x15C JUMP JUMPDEST PUSH2 0x1BE PUSH2 0x1AD PUSH2 0x180 JUMP JUMPDEST PUSH1 0x40 MLOAD JUMPDEST SWAP2 DUP3 SWAP2 DUP3 SWAP1 DUP2 MSTORE PUSH1 0x20 ADD SWAP1 JUMP JUMPDEST SUB SWAP1 RETURN JUMPDEST PUSH20 0xFFFFFFFFFFFFFFFFFFFFFFFFFFFFFFFFFFFFFFFF AND SWAP1 JUMP JUMPDEST PUSH2 0x1E4 DUP2 PUSH2 0x1C2 JUMP JUMPDEST SUB PUSH2 0x157 JUMPI JUMP JUMPDEST SWAP1 POP CALLDATALOAD SWAP1 PUSH2 0x190 DUP3 PUSH2 0x1DB JUMP JUMPDEST SWAP1 PUSH1 0x20 DUP3 DUP3 SUB SLT PUSH2 0x157 JUMPI PUSH2 0x172 SWAP2 PUSH2 0x1EB JUMP JUMPDEST PUSH2 0x1C2 PUSH2 0x172 PUSH2 0x172 SWAP3 PUSH20 0xFFFFFFFFFFFFFFFFFFFFFFFFFFFFFFFFFFFFFFFF AND SWAP1 JUMP JUMPDEST PUSH2 0x172 SWAP1 PUSH2 0x20C JUMP JUMPDEST PUSH2 0x172 SWAP1 PUSH2 0x22F JUMP JUMPDEST SWAP1 PUSH2 0x24B SWAP1 PUSH2 0x238 JUMP JUMPDEST PUSH1 0x0 MSTORE PUSH1 0x20 MSTORE PUSH1 0x40 PUSH1 0x0 KECCAK256 SWAP1 JUMP JUMPDEST PUSH1 0x0 PUSH2 0x269 PUSH2 0x172 SWAP3 PUSH1 0x7 PUSH2 0x241 JUMP JUMPDEST PUSH2 0x175 JUMP JUMPDEST CALLVALUE PUSH2 0x157 JUMPI PUSH2 0x1BE PUSH2 0x1AD PUSH2 0x284 CALLDATASIZE PUSH1 0x4 PUSH2 0x1F8 JUMP JUMPDEST PUSH2 0x259 JUMP JUMPDEST PUSH2 0x18C SWAP1 PUSH2 0x238 JUMP JUMPDEST PUSH1 0x20 DUP2 ADD SWAP3 SWAP2 PUSH2 0x190 SWAP2 SWAP1 PUSH2 0x289 JUMP JUMPDEST CALLVALUE PUSH2 0x157 JUMPI PUSH2 0x2B2 CALLDATASIZE PUSH1 0x4 PUSH2 0x15C JUMP JUMPDEST PUSH1 0x40 MLOAD DUP1 PUSH2 0x1BE PUSH32 0x0 DUP3 PUSH2 0x292 JUMP JUMPDEST DUP1 PUSH2 0x1E4 JUMP JUMPDEST SWAP1 POP CALLDATALOAD SWAP1 PUSH2 0x190 DUP3 PUSH2 0x2E0 JUMP JUMPDEST SWAP1 PUSH1 0x20 DUP3 DUP3 SUB SLT PUSH2 0x157 JUMPI PUSH2 0x172 SWAP2 PUSH2 0x2E6 JUMP JUMPDEST PUSH2 0x172 PUSH2 0x172 PUSH2 0x172 SWAP3 SWAP1 JUMP JUMPDEST SWAP1 PUSH2 0x24B SWAP1 PUSH2 0x307 JUMP JUMPDEST PUSH2 0x172 SWAP1 DUP2 JUMP JUMPDEST PUSH2 0x172 SWAP1 SLOAD PUSH2 0x31E JUMP JUMPDEST PUSH2 0x172 SWAP1 PUSH2 0x1C2 JUMP JUMPDEST PUSH2 0x172 SWAP1 SLOAD PUSH2 0x32F JUMP JUMPDEST PUSH4 0x4E487B71 PUSH1 0xE0 SHL PUSH1 0x0 MSTORE PUSH1 0x22 PUSH1 0x4 MSTORE PUSH1 0x24 PUSH1 0x0 REVERT JUMPDEST SWAP1 PUSH1 0x1 PUSH1 0x2 DUP4 DIV SWAP3 AND DUP1 ISZERO PUSH2 0x378 JUMPI JUMPDEST PUSH1 0x20 DUP4 LT EQ PUSH2 0x373 JUMPI JUMP JUMPDEST PUSH2 0x342 JUMP JUMPDEST SWAP2 PUSH1 0x7F AND SWAP2 PUSH2 0x368 JUMP JUMPDEST DUP1 SLOAD PUSH1 0x0 SWAP4 SWAP3 SWAP2 PUSH2 0x39F PUSH2 0x395 DUP4 PUSH2 0x358 JUMP JUMPDEST DUP1 DUP6 MSTORE SWAP4 PUSH1 0x20 ADD SWAP1 JUMP JUMPDEST SWAP2 PUSH1 0x1 DUP2 AND SWAP1 DUP2 ISZERO PUSH2 0x3F1 JUMPI POP PUSH1 0x1 EQ PUSH2 0x3B8 JUMPI POP POP POP JUMP JUMPDEST PUSH2 0x3CB SWAP2 SWAP3 SWAP4 SWAP5 POP PUSH1 0x0 MSTORE PUSH1 0x20 PUSH1 0x0 KECCAK256 SWAP1 JUMP JUMPDEST SWAP2 PUSH1 0x0 SWAP3 JUMPDEST DUP2 DUP5 LT PUSH2 0x3DD JUMPI POP POP ADD SWAP1 JUMP JUMPDEST DUP1 SLOAD DUP5 DUP5 ADD MSTORE PUSH1 0x20 SWAP1 SWAP4 ADD SWAP3 PUSH1 0x1 ADD PUSH2 0x3D0 JUMP JUMPDEST SWAP3 SWAP5 SWAP6 POP POP POP PUSH1 0xFF NOT AND DUP3 MSTORE ISZERO ISZERO PUSH1 0x20 MUL ADD SWAP1 JUMP JUMPDEST SWAP1 PUSH2 0x172 SWAP2 PUSH2 0x382 JUMP JUMPDEST PUSH4 0x4E487B71 PUSH1 0xE0 SHL PUSH1 0x0 MSTORE PUSH1 0x41 PUSH1 0x4 MSTORE PUSH1 0x24 PUSH1 0x0 REVERT JUMPDEST SWAP1 PUSH1 0x1F ADD PUSH1 0x1F NOT AND DUP2 ADD SWAP1 DUP2 LT PUSH8 0xFFFFFFFFFFFFFFFF DUP3 GT OR PUSH2 0x448 JUMPI PUSH1 0x40 MSTORE JUMP JUMPDEST PUSH2 0x410 JUMP JUMPDEST SWAP1 PUSH2 0x190 PUSH2 0x467 SWAP3 PUSH2 0x45E PUSH1 0x40 MLOAD SWAP1 JUMP JUMPDEST SWAP4 DUP5 DUP1 SWAP3 PUSH2 0x406 JUMP JUMPDEST SUB DUP4 PUSH2 0x426 JUMP JUMPDEST PUSH2 0x172 SWAP1 JUMPDEST PUSH8 0xFFFFFFFFFFFFFFFF AND SWAP1 JUMP JUMPDEST PUSH2 0x172 SWAP1 SLOAD PUSH2 0x46E JUMP JUMPDEST PUSH2 0x172 SWAP1 PUSH1 0x40 SHR JUMPDEST PUSH1 0xFF AND SWAP1 JUMP JUMPDEST PUSH2 0x172 SWAP1 SLOAD PUSH2 0x48A JUMP JUMPDEST PUSH2 0x4AD SWAP1 PUSH1 0x5 PUSH2 0x314 JUMP JUMPDEST PUSH2 0x4B6 DUP2 PUSH2 0x325 JUMP JUMPDEST SWAP2 PUSH2 0x4C3 PUSH1 0x1 DUP4 ADD PUSH2 0x338 JUMP JUMPDEST SWAP2 PUSH2 0x4D0 PUSH1 0x2 DUP3 ADD PUSH2 0x44D JUMP JUMPDEST SWAP2 PUSH2 0x4DD PUSH1 0x3 DUP4 ADD PUSH2 0x325 JUMP JUMPDEST SWAP2 PUSH2 0x4EA PUSH1 0x4 DUP3 ADD PUSH2 0x480 JUMP JUMPDEST SWAP2 PUSH2 0x172 PUSH1 0x5 PUSH2 0x4FC PUSH1 0x4 DUP6 ADD PUSH2 0x498 JUMP JUMPDEST SWAP4 ADD PUSH2 0x325 JUMP JUMPDEST PUSH2 0x18C SWAP1 PUSH2 0x1C2 JUMP JUMPDEST PUSH1 0x0 JUMPDEST DUP4 DUP2 LT PUSH2 0x51F JUMPI POP POP PUSH1 0x0 SWAP2 ADD MSTORE JUMP JUMPDEST DUP2 DUP2 ADD MLOAD DUP4 DUP3 ADD MSTORE PUSH1 0x20 ADD PUSH2 0x50F JUMP JUMPDEST PUSH2 0x550 PUSH2 0x559 PUSH1 0x20 SWAP4 PUSH2 0x563 SWAP4 PUSH2 0x544 DUP2 MLOAD SWAP1 JUMP JUMPDEST DUP1 DUP4 MSTORE SWAP4 DUP5 SWAP3 PUSH1 0x20 ADD SWAP1 JUMP JUMPDEST SWAP6 DUP7 SWAP2 ADD PUSH2 0x50C JUMP JUMPDEST PUSH1 0x1F ADD PUSH1 0x1F NOT AND SWAP1 JUMP JUMPDEST ADD SWAP1 JUMP JUMPDEST SWAP3 PUSH1 0xC0 SWAP5 SWAP9 SWAP8 SWAP6 PUSH2 0x5B2 PUSH2 0x5AA PUSH2 0x190 SWAP10 SWAP5 PUSH2 0x5C3 SWAP5 PUSH2 0x59D PUSH2 0x5CC SWAP9 PUSH2 0x593 PUSH1 0xE0 DUP13 ADD SWAP5 PUSH1 0x0 DUP14 ADD MSTORE JUMP JUMPDEST PUSH1 0x20 DUP12 ADD SWAP1 PUSH2 0x503 JUMP JUMPDEST DUP9 DUP3 SUB PUSH1 0x40 DUP11 ADD MSTORE PUSH2 0x52F JUMP JUMPDEST SWAP11 PUSH1 0x60 DUP8 ADD MSTORE JUMP JUMPDEST PUSH8 0xFFFFFFFFFFFFFFFF AND PUSH1 0x80 DUP6 ADD MSTORE JUMP JUMPDEST ISZERO ISZERO PUSH1 0xA0 DUP4 ADD MSTORE JUMP JUMPDEST ADD MSTORE JUMP JUMPDEST CALLVALUE PUSH2 0x157 JUMPI PUSH2 0x1BE PUSH2 0x5EB PUSH2 0x5E6 CALLDATASIZE PUSH1 0x4 PUSH2 0x2F3 JUMP JUMPDEST PUSH2 0x4A2 JUMP JUMPDEST SWAP4 PUSH2 0x5FB SWAP8 SWAP6 SWAP8 SWAP4 SWAP2 SWAP4 PUSH1 0x40 MLOAD SWAP1 JUMP JUMPDEST SWAP8 DUP9 SWAP8 DUP9 PUSH2 0x567 JUMP JUMPDEST SWAP1 SWAP2 DUP3 PUSH1 0x1F DUP4 ADD SLT ISZERO PUSH2 0x157 JUMPI DUP2 CALLDATALOAD SWAP2 PUSH8 0xFFFFFFFFFFFFFFFF DUP4 GT PUSH2 0x157 JUMPI PUSH1 0x20 ADD SWAP3 PUSH1 0x1 DUP4 MUL DUP5 ADD GT PUSH2 0x157 JUMPI JUMP JUMPDEST PUSH8 0xFFFFFFFFFFFFFFFF DUP2 AND PUSH2 0x1E4 JUMP JUMPDEST SWAP1 POP CALLDATALOAD SWAP1 PUSH2 0x190 DUP3 PUSH2 0x634 JUMP JUMPDEST SWAP2 SWAP1 SWAP2 PUSH1 0x60 DUP2 DUP5 SUB SLT PUSH2 0x157 JUMPI DUP1 CALLDATALOAD SWAP2 PUSH8 0xFFFFFFFFFFFFFFFF DUP4 GT PUSH2 0x157 JUMPI PUSH2 0x67F DUP5 PUSH2 0x172 SWAP5 DUP5 ADD PUSH2 0x604 JUMP JUMPDEST SWAP4 SWAP1 SWAP5 PUSH1 0x40 PUSH2 0x691 DUP3 PUSH1 0x20 DUP8 ADD PUSH2 0x2E6 JUMP JUMPDEST SWAP5 ADD PUSH2 0x644 JUMP JUMPDEST CALLVALUE PUSH2 0x157 JUMPI PUSH2 0x6B4 PUSH2 0x6AB CALLDATASIZE PUSH1 0x4 PUSH2 0x651 JUMP JUMPDEST SWAP3 SWAP2 SWAP1 SWAP2 PUSH2 0x1111 JUMP JUMPDEST PUSH1 0x40 MLOAD STOP JUMPDEST DUP1 MLOAD DUP3 MSTORE PUSH2 0x190 SWAP2 SWAP1 PUSH1 0xA0 SWAP1 DUP2 SWAP1 PUSH2 0x6D6 PUSH1 0x20 DUP3 ADD MLOAD PUSH1 0x20 DUP7 ADD MSTORE JUMP JUMPDEST PUSH2 0x6E8 PUSH1 0x40 DUP3 ADD MLOAD PUSH1 0x40 DUP7 ADD SWAP1 PUSH2 0x503 JUMP JUMPDEST PUSH2 0x6F7 PUSH1 0x60 DUP3 ADD MLOAD PUSH1 0x60 DUP7 ADD MSTORE JUMP JUMPDEST PUSH2 0x706 PUSH1 0x80 DUP3 ADD MLOAD PUSH1 0x80 DUP7 ADD MSTORE JUMP JUMPDEST ADD MLOAD ISZERO ISZERO SWAP2 ADD MSTORE JUMP JUMPDEST PUSH1 0xC0 DUP2 ADD SWAP3 SWAP2 PUSH2 0x190 SWAP2 SWAP1 PUSH2 0x6B9 JUMP JUMPDEST CALLVALUE PUSH2 0x157 JUMPI PUSH2 0x1BE PUSH2 0x73A PUSH2 0x735 CALLDATASIZE PUSH1 0x4 PUSH2 0x2F3 JUMP JUMPDEST PUSH2 0x124C JUMP JUMPDEST PUSH1 0x40 MLOAD SWAP2 DUP3 SWAP2 DUP3 PUSH2 0x70F JUMP JUMPDEST PUSH2 0x172 SWAP2 PUSH1 0x8 MUL SHR PUSH2 0x1C2 JUMP JUMPDEST SWAP1 PUSH2 0x172 SWAP2 SLOAD PUSH2 0x746 JUMP JUMPDEST PUSH2 0x172 PUSH1 0x0 PUSH1 0x2 PUSH2 0x753 JUMP JUMPDEST PUSH1 0x20 DUP2 ADD SWAP3 SWAP2 PUSH2 0x190 SWAP2 SWAP1 PUSH2 0x503 JUMP JUMPDEST CALLVALUE PUSH2 0x157 JUMPI PUSH2 0x78A CALLDATASIZE PUSH1 0x4 PUSH2 0x15C JUMP JUMPDEST PUSH2 0x1BE PUSH2 0x795 PUSH2 0x75E JUMP JUMPDEST PUSH1 0x40 MLOAD SWAP2 DUP3 SWAP2 DUP3 PUSH2 0x76A JUMP JUMPDEST PUSH2 0x172 PUSH1 0x0 PUSH1 0x3 PUSH2 0x175 JUMP JUMPDEST CALLVALUE PUSH2 0x157 JUMPI PUSH2 0x7BD CALLDATASIZE PUSH1 0x4 PUSH2 0x15C JUMP JUMPDEST PUSH2 0x1BE PUSH2 0x1AD PUSH2 0x7A1 JUMP JUMPDEST CALLVALUE PUSH2 0x157 JUMPI PUSH2 0x7D8 CALLDATASIZE PUSH1 0x4 PUSH2 0x15C JUMP JUMPDEST PUSH2 0x6B4 PUSH2 0x12D6 JUMP JUMPDEST PUSH2 0x172 SWAP1 PUSH2 0x492 JUMP JUMPDEST PUSH2 0x172 SWAP1 SLOAD PUSH2 0x7E0 JUMP JUMPDEST PUSH2 0x7FE SWAP1 PUSH1 0x6 PUSH2 0x314 JUMP JUMPDEST SWAP1 PUSH2 0x808 DUP3 PUSH2 0x325 JUMP JUMPDEST SWAP2 PUSH2 0x815 PUSH1 0x1 DUP3 ADD PUSH2 0x325 JUMP JUMPDEST SWAP2 PUSH2 0x822 PUSH1 0x2 DUP4 ADD PUSH2 0x338 JUMP JUMPDEST SWAP2 PUSH2 0x82F PUSH1 0x3 DUP3 ADD PUSH2 0x325 JUMP JUMPDEST SWAP2 PUSH2 0x172 PUSH1 0x5 PUSH2 0x841 PUSH1 0x4 DUP6 ADD PUSH2 0x325 JUMP JUMPDEST SWAP4 ADD PUSH2 0x7E9 JUMP JUMPDEST SWAP2 SWAP5 PUSH2 0x888 PUSH2 0x88F SWAP3 SWAP9 SWAP8 SWAP6 PUSH2 0x881 PUSH1 0xA0 SWAP7 PUSH2 0x877 PUSH2 0x190 SWAP11 PUSH2 0x870 PUSH1 0xC0 DUP11 ADD SWAP15 PUSH1 0x0 DUP12 ADD MSTORE JUMP JUMPDEST PUSH1 0x20 DUP10 ADD MSTORE JUMP JUMPDEST PUSH1 0x40 DUP8 ADD SWAP1 PUSH2 0x503 JUMP JUMPDEST PUSH1 0x60 DUP6 ADD MSTORE JUMP JUMPDEST PUSH1 0x80 DUP4 ADD MSTORE JUMP JUMPDEST ADD SWAP1 ISZERO ISZERO SWAP1 MSTORE JUMP JUMPDEST CALLVALUE PUSH2 0x157 JUMPI PUSH2 0x1BE PUSH2 0x8B2 PUSH2 0x8AD CALLDATASIZE PUSH1 0x4 PUSH2 0x2F3 JUMP JUMPDEST PUSH2 0x7F3 JUMP JUMPDEST SWAP3 PUSH2 0x8C2 SWAP7 SWAP5 SWAP7 SWAP3 SWAP2 SWAP3 PUSH1 0x40 MLOAD SWAP1 JUMP JUMPDEST SWAP7 DUP8 SWAP7 DUP8 PUSH2 0x848 JUMP JUMPDEST CALLVALUE PUSH2 0x157 JUMPI PUSH2 0x8DB CALLDATASIZE PUSH1 0x4 PUSH2 0x15C JUMP JUMPDEST PUSH2 0x1BE PUSH2 0x795 PUSH2 0x12DE JUMP JUMPDEST CALLVALUE PUSH2 0x157 JUMPI PUSH2 0x6B4 PUSH2 0x8F9 CALLDATASIZE PUSH1 0x4 PUSH2 0x2F3 JUMP JUMPDEST PUSH2 0x1371 JUMP JUMPDEST CALLVALUE PUSH2 0x157 JUMPI PUSH2 0x6B4 PUSH2 0x911 CALLDATASIZE PUSH1 0x4 PUSH2 0x2F3 JUMP JUMPDEST PUSH2 0x1575 JUMP JUMPDEST SWAP2 SWAP1 PUSH1 0x40 DUP4 DUP3 SUB SLT PUSH2 0x157 JUMPI PUSH2 0x172 SWAP1 PUSH1 0x20 PUSH2 0x932 DUP3 DUP7 PUSH2 0x2E6 JUMP JUMPDEST SWAP5 ADD PUSH2 0x2E6 JUMP JUMPDEST CALLVALUE PUSH2 0x157 JUMPI PUSH2 0x6B4 PUSH2 0x94C CALLDATASIZE PUSH1 0x4 PUSH2 0x916 JUMP JUMPDEST SWAP1 PUSH2 0x1A07 JUMP JUMPDEST CALLVALUE PUSH2 0x157 JUMPI PUSH2 0x6B4 PUSH2 0x965 CALLDATASIZE PUSH1 0x4 PUSH2 0x2F3 JUMP JUMPDEST PUSH2 0x1A28 JUMP JUMPDEST PUSH2 0x172 PUSH1 0x0 PUSH1 0x4 PUSH2 0x175 JUMP JUMPDEST CALLVALUE PUSH2 0x157 JUMPI PUSH2 0x986 CALLDATASIZE PUSH1 0x4 PUSH2 0x15C JUMP JUMPDEST PUSH2 0x1BE PUSH2 0x1AD PUSH2 0x96A JUMP JUMPDEST DUP1 MLOAD DUP3 MSTORE SWAP1 PUSH2 0x172 SWAP1 PUSH1 0xC0 DUP1 PUSH2 0x9C8 PUSH1 0xE0 DUP5 ADD PUSH2 0x9B6 PUSH1 0x20 DUP9 ADD MLOAD PUSH1 0x20 DUP8 ADD SWAP1 PUSH2 0x503 JUMP JUMPDEST PUSH1 0x40 DUP8 ADD MLOAD DUP6 DUP3 SUB PUSH1 0x40 DUP8 ADD MSTORE PUSH2 0x52F JUMP JUMPDEST SWAP5 PUSH2 0x9D8 PUSH1 0x60 DUP3 ADD MLOAD PUSH1 0x60 DUP7 ADD MSTORE JUMP JUMPDEST PUSH1 0x80 DUP2 DUP2 ADD MLOAD PUSH8 0xFFFFFFFFFFFFFFFF AND SWAP1 DUP6 ADD MSTORE PUSH1 0xA0 DUP2 DUP2 ADD MLOAD ISZERO ISZERO SWAP1 DUP6 ADD MSTORE ADD MLOAD SWAP2 ADD MSTORE JUMP JUMPDEST PUSH1 0x20 DUP1 DUP3 MSTORE PUSH2 0x172 SWAP3 SWAP2 ADD SWAP1 PUSH2 0x991 JUMP JUMPDEST CALLVALUE PUSH2 0x157 JUMPI PUSH2 0x1BE PUSH2 0xA2B PUSH2 0xA26 CALLDATASIZE PUSH1 0x4 PUSH2 0x2F3 JUMP JUMPDEST PUSH2 0x1AFE JUMP JUMPDEST PUSH1 0x40 MLOAD SWAP2 DUP3 SWAP2 DUP3 PUSH2 0x9FF JUMP JUMPDEST PUSH2 0x172 PUSH1 0x0 PUSH1 0x9 PUSH2 0x175 JUMP JUMPDEST CALLVALUE PUSH2 0x157 JUMPI PUSH2 0xA53 CALLDATASIZE PUSH1 0x4 PUSH2 0x15C JUMP JUMPDEST PUSH2 0x1BE PUSH2 0x1AD PUSH2 0xA37 JUMP JUMPDEST SWAP1 ISZERO ISZERO DUP2 MSTORE PUSH8 0xFFFFFFFFFFFFFFFF SWAP1 SWAP2 AND PUSH1 0x20 DUP3 ADD MSTORE PUSH1 0x40 ADD SWAP1 JUMP JUMPDEST CALLVALUE PUSH2 0x157 JUMPI PUSH2 0xA92 PUSH2 0xA8D CALLDATASIZE PUSH1 0x4 PUSH2 0x2F3 JUMP JUMPDEST PUSH2 0x1BE8 JUMP JUMPDEST SWAP1 PUSH2 0x1BE PUSH2 0xA9F PUSH1 0x40 MLOAD SWAP1 JUMP JUMPDEST SWAP3 DUP4 SWAP3 DUP4 PUSH2 0xA5E JUMP JUMPDEST CALLVALUE PUSH2 0x157 JUMPI PUSH2 0x6B4 PUSH2 0xABB CALLDATASIZE PUSH1 0x4 PUSH2 0x1F8 JUMP JUMPDEST PUSH2 0x1C67 JUMP JUMPDEST PUSH1 0x20 DUP1 DUP3 MSTORE PUSH1 0x12 SWAP1 DUP3 ADD MSTORE PUSH32 0x496E73756666696369656E74207374616B650000000000000000000000000000 PUSH1 0x40 DUP3 ADD MSTORE PUSH1 0x60 ADD SWAP1 JUMP JUMPDEST ISZERO PUSH2 0xAFE JUMPI JUMP JUMPDEST PUSH1 0x40 MLOAD PUSH3 0x461BCD PUSH1 0xE5 SHL DUP2 MSTORE DUP1 PUSH2 0xB17 PUSH1 0x4 DUP3 ADD PUSH2 0xAC0 JUMP JUMPDEST SUB SWAP1 REVERT JUMPDEST SWAP1 PUSH2 0x190 SWAP4 SWAP3 SWAP2 PUSH2 0xB53 PUSH2 0xB38 PUSH2 0xB33 CALLER PUSH1 0x7 PUSH2 0x241 JUMP JUMPDEST PUSH2 0x325 JUMP JUMPDEST PUSH2 0xB4C PUSH2 0xB48 PUSH2 0x172 PUSH1 0x3 PUSH2 0x325 JUMP JUMPDEST SWAP2 SWAP1 JUMP JUMPDEST LT ISZERO PUSH2 0xAF7 JUMP JUMPDEST PUSH2 0xFD7 JUMP JUMPDEST PUSH1 0x20 DUP1 DUP3 MSTORE PUSH1 0x14 SWAP1 DUP3 ADD MSTORE PUSH32 0x496E76616C6964206D6574616461746120555249000000000000000000000000 PUSH1 0x40 DUP3 ADD MSTORE PUSH1 0x60 ADD SWAP1 JUMP JUMPDEST ISZERO PUSH2 0xB96 JUMPI JUMP JUMPDEST PUSH1 0x40 MLOAD PUSH3 0x461BCD PUSH1 0xE5 SHL DUP2 MSTORE DUP1 PUSH2 0xB17 PUSH1 0x4 DUP3 ADD PUSH2 0xB58 JUMP JUMPDEST PUSH1 0x20 DUP1 DUP3 MSTORE PUSH1 0xD SWAP1 DUP3 ADD MSTORE PUSH32 0x496E76616C696420707269636500000000000000000000000000000000000000 PUSH1 0x40 DUP3 ADD MSTORE PUSH1 0x60 ADD SWAP1 JUMP JUMPDEST ISZERO PUSH2 0xBED JUMPI JUMP JUMPDEST PUSH1 0x40 MLOAD PUSH3 0x461BCD PUSH1 0xE5 SHL DUP2 MSTORE DUP1 PUSH2 0xB17 PUSH1 0x4 DUP3 ADD PUSH2 0xBAF JUMP JUMPDEST PUSH4 0x4E487B71 PUSH1 0xE0 SHL PUSH1 0x0 MSTORE PUSH1 0x11 PUSH1 0x4 MSTORE PUSH1 0x24 PUSH1 0x0 REVERT JUMPDEST PUSH1 0x0 NOT DUP2 EQ PUSH2 0xC2B JUMPI PUSH1 0x1 ADD SWAP1 JUMP JUMPDEST PUSH2 0xC06 JUMP JUMPDEST SWAP1 PUSH1 0x0 NOT SWAP1 JUMPDEST SWAP2 DUP2 NOT AND SWAP2 AND OR SWAP1 JUMP JUMPDEST SWAP1 PUSH2 0xC50 PUSH2 0x172 PUSH2 0xC57 SWAP3 PUSH2 0x307 JUMP JUMPDEST DUP3 SLOAD PUSH2 0xC30 JUMP JUMPDEST SWAP1 SSTORE JUMP JUMPDEST SWAP1 PUSH2 0x190 PUSH2 0xC68 PUSH1 0x40 MLOAD SWAP1 JUMP JUMPDEST SWAP3 DUP4 PUSH2 0x426 JUMP JUMPDEST PUSH2 0x172 PUSH1 0xE0 PUSH2 0xC5B JUMP JUMPDEST SWAP1 PUSH2 0x18C SWAP1 PUSH2 0x1C2 JUMP JUMPDEST PUSH8 0xFFFFFFFFFFFFFFFF DUP2 GT PUSH2 0x448 JUMPI PUSH1 0x20 SWAP1 PUSH1 0x1F ADD PUSH1 0x1F NOT AND ADD SWAP1 JUMP JUMPDEST SWAP1 DUP3 PUSH1 0x0 SWAP4 SWAP3 DUP3 CALLDATACOPY ADD MSTORE JUMP JUMPDEST SWAP1 SWAP3 SWAP2 SWAP3 PUSH2 0xCC1 PUSH2 0xCBC DUP3 PUSH2 0xC83 JUMP JUMPDEST PUSH2 0xC5B JUMP JUMPDEST SWAP4 DUP2 DUP6 MSTORE DUP2 DUP4 ADD GT PUSH2 0x157 JUMPI PUSH2 0x190 SWAP2 PUSH1 0x20 DUP6 ADD SWAP1 PUSH2 0xCA0 JUMP JUMPDEST PUSH2 0x172 SWAP2 CALLDATASIZE SWAP2 PUSH2 0xCAC JUMP JUMPDEST MLOAD SWAP1 JUMP JUMPDEST PUSH2 0x172 SWAP1 MLOAD PUSH2 0x1C2 JUMP JUMPDEST SWAP1 PUSH20 0xFFFFFFFFFFFFFFFFFFFFFFFFFFFFFFFFFFFFFFFF SWAP1 PUSH2 0xC36 JUMP JUMPDEST SWAP1 PUSH2 0xD20 PUSH2 0x172 PUSH2 0xC57 SWAP3 PUSH2 0x238 JUMP JUMPDEST DUP3 SLOAD PUSH2 0xCF4 JUMP JUMPDEST SWAP2 PUSH1 0x0 NOT PUSH1 0x8 SWAP3 SWAP1 SWAP3 MUL SWAP2 DUP3 SHL SWAP2 SHL PUSH2 0xC36 JUMP JUMPDEST SWAP2 SWAP1 PUSH2 0xD4C PUSH2 0x172 PUSH2 0xC57 SWAP4 PUSH2 0x307 JUMP JUMPDEST SWAP1 DUP4 SLOAD PUSH2 0xD27 JUMP JUMPDEST PUSH2 0x190 SWAP2 PUSH1 0x0 SWAP2 PUSH2 0xD3B JUMP JUMPDEST DUP2 DUP2 LT PUSH2 0xD6B JUMPI POP POP JUMP JUMPDEST DUP1 PUSH2 0xD79 PUSH1 0x0 PUSH1 0x1 SWAP4 PUSH2 0xD54 JUMP JUMPDEST ADD PUSH2 0xD60 JUMP JUMPDEST SWAP2 SWAP1 PUSH1 0x1F DUP2 GT PUSH2 0xD8E JUMPI POP POP POP JUMP JUMPDEST PUSH2 0xDA0 PUSH2 0x190 SWAP4 PUSH1 0x0 MSTORE PUSH1 0x20 PUSH1 0x0 KECCAK256 SWAP1 JUMP JUMPDEST SWAP1 PUSH1 0x20 PUSH1 0x1F DUP5 ADD DUP2 SWAP1 DIV DUP4 ADD SWAP4 LT PUSH2 0xDC2 JUMPI JUMPDEST PUSH1 0x20 PUSH1 0x1F SWAP1 SWAP2 ADD DIV ADD SWAP1 PUSH2 0xD60 JUMP JUMPDEST SWAP1 SWAP2 POP DUP2 SWAP1 PUSH2 0xDB3 JUMP JUMPDEST SWAP1 PUSH2 0xDD5 DUP2 MLOAD SWAP1 JUMP JUMPDEST SWAP1 PUSH8 0xFFFFFFFFFFFFFFFF DUP3 GT PUSH2 0x448 JUMPI PUSH2 0xDF9 DUP3 PUSH2 0xDF3 DUP6 SLOAD PUSH2 0x358 JUMP JUMPDEST DUP6 PUSH2 0xD7F JUMP JUMPDEST PUSH1 0x20 SWAP1 PUSH1 0x1F DUP4 GT PUSH1 0x1 EQ PUSH2 0xE34 JUMPI PUSH2 0xC57 SWAP3 SWAP2 PUSH1 0x0 SWAP2 DUP4 PUSH2 0xE29 JUMPI JUMPDEST POP POP PUSH1 0x0 NOT PUSH1 0x8 DUP4 MUL SHR NOT AND SWAP1 PUSH1 0x2 MUL OR SWAP1 JUMP JUMPDEST ADD MLOAD SWAP1 POP CODESIZE DUP1 PUSH2 0xE15 JUMP JUMPDEST PUSH1 0x1F NOT DUP4 AND SWAP2 PUSH2 0xE49 DUP6 PUSH1 0x0 MSTORE PUSH1 0x20 PUSH1 0x0 KECCAK256 SWAP1 JUMP JUMPDEST SWAP3 PUSH1 0x0 JUMPDEST DUP2 DUP2 LT PUSH2 0xE87 JUMPI POP SWAP2 PUSH1 0x2 SWAP4 SWAP2 DUP6 PUSH1 0x1 SWAP7 SWAP5 LT PUSH2 0xE6E JUMPI JUMPDEST POP POP POP MUL ADD SWAP1 SSTORE JUMP JUMPDEST ADD MLOAD PUSH1 0x0 NOT PUSH1 0x8 PUSH1 0x1F DUP6 AND MUL SHR NOT AND SWAP1 SSTORE CODESIZE DUP1 DUP1 PUSH2 0xE65 JUMP JUMPDEST SWAP2 SWAP4 PUSH1 0x20 PUSH1 0x1 DUP2 SWAP3 DUP8 DUP8 ADD MLOAD DUP2 SSTORE ADD SWAP6 ADD SWAP3 ADD PUSH2 0xE4D JUMP JUMPDEST SWAP1 PUSH2 0x190 SWAP2 PUSH2 0xDCC JUMP JUMPDEST MLOAD PUSH8 0xFFFFFFFFFFFFFFFF AND SWAP1 JUMP JUMPDEST SWAP1 PUSH8 0xFFFFFFFFFFFFFFFF SWAP1 PUSH2 0xC36 JUMP JUMPDEST PUSH2 0x473 PUSH2 0x172 PUSH2 0x172 SWAP3 PUSH8 0xFFFFFFFFFFFFFFFF AND SWAP1 JUMP JUMPDEST SWAP1 PUSH2 0xEEE PUSH2 0x172 PUSH2 0xC57 SWAP3 PUSH2 0xEC7 JUMP JUMPDEST DUP3 SLOAD PUSH2 0xEB7 JUMP JUMPDEST MLOAD ISZERO ISZERO SWAP1 JUMP JUMPDEST SWAP1 PUSH9 0xFF0000000000000000 SWAP1 PUSH1 0x40 SHL PUSH2 0xC36 JUMP JUMPDEST ISZERO ISZERO SWAP1 JUMP JUMPDEST SWAP1 PUSH2 0xF24 PUSH2 0x172 PUSH2 0xC57 SWAP3 PUSH2 0xF0F JUMP JUMPDEST DUP3 SLOAD PUSH2 0xEFB JUMP JUMPDEST PUSH1 0x5 PUSH2 0xFC6 PUSH1 0xC0 PUSH2 0x190 SWAP5 PUSH2 0xF4B PUSH2 0xF45 PUSH1 0x0 DUP4 ADD PUSH2 0xCE6 JUMP JUMPDEST DUP7 PUSH2 0xC40 JUMP JUMPDEST PUSH2 0xF63 PUSH2 0xF5A PUSH1 0x20 DUP4 ADD PUSH2 0xCEA JUMP JUMPDEST PUSH1 0x1 DUP8 ADD PUSH2 0xD10 JUMP JUMPDEST PUSH2 0xF7A PUSH2 0xF71 PUSH1 0x40 DUP4 ADD MLOAD SWAP1 JUMP JUMPDEST PUSH1 0x2 DUP8 ADD PUSH2 0xE9F JUMP JUMPDEST PUSH2 0xF92 PUSH2 0xF89 PUSH1 0x60 DUP4 ADD PUSH2 0xCE6 JUMP JUMPDEST PUSH1 0x3 DUP8 ADD PUSH2 0xC40 JUMP JUMPDEST PUSH2 0xFC0 PUSH1 0x4 DUP7 ADD PUSH2 0xFAE PUSH2 0xFA8 PUSH1 0x80 DUP6 ADD PUSH2 0xEA9 JUMP JUMPDEST DUP3 PUSH2 0xEDE JUMP JUMPDEST PUSH2 0xFBA PUSH1 0xA0 DUP5 ADD PUSH2 0xEF5 JUMP JUMPDEST SWAP1 PUSH2 0xF14 JUMP JUMPDEST ADD PUSH2 0xCE6 JUMP JUMPDEST SWAP2 ADD PUSH2 0xC40 JUMP JUMPDEST SWAP1 PUSH2 0x190 SWAP2 PUSH2 0xF2B JUMP JUMPDEST SWAP1 PUSH2 0x10A8 PUSH2 0x10AF SWAP2 PUSH2 0x1097 PUSH2 0x10C8 SWAP6 SWAP7 PUSH2 0x107B PUSH2 0x1074 PUSH2 0xFFD PUSH2 0xFF8 DUP7 DUP11 SWAP2 JUMP JUMPDEST SWAP1 POP SWAP1 JUMP JUMPDEST SWAP5 PUSH2 0x1016 PUSH1 0x0 SWAP7 PUSH2 0x1010 PUSH2 0xB48 DUP10 PUSH2 0x307 JUMP JUMPDEST GT PUSH2 0xB8F JUMP JUMPDEST PUSH2 0x1029 PUSH2 0x1022 DUP8 PUSH2 0x307 JUMP JUMPDEST DUP13 GT PUSH2 0xBE6 JUMP JUMPDEST PUSH2 0x1045 PUSH2 0x103E PUSH2 0x1039 PUSH1 0x4 PUSH2 0x325 JUMP JUMPDEST PUSH2 0xC1C JUMP JUMPDEST PUSH1 0x4 PUSH2 0xC40 JUMP JUMPDEST PUSH2 0x104F PUSH1 0x4 PUSH2 0x325 JUMP JUMPDEST SWAP9 PUSH2 0x1062 PUSH2 0x105B PUSH2 0xC6F JUMP JUMPDEST SWAP11 DUP9 DUP13 ADD MSTORE JUMP JUMPDEST PUSH2 0x106F CALLER PUSH1 0x20 DUP13 ADD PUSH2 0xC79 JUMP JUMPDEST PUSH2 0xCDB JUMP JUMPDEST PUSH1 0x40 DUP9 ADD MSTORE JUMP JUMPDEST PUSH2 0x1086 DUP9 PUSH1 0x60 DUP9 ADD MSTORE JUMP JUMPDEST PUSH8 0xFFFFFFFFFFFFFFFF AND PUSH1 0x80 DUP7 ADD MSTORE JUMP JUMPDEST PUSH1 0x1 PUSH1 0xA0 DUP6 ADD MSTORE PUSH2 0x307 JUMP JUMPDEST PUSH2 0x307 JUMP JUMPDEST PUSH1 0xC0 DUP4 ADD MSTORE JUMP JUMPDEST PUSH2 0x10C3 PUSH2 0x10BC PUSH1 0x4 PUSH2 0x325 JUMP JUMPDEST PUSH1 0x5 PUSH2 0x314 JUMP JUMPDEST PUSH2 0xFCD JUMP JUMPDEST PUSH2 0x10D5 PUSH2 0x10A3 PUSH1 0x4 PUSH2 0x325 JUMP JUMPDEST PUSH32 0xEFA8BE02DF15B3D9E3DF64C38716DFFEFE08137DCC422847518158ED0F7AC29E PUSH2 0x110C PUSH2 0x1102 CALLER PUSH2 0x238 JUMP JUMPDEST SWAP4 PUSH2 0x1B1 PUSH1 0x40 MLOAD SWAP1 JUMP JUMPDEST SUB SWAP1 LOG3 JUMP JUMPDEST SWAP1 PUSH2 0x190 SWAP4 SWAP3 SWAP2 PUSH2 0xB1B JUMP JUMPDEST PUSH2 0x172 PUSH1 0xC0 PUSH2 0xC5B JUMP JUMPDEST PUSH2 0x112F PUSH2 0x111D JUMP JUMPDEST SWAP1 PUSH1 0x0 DUP3 MSTORE PUSH1 0x20 DUP1 DUP1 DUP1 DUP1 DUP1 DUP8 ADD PUSH1 0x0 JUMPDEST DUP2 MSTORE ADD PUSH1 0x0 DUP2 MSTORE ADD PUSH1 0x0 DUP2 MSTORE ADD PUSH1 0x0 DUP2 MSTORE ADD PUSH1 0x0 SWAP1 MSTORE POP JUMP JUMPDEST PUSH2 0x172 PUSH2 0x1127 JUMP JUMPDEST PUSH1 0x20 DUP1 DUP3 MSTORE PUSH1 0x13 SWAP1 DUP3 ADD MSTORE PUSH32 0x496E76616C696420707572636861736520494400000000000000000000000000 PUSH1 0x40 DUP3 ADD MSTORE PUSH1 0x60 ADD SWAP1 JUMP JUMPDEST ISZERO PUSH2 0x119F JUMPI JUMP JUMPDEST PUSH1 0x40 MLOAD PUSH3 0x461BCD PUSH1 0xE5 SHL DUP2 MSTORE DUP1 PUSH2 0xB17 PUSH1 0x4 DUP3 ADD PUSH2 0x1161 JUMP JUMPDEST SWAP1 PUSH2 0x190 PUSH2 0x123A PUSH1 0x5 PUSH2 0x11C9 PUSH2 0x111D JUMP JUMPDEST SWAP5 PUSH2 0x11DA PUSH2 0x11D6 DUP3 PUSH2 0x325 JUMP JUMPDEST DUP8 MSTORE JUMP JUMPDEST PUSH2 0x11F0 PUSH2 0x11E9 PUSH1 0x1 DUP4 ADD PUSH2 0x325 JUMP JUMPDEST PUSH1 0x20 DUP9 ADD MSTORE JUMP JUMPDEST PUSH2 0x1208 PUSH2 0x11FF PUSH1 0x2 DUP4 ADD PUSH2 0x338 JUMP JUMPDEST PUSH1 0x40 DUP9 ADD PUSH2 0xC79 JUMP JUMPDEST PUSH2 0x121E PUSH2 0x1217 PUSH1 0x3 DUP4 ADD PUSH2 0x325 JUMP JUMPDEST PUSH1 0x60 DUP9 ADD MSTORE JUMP JUMPDEST PUSH2 0x1234 PUSH2 0x122D PUSH1 0x4 DUP4 ADD PUSH2 0x325 JUMP JUMPDEST PUSH1 0x80 DUP9 ADD MSTORE JUMP JUMPDEST ADD PUSH2 0x7E9 JUMP JUMPDEST ISZERO ISZERO PUSH1 0xA0 DUP5 ADD MSTORE JUMP JUMPDEST PUSH2 0x172 SWAP1 PUSH2 0x11B8 JUMP JUMPDEST PUSH2 0x127E PUSH2 0x172 SWAP2 PUSH2 0x125B PUSH2 0x1159 JUMP JUMPDEST POP PUSH2 0x1266 PUSH1 0x0 PUSH2 0x307 JUMP JUMPDEST DUP2 GT DUP1 PUSH2 0x1283 JUMPI JUMPDEST PUSH2 0x1277 SWAP1 PUSH2 0x1198 JUMP JUMPDEST PUSH1 0x6 PUSH2 0x314 JUMP JUMPDEST PUSH2 0x1243 JUMP JUMPDEST POP PUSH2 0x1277 PUSH2 0x1294 PUSH2 0x172 PUSH1 0x8 PUSH2 0x325 JUMP JUMPDEST DUP3 GT ISZERO SWAP1 POP PUSH2 0x126E JUMP JUMPDEST PUSH2 0x12A6 PUSH2 0x1C70 JUMP JUMPDEST PUSH2 0x190 PUSH2 0x12C4 JUMP JUMPDEST PUSH2 0x1C2 PUSH2 0x172 PUSH2 0x172 SWAP3 SWAP1 JUMP JUMPDEST PUSH2 0x172 SWAP1 PUSH2 0x12AE JUMP JUMPDEST PUSH2 0x190 PUSH2 0x12D1 PUSH1 0x0 PUSH2 0x12BB JUMP JUMPDEST PUSH2 0x1CD0 JUMP JUMPDEST PUSH2 0x190 PUSH2 0x129E JUMP JUMPDEST PUSH2 0x172 PUSH1 0x0 PUSH2 0x338 JUMP JUMPDEST PUSH2 0x190 SWAP1 PUSH2 0x12F4 PUSH2 0x1C70 JUMP JUMPDEST PUSH2 0x1350 JUMP JUMPDEST PUSH1 0x20 DUP1 DUP3 MSTORE PUSH1 0x11 SWAP1 DUP3 ADD MSTORE PUSH32 0x466565207261746520746F6F2068696768000000000000000000000000000000 PUSH1 0x40 DUP3 ADD MSTORE PUSH1 0x60 ADD SWAP1 JUMP JUMPDEST ISZERO PUSH2 0x1337 JUMPI JUMP JUMPDEST PUSH1 0x40 MLOAD PUSH3 0x461BCD PUSH1 0xE5 SHL DUP2 MSTORE DUP1 PUSH2 0xB17 PUSH1 0x4 DUP3 ADD PUSH2 0x12F9 JUMP JUMPDEST PUSH2 0x190 SWAP1 PUSH2 0x136A PUSH2 0x1362 PUSH2 0x3E8 PUSH2 0x307 JUMP JUMPDEST DUP3 GT ISZERO PUSH2 0x1330 JUMP JUMPDEST PUSH1 0x9 PUSH2 0xC40 JUMP JUMPDEST PUSH2 0x190 SWAP1 PUSH2 0x12E8 JUMP JUMPDEST PUSH2 0x138B SWAP1 PUSH2 0x1386 PUSH2 0x1D32 JUMP JUMPDEST PUSH2 0x1456 JUMP JUMPDEST PUSH2 0x190 PUSH2 0x1D8B JUMP JUMPDEST PUSH1 0x20 DUP1 DUP3 MSTORE PUSH1 0x19 SWAP1 DUP3 ADD MSTORE PUSH32 0x496E73756666696369656E74207374616B6520616D6F756E7400000000000000 PUSH1 0x40 DUP3 ADD MSTORE PUSH1 0x60 ADD SWAP1 JUMP JUMPDEST ISZERO PUSH2 0x13D1 JUMPI JUMP JUMPDEST PUSH1 0x40 MLOAD PUSH3 0x461BCD PUSH1 0xE5 SHL DUP2 MSTORE DUP1 PUSH2 0xB17 PUSH1 0x4 DUP3 ADD PUSH2 0x1393 JUMP JUMPDEST DUP1 ISZERO ISZERO PUSH2 0x1E4 JUMP JUMPDEST SWAP1 POP MLOAD SWAP1 PUSH2 0x190 DUP3 PUSH2 0x13EA JUMP JUMPDEST SWAP1 PUSH1 0x20 DUP3 DUP3 SUB SLT PUSH2 0x157 JUMPI PUSH2 0x172 SWAP2 PUSH2 0x13F2 JUMP JUMPDEST PUSH1 0x40 SWAP1 PUSH2 0x5CC PUSH2 0x190 SWAP5 SWAP7 SWAP6 SWAP4 SWAP7 PUSH2 0x1433 PUSH1 0x60 DUP5 ADD SWAP9 PUSH1 0x0 DUP6 ADD SWAP1 PUSH2 0x503 JUMP JUMPDEST PUSH1 0x20 DUP4 ADD SWAP1 PUSH2 0x503 JUMP JUMPDEST PUSH1 0x40 MLOAD RETURNDATASIZE PUSH1 0x0 DUP3 RETURNDATACOPY RETURNDATASIZE SWAP1 REVERT JUMPDEST SWAP2 SWAP1 DUP3 ADD DUP1 SWAP3 GT PUSH2 0xC2B JUMPI JUMP JUMPDEST PUSH2 0x146E PUSH2 0x1466 PUSH2 0x172 PUSH1 0x3 PUSH2 0x325 JUMP JUMPDEST DUP3 LT ISZERO PUSH2 0x13CA JUMP JUMPDEST PUSH2 0x14D1 PUSH1 0x20 DUP3 PUSH2 0x149D PUSH32 0x0 PUSH2 0x238 JUMP JUMPDEST PUSH2 0x14A6 ADDRESS PUSH2 0x238 JUMP JUMPDEST PUSH1 0x0 PUSH2 0x14B1 PUSH1 0x40 MLOAD SWAP1 JUMP JUMPDEST DUP1 SWAP7 DUP2 SWAP6 DUP3 SWAP5 PUSH2 0x14C5 PUSH4 0x23B872DD PUSH1 0xE0 SHL SWAP1 JUMP JUMPDEST DUP5 MSTORE CALLER PUSH1 0x4 DUP6 ADD PUSH2 0x1413 JUMP JUMPDEST SUB SWAP3 GAS CALL DUP1 ISZERO PUSH2 0x1570 JUMPI PUSH2 0x1543 JUMPI JUMPDEST POP PUSH2 0x1507 PUSH2 0x14EF CALLER PUSH1 0x7 PUSH2 0x241 JUMP JUMPDEST PUSH2 0x1501 DUP4 PUSH2 0x14FC DUP4 PUSH2 0x325 JUMP JUMPDEST PUSH2 0x1449 JUMP JUMPDEST SWAP1 PUSH2 0xC40 JUMP JUMPDEST PUSH32 0xCD6DBB0E62EEB71E114BAE8B2E2547921DD19209BEBF32B595BE3E7D247DBBB4 PUSH2 0x153E PUSH2 0x1534 CALLER PUSH2 0x238 JUMP JUMPDEST SWAP3 PUSH2 0x1B1 PUSH1 0x40 MLOAD SWAP1 JUMP JUMPDEST SUB SWAP1 LOG2 JUMP JUMPDEST PUSH2 0x1564 SWAP1 PUSH1 0x20 RETURNDATASIZE PUSH1 0x20 GT PUSH2 0x1569 JUMPI JUMPDEST PUSH2 0x155C DUP2 DUP4 PUSH2 0x426 JUMP JUMPDEST DUP2 ADD SWAP1 PUSH2 0x13FF JUMP JUMPDEST PUSH2 0x14E0 JUMP JUMPDEST POP RETURNDATASIZE PUSH2 0x1552 JUMP JUMPDEST PUSH2 0x143D JUMP JUMPDEST PUSH2 0x190 SWAP1 PUSH2 0x137A JUMP JUMPDEST PUSH1 0x20 DUP1 DUP3 MSTORE PUSH1 0x12 SWAP1 DUP3 ADD MSTORE PUSH32 0x496E76616C696420646174617365742049440000000000000000000000000000 PUSH1 0x40 DUP3 ADD MSTORE PUSH1 0x60 ADD SWAP1 JUMP JUMPDEST ISZERO PUSH2 0x15BC JUMPI JUMP JUMPDEST PUSH1 0x40 MLOAD PUSH3 0x461BCD PUSH1 0xE5 SHL DUP2 MSTORE DUP1 PUSH2 0xB17 PUSH1 0x4 DUP3 ADD PUSH2 0x157E JUMP JUMPDEST PUSH1 0x20 DUP1 DUP3 MSTORE PUSH1 0x12 SWAP1 DUP3 ADD MSTORE PUSH32 0x44617461736574206E6F74206163746976650000000000000000000000000000 PUSH1 0x40 DUP3 ADD MSTORE PUSH1 0x60 ADD SWAP1 JUMP JUMPDEST ISZERO PUSH2 0x1613 JUMPI JUMP JUMPDEST PUSH1 0x40 MLOAD PUSH3 0x461BCD PUSH1 0xE5 SHL DUP2 MSTORE DUP1 PUSH2 0xB17 PUSH1 0x4 DUP3 ADD PUSH2 0x15D5 JUMP JUMPDEST SWAP1 PUSH2 0x190 SWAP2 PUSH2 0x163B PUSH1 0x0 PUSH2 0x307 JUMP JUMPDEST DUP2 GT DUP1 PUSH2 0x166F JUMPI JUMPDEST PUSH2 0x164C SWAP1 PUSH2 0x15B5 JUMP JUMPDEST PUSH2 0x166A PUSH2 0x1665 PUSH1 0x4 PUSH2 0x165F DUP5 PUSH1 0x5 PUSH2 0x314 JUMP JUMPDEST ADD PUSH2 0x498 JUMP JUMPDEST PUSH2 0x160C JUMP JUMPDEST PUSH2 0x168A JUMP JUMPDEST POP PUSH2 0x164C PUSH2 0x1680 PUSH2 0x172 PUSH1 0x4 PUSH2 0x325 JUMP JUMPDEST DUP3 GT ISZERO SWAP1 POP PUSH2 0x1643 JUMP JUMPDEST SWAP1 PUSH2 0x138B SWAP2 PUSH2 0x1697 PUSH2 0x1D32 JUMP JUMPDEST PUSH2 0x17E0 JUMP JUMPDEST PUSH1 0x20 DUP1 DUP3 MSTORE PUSH1 0x13 SWAP1 DUP3 ADD MSTORE PUSH32 0x496E76616C696420626174636820636F756E7400000000000000000000000000 PUSH1 0x40 DUP3 ADD MSTORE PUSH1 0x60 ADD SWAP1 JUMP JUMPDEST ISZERO PUSH2 0x16DA JUMPI JUMP JUMPDEST PUSH1 0x40 MLOAD PUSH3 0x461BCD PUSH1 0xE5 SHL DUP2 MSTORE DUP1 PUSH2 0xB17 PUSH1 0x4 DUP3 ADD PUSH2 0x169C JUMP JUMPDEST DUP2 DUP2 MUL SWAP3 SWAP2 DUP2 ISZERO SWAP2 DUP5 DIV EQ OR ISZERO PUSH2 0xC2B JUMPI JUMP JUMPDEST PUSH4 0x4E487B71 PUSH1 0xE0 SHL PUSH1 0x0 MSTORE PUSH1 0x12 PUSH1 0x4 MSTORE PUSH1 0x24 PUSH1 0x0 REVERT JUMPDEST DUP2 ISZERO PUSH2 0x1726 JUMPI DIV SWAP1 JUMP JUMPDEST PUSH2 0x1706 JUMP JUMPDEST SWAP2 SWAP1 DUP3 SUB SWAP2 DUP3 GT PUSH2 0xC2B JUMPI JUMP JUMPDEST SWAP1 PUSH1 0xFF SWAP1 PUSH2 0xC36 JUMP JUMPDEST SWAP1 PUSH2 0x1751 PUSH2 0x172 PUSH2 0xC57 SWAP3 PUSH2 0xF0F JUMP JUMPDEST DUP3 SLOAD PUSH2 0x1738 JUMP JUMPDEST PUSH1 0x5 PUSH2 0x17CF PUSH1 0xA0 PUSH2 0x190 SWAP5 PUSH2 0x1772 PUSH2 0xF45 PUSH1 0x0 DUP4 ADD PUSH2 0xCE6 JUMP JUMPDEST PUSH2 0x178A PUSH2 0x1781 PUSH1 0x20 DUP4 ADD PUSH2 0xCE6 JUMP JUMPDEST PUSH1 0x1 DUP8 ADD PUSH2 0xC40 JUMP JUMPDEST PUSH2 0x17A2 PUSH2 0x1799 PUSH1 0x40 DUP4 ADD PUSH2 0xCEA JUMP JUMPDEST PUSH1 0x2 DUP8 ADD PUSH2 0xD10 JUMP JUMPDEST PUSH2 0x17B1 PUSH2 0xF89 PUSH1 0x60 DUP4 ADD PUSH2 0xCE6 JUMP JUMPDEST PUSH2 0x17C9 PUSH2 0x17C0 PUSH1 0x80 DUP4 ADD PUSH2 0xCE6 JUMP JUMPDEST PUSH1 0x4 DUP8 ADD PUSH2 0xC40 JUMP JUMPDEST ADD PUSH2 0xEF5 JUMP JUMPDEST SWAP2 ADD PUSH2 0x1741 JUMP JUMPDEST SWAP1 PUSH2 0x190 SWAP2 PUSH2 0x1758 JUMP JUMPDEST PUSH1 0x0 PUSH2 0x17F5 PUSH2 0x17EE DUP3 PUSH2 0x307 JUMP JUMPDEST DUP5 GT PUSH2 0x16D3 JUMP JUMPDEST PUSH2 0x1818 PUSH2 0x1806 PUSH2 0x172 DUP5 PUSH1 0x5 PUSH2 0x314 JUMP JUMPDEST SWAP4 PUSH2 0x1813 PUSH1 0x3 DUP7 ADD PUSH2 0x325 JUMP JUMPDEST PUSH2 0x16F3 JUMP JUMPDEST SWAP3 PUSH2 0x1840 PUSH2 0x182F PUSH2 0x1829 PUSH1 0x9 PUSH2 0x325 JUMP JUMPDEST DUP7 PUSH2 0x16F3 JUMP JUMPDEST PUSH2 0x183A PUSH2 0x2710 PUSH2 0x307 JUMP JUMPDEST SWAP1 PUSH2 0x171C JUMP JUMPDEST SWAP1 PUSH2 0x189C PUSH2 0x184E DUP4 DUP8 PUSH2 0x172B JUMP JUMPDEST SWAP3 PUSH2 0x1878 PUSH32 0x0 PUSH2 0x238 JUMP JUMPDEST PUSH1 0x20 PUSH4 0x23B872DD SWAP3 PUSH2 0x188A PUSH1 0x2 PUSH2 0x338 JUMP JUMPDEST PUSH1 0x40 MLOAD SWAP6 DUP7 SWAP3 DUP4 SWAP3 PUSH2 0x14C5 DUP9 PUSH1 0xE0 SHL SWAP1 JUMP JUMPDEST SUB DUP2 DUP10 DUP6 GAS CALL SWAP3 DUP4 ISZERO PUSH2 0x1570 JUMPI PUSH1 0x20 SWAP4 PUSH2 0x19EC JUMPI JUMPDEST POP PUSH2 0x14C5 DUP7 PUSH2 0x18C2 PUSH1 0x1 DUP8 ADD PUSH2 0x338 JUMP JUMPDEST SWAP4 PUSH2 0x18DC PUSH2 0x18CF PUSH1 0x40 MLOAD SWAP1 JUMP JUMPDEST SWAP9 DUP10 SWAP7 DUP8 SWAP6 DUP7 SWAP5 PUSH1 0xE0 SHL SWAP1 JUMP JUMPDEST SUB SWAP3 GAS CALL DUP1 ISZERO PUSH2 0x1570 JUMPI PUSH2 0x197C SWAP4 PUSH1 0x5 SWAP4 PUSH2 0x196E SWAP3 PUSH2 0x19CF JUMPI JUMPDEST POP PUSH2 0x190E PUSH2 0x1907 PUSH2 0x1039 PUSH1 0x8 PUSH2 0x325 JUMP JUMPDEST PUSH1 0x8 PUSH2 0xC40 JUMP JUMPDEST PUSH2 0x195C PUSH2 0x191B PUSH1 0x8 PUSH2 0x325 JUMP JUMPDEST SWAP2 PUSH2 0x192E PUSH2 0x1927 PUSH2 0x111D JUMP JUMPDEST SWAP4 DUP3 DUP6 ADD MSTORE JUMP JUMPDEST PUSH2 0x1939 DUP9 PUSH1 0x20 DUP6 ADD MSTORE JUMP JUMPDEST PUSH2 0x1946 CALLER PUSH1 0x40 DUP6 ADD PUSH2 0xC79 JUMP JUMPDEST PUSH2 0x1951 DUP10 PUSH1 0x60 DUP6 ADD MSTORE JUMP JUMPDEST PUSH2 0x5C3 TIMESTAMP PUSH1 0x80 DUP6 ADD MSTORE JUMP JUMPDEST PUSH2 0x1969 PUSH2 0x1277 PUSH1 0x8 PUSH2 0x325 JUMP JUMPDEST PUSH2 0x17D6 JUMP JUMPDEST ADD PUSH2 0x1501 DUP5 PUSH2 0x14FC DUP4 PUSH2 0x325 JUMP JUMPDEST PUSH2 0x1992 PUSH2 0x198C PUSH2 0x10A3 PUSH1 0x8 PUSH2 0x325 JUMP JUMPDEST SWAP2 PUSH2 0x307 JUMP JUMPDEST SWAP1 PUSH32 0xE23A9F2B581D4C09F7762BF67538C16587CDBBA4484A10CF60EA9140A5FEAFD2 PUSH2 0x19CA PUSH2 0x19C0 CALLER PUSH2 0x238 JUMP JUMPDEST SWAP5 PUSH2 0x1B1 PUSH1 0x40 MLOAD SWAP1 JUMP JUMPDEST SUB SWAP1 LOG4 JUMP JUMPDEST PUSH2 0x19E7 SWAP1 PUSH1 0x20 RETURNDATASIZE PUSH1 0x20 GT PUSH2 0x1569 JUMPI PUSH2 0x155C DUP2 DUP4 PUSH2 0x426 JUMP JUMPDEST PUSH2 0x18F6 JUMP JUMPDEST PUSH2 0x1A02 SWAP1 DUP5 RETURNDATASIZE DUP7 GT PUSH2 0x1569 JUMPI PUSH2 0x155C DUP2 DUP4 PUSH2 0x426 JUMP JUMPDEST PUSH2 0x18B1 JUMP JUMPDEST SWAP1 PUSH2 0x190 SWAP2 PUSH2 0x162C JUMP JUMPDEST PUSH2 0x190 SWAP1 PUSH2 0x1A1D PUSH2 0x1C70 JUMP JUMPDEST PUSH2 0x190 SWAP1 PUSH1 0x3 PUSH2 0xC40 JUMP JUMPDEST PUSH2 0x190 SWAP1 PUSH2 0x1A11 JUMP JUMPDEST PUSH2 0x1A39 PUSH2 0xC6F JUMP JUMPDEST SWAP1 PUSH1 0x0 DUP3 MSTORE PUSH1 0x20 DUP1 DUP1 DUP1 DUP1 DUP1 DUP1 DUP9 ADD PUSH1 0x0 DUP2 MSTORE ADD PUSH1 0x60 PUSH2 0x1140 JUMP JUMPDEST PUSH2 0x172 PUSH2 0x1A31 JUMP JUMPDEST SWAP1 PUSH2 0x190 PUSH2 0x1AEE PUSH1 0x5 PUSH2 0x1A6D PUSH2 0xC6F JUMP JUMPDEST SWAP5 PUSH2 0x1A7A PUSH2 0x11D6 DUP3 PUSH2 0x325 JUMP JUMPDEST PUSH2 0x1A92 PUSH2 0x1A89 PUSH1 0x1 DUP4 ADD PUSH2 0x338 JUMP JUMPDEST PUSH1 0x20 DUP9 ADD PUSH2 0xC79 JUMP JUMPDEST PUSH2 0x1AA1 PUSH2 0x1074 PUSH1 0x2 DUP4 ADD PUSH2 0x44D JUMP JUMPDEST PUSH2 0x1AB0 PUSH2 0x1217 PUSH1 0x3 DUP4 ADD PUSH2 0x325 JUMP JUMPDEST PUSH2 0x1AD0 PUSH2 0x1ABF PUSH1 0x4 DUP4 ADD PUSH2 0x480 JUMP JUMPDEST PUSH8 0xFFFFFFFFFFFFFFFF AND PUSH1 0x80 DUP9 ADD MSTORE JUMP JUMPDEST PUSH2 0x1AE8 PUSH2 0x1ADF PUSH1 0x4 DUP4 ADD PUSH2 0x498 JUMP JUMPDEST ISZERO ISZERO PUSH1 0xA0 DUP9 ADD MSTORE JUMP JUMPDEST ADD PUSH2 0x325 JUMP JUMPDEST PUSH1 0xC0 DUP5 ADD MSTORE JUMP JUMPDEST PUSH2 0x172 SWAP1 PUSH2 0x1A5C JUMP JUMPDEST PUSH2 0x1B29 PUSH2 0x172 SWAP2 PUSH2 0x1B0D PUSH2 0x1A54 JUMP JUMPDEST POP PUSH2 0x1B18 PUSH1 0x0 PUSH2 0x307 JUMP JUMPDEST DUP2 GT DUP1 PUSH2 0x1B2E JUMPI JUMPDEST PUSH2 0x10BC SWAP1 PUSH2 0x15B5 JUMP JUMPDEST PUSH2 0x1AF5 JUMP JUMPDEST POP PUSH2 0x10BC PUSH2 0x1B3F PUSH2 0x172 PUSH1 0x4 PUSH2 0x325 JUMP JUMPDEST DUP3 GT ISZERO SWAP1 POP PUSH2 0x1B20 JUMP JUMPDEST SWAP1 PUSH2 0x1B82 SWAP3 SWAP2 PUSH2 0x1B59 PUSH1 0x0 PUSH2 0x307 JUMP JUMPDEST DUP4 GT DUP1 PUSH2 0x1B86 JUMPI JUMPDEST PUSH2 0x1B6A SWAP1 PUSH2 0x15B5 JUMP JUMPDEST PUSH2 0x1B7D PUSH2 0x1665 PUSH1 0x4 PUSH2 0x165F DUP7 PUSH1 0x5 PUSH2 0x314 JUMP JUMPDEST PUSH2 0x1BAE JUMP JUMPDEST SWAP1 SWAP2 JUMP JUMPDEST POP PUSH2 0x1B6A PUSH2 0x1B97 PUSH2 0x172 PUSH1 0x4 PUSH2 0x325 JUMP JUMPDEST DUP5 GT ISZERO SWAP1 POP PUSH2 0x1B61 JUMP JUMPDEST PUSH2 0x473 PUSH2 0x172 PUSH2 0x172 SWAP3 SWAP1 JUMP JUMPDEST PUSH2 0x1BC8 SWAP3 PUSH1 0x4 SWAP3 PUSH2 0x1BC2 SWAP3 POP POP PUSH1 0x5 PUSH2 0x314 JUMP JUMPDEST ADD PUSH2 0x480 JUMP JUMPDEST DUP1 PUSH2 0x1BE4 PUSH2 0x1BD6 PUSH1 0x0 PUSH2 0x1BA1 JUMP JUMPDEST SWAP2 PUSH8 0xFFFFFFFFFFFFFFFF AND SWAP1 JUMP JUMPDEST GT SWAP2 JUMP JUMPDEST PUSH2 0x1B82 SWAP1 PUSH1 0x0 DUP1 PUSH2 0x1B49 JUMP JUMPDEST PUSH2 0x190 SWAP1 PUSH2 0x1C00 PUSH2 0x1C70 JUMP JUMPDEST PUSH2 0x1C0A PUSH1 0x0 PUSH2 0x12BB JUMP JUMPDEST PUSH2 0x1C13 DUP2 PUSH2 0x1C2 JUMP JUMPDEST PUSH2 0x1C1C DUP4 PUSH2 0x1C2 JUMP JUMPDEST EQ PUSH2 0x1C2B JUMPI POP PUSH2 0x190 SWAP1 PUSH2 0x1CD0 JUMP JUMPDEST PUSH2 0xB17 SWAP1 PUSH2 0x1C38 PUSH1 0x40 MLOAD SWAP1 JUMP JUMPDEST SWAP2 DUP3 SWAP2 PUSH32 0x1E4FBDF700000000000000000000000000000000000000000000000000000000 DUP4 MSTORE PUSH1 0x4 DUP4 ADD PUSH2 0x76A JUMP JUMPDEST PUSH2 0x190 SWAP1 PUSH2 0x1BF4 JUMP JUMPDEST PUSH2 0x1C78 PUSH2 0x12DE JUMP JUMPDEST CALLER SWAP1 PUSH2 0x1C8C PUSH2 0x1C86 DUP4 PUSH2 0x1C2 JUMP JUMPDEST SWAP2 PUSH2 0x1C2 JUMP JUMPDEST SUB PUSH2 0x1C94 JUMPI POP JUMP JUMPDEST PUSH2 0xB17 SWAP1 PUSH2 0x1CA1 PUSH1 0x40 MLOAD SWAP1 JUMP JUMPDEST SWAP2 DUP3 SWAP2 PUSH32 0x118CDAA700000000000000000000000000000000000000000000000000000000 DUP4 MSTORE PUSH1 0x4 DUP4 ADD PUSH2 0x76A JUMP JUMPDEST PUSH2 0x1CF6 PUSH2 0x1CF0 PUSH2 0x1CE0 PUSH1 0x0 PUSH2 0x338 JUMP JUMPDEST PUSH2 0x1CEB DUP5 PUSH1 0x0 PUSH2 0xD10 JUMP JUMPDEST PUSH2 0x238 JUMP JUMPDEST SWAP2 PUSH2 0x238 JUMP JUMPDEST SWAP1 PUSH32 0x8BE0079C531659141344CD1FD0A4F28419497F9722A3DAAFE3B4186F6B6457E0 PUSH2 0x1D21 PUSH1 0x40 MLOAD SWAP1 JUMP JUMPDEST DUP1 DUP1 PUSH2 0x110C JUMP JUMPDEST PUSH2 0x172 PUSH1 0x2 PUSH2 0x307 JUMP JUMPDEST PUSH2 0x1D3C PUSH1 0x1 PUSH2 0x325 JUMP JUMPDEST PUSH2 0x1D44 PUSH2 0x1D28 JUMP JUMPDEST SWAP1 DUP2 EQ PUSH2 0x1D56 JUMPI PUSH2 0x190 SWAP1 PUSH1 0x1 PUSH2 0xC40 JUMP JUMPDEST PUSH1 0x40 MLOAD PUSH32 0x3EE5AEB500000000000000000000000000000000000000000000000000000000 DUP2 MSTORE PUSH1 0x4 SWAP1 REVERT JUMPDEST PUSH2 0x172 PUSH1 0x1 PUSH2 0x307 JUMP JUMPDEST PUSH2 0x190 PUSH2 0x1D96 PUSH2 0x1D81 JUMP JUMPDEST PUSH1 0x1 PUSH2 0xC40 JUMP INVALID LOG2 PUSH5 0x6970667358 0x22 SLT KECCAK256 0xB8 0xD 0xD6 0xE9 0x1E 0xC9 0xEE SWAP8 0x25 0xB5 PUSH7 0x3291611B45C8D 0xC PUSH25 0xB82162556386F5269AEA520164736F6C634300081800330000 "
        },
        "gasEstimates": {
          "creation": {
            "codeDepositCost": "1527000",
            "executionCost": "infinite",
            "totalCost": "infinite"
          },
          "external": {
            "datasetCounter()": "infinite",
            "datasets(uint256)": "infinite",
            "getDataset(uint256)": "infinite",
            "getPurchase(uint256)": "infinite",
            "isDatasetDealActive(uint256)": "infinite",
            "listDataset(string,uint256,uint64)": "infinite",
            "owner()": "infinite",
            "platformFeeRate()": "infinite",
            "providerStakeAmount()": "infinite",
            "providerStakes(address)": "infinite",
            "purchaseCounter()": "infinite",
            "purchaseData(uint256,uint256)": "infinite",
            "purchases(uint256)": "infinite",
            "renounceOwnership()": "infinite",
            "stakeAsProvider(uint256)": "infinite",
            "transferOwnership(address)": "infinite",
            "treasury()": "infinite",
            "updatePlatformFeeRate(uint256)": "infinite",
            "updateProviderStakeAmount(uint256)": "infinite",
            "usdfc()": "infinite"
          }
        },
        "methodIdentifiers": {
          "datasetCounter()": "c34f2940",
          "datasets(uint256)": "1cff85e1",
          "getDataset(uint256)": "ee004221",
          "getPurchase(uint256)": "3742a9f7",
          "isDatasetDealActive(uint256)": "f09ce8f3",
          "listDataset(string,uint256,uint64)": "34f91099",
          "owner()": "8da5cb5b",
          "platformFeeRate()": "eeca08f0",
          "providerStakeAmount()": "6854d20f",
          "providerStakes(address)": "0d6b4c9f",
          "purchaseCounter()": "055680f0",
          "purchaseData(uint256,uint256)": "b5126a63",
          "purchases(uint256)": "8392fe31",
          "renounceOwnership()": "715018a6",
          "stakeAsProvider(uint256)": "b33b4924",
          "transferOwnership(address)": "f2fde38b",
          "treasury()": "61d027b3",
          "updatePlatformFeeRate(uint256)": "ae3b7f06",
          "updateProviderStakeAmount(uint256)": "b56a1e7d",
          "usdfc()": "1006e4cb"
        }
      },
      "storageLayout": {
        "storage": [
          {
            "astId": 8,
            "contract": "contracts/VeriFlowMarketplace.sol:VeriFlowMarketplace",
            "label": "_owner",
            "offset": 0,
            "slot": "0",
            "type": "t_address"
          },
          {
            "astId": 266,
            "contract": "contracts/VeriFlowMarketplace.sol:VeriFlowMarketplace",
            "label": "_status",
            "offset": 0,
            "slot": "1",
            "type": "t_uint256"
          },
          {
            "astId": 341,
            "contract": "contracts/VeriFlowMarketplace.sol:VeriFlowMarketplace",
            "label": "treasury",
            "offset": 0,
            "slot": "2",
            "type": "t_address"
          },
          {
            "astId": 344,
            "contract": "contracts/VeriFlowMarketplace.sol:VeriFlowMarketplace",
            "label": "providerStakeAmount",
            "offset": 0,
            "slot": "3",
            "type": "t_uint256"
          },
          {
            "astId": 347,
            "contract": "contracts/VeriFlowMarketplace.sol:VeriFlowMarketplace",
            "label": "datasetCounter",
            "offset": 0,
            "slot": "4",
            "type": "t_uint256"
          },
          {
            "astId": 383,
            "contract": "contracts/VeriFlowMarketplace.sol:VeriFlowMarketplace",
            "label": "datasets",
            "offset": 0,
            "slot": "5",
            "type": "t_mapping(t_uint256,t_struct(Dataset)363_storage)"
          },
          {
            "astId": 389,
            "contract": "contracts/VeriFlowMarketplace.sol:VeriFlowMarketplace",
            "label": "purchases",
            "offset": 0,
            "slot": "6",
            "type": "t_mapping(t_uint256,t_struct(Purchase)377_storage)"
          },
          {
            "astId": 394,
            "contract": "contracts/VeriFlowMarketplace.sol:VeriFlowMarketplace",
            "label": "providerStakes",
            "offset": 0,
            "slot": "7",
            "type": "t_mapping(t_address,t_uint256)"
          },
          {
            "astId": 397,
            "contract": "contracts/VeriFlowMarketplace.sol:VeriFlowMarketplace",
            "label": "purchaseCounter",
            "offset": 0,
            "slot": "8",
            "type": "t_uint256"
          },
          {
            "astId": 401,
            "contract": "contracts/VeriFlowMarketplace.sol:VeriFlowMarketplace",
            "label": "platformFeeRate",
            "offset": 0,
            "slot": "9",
            "type": "t_uint256"
          }
        ],
        "types": {
          "t_address": {
            "encoding": "inplace",
            "label": "address",
            "numberOfBytes": "20"
          },
          "t_bool": {
            "encoding": "inplace",
            "label": "bool",
            "numberOfBytes": "1"
          },
          "t_mapping(t_address,t_uint256)": {
            "encoding": "mapping",
            "key": "t_address",
            "label": "mapping(address => uint256)",
            "numberOfBytes": "32",
            "value": "t_uint256"
          },
          "t_mapping(t_uint256,t_struct(Dataset)363_storage)": {
            "encoding": "mapping",
            "key": "t_uint256",
            "label": "mapping(uint256 => struct VeriFlowMarketplace.Dataset)",
            "numberOfBytes": "32",
            "value": "t_struct(Dataset)363_storage"
          },
          "t_mapping(t_uint256,t_struct(Purchase)377_storage)": {
            "encoding": "mapping",
            "key": "t_uint256",
            "label": "mapping(uint256 => struct VeriFlowMarketplace.Purchase)",
            "numberOfBytes": "32",
            "value": "t_struct(Purchase)377_storage"
          },
          "t_string_storage": {
            "encoding": "bytes",
            "label": "string",
            "numberOfBytes": "32"
          },
          "t_struct(Dataset)363_storage": {
            "encoding": "inplace",
            "label": "struct VeriFlowMarketplace.Dataset",
            "members": [
              {
                "astId": 350,
                "contract": "contracts/VeriFlowMarketplace.sol:VeriFlowMarketplace",
                "label": "id",
                "offset": 0,
                "slot": "0",
                "type": "t_uint256"
              },
              {
                "astId": 352,
                "contract": "contracts/VeriFlowMarketplace.sol:VeriFlowMarketplace",
                "label": "provider",
                "offset": 0,
                "slot": "1",
                "type": "t_address"
              },
              {
                "astId": 354,
                "contract": "contracts/VeriFlowMarketplace.sol:VeriFlowMarketplace",
                "label": "metadataUri",
                "offset": 0,
                "slot": "2",
                "type": "t_string_storage"
              },
              {
                "astId": 356,
                "contract": "contracts/VeriFlowMarketplace.sol:VeriFlowMarketplace",
                "label": "pricePerBatch",
                "offset": 0,
                "slot": "3",
                "type": "t_uint256"
              },
              {
                "astId": 358,
                "contract": "contracts/VeriFlowMarketplace.sol:VeriFlowMarketplace",
                "label": "filecoinDealId",
                "offset": 0,
                "slot": "4",
                "type": "t_uint64"
              },
              {
                "astId": 360,
                "contract": "contracts/VeriFlowMarketplace.sol:VeriFlowMarketplace",
                "label": "isActive",
                "offset": 8,
                "slot": "4",
                "type": "t_bool"
              },
              {
                "astId": 362,
                "contract": "contracts/VeriFlowMarketplace.sol:VeriFlowMarketplace",
                "label": "totalSales",
                "offset": 0,
                "slot": "5",
                "type": "t_uint256"
              }
            ],
            "numberOfBytes": "192"
          },
          "t_struct(Purchase)377_storage": {
            "encoding": "inplace",
            "label": "struct VeriFlowMarketplace.Purchase",
            "members": [
              {
                "astId": 366,
                "contract": "contracts/VeriFlowMarketplace.sol:VeriFlowMarketplace",
                "label": "id",
                "offset": 0,
                "slot": "0",
                "type": "t_uint256"
              },
              {
                "astId": 368,
                "contract": "contracts/VeriFlowMarketplace.sol:VeriFlowMarketplace",
                "label": "datasetId",
                "offset": 0,
                "slot": "1",
                "type": "t_uint256"
              },
              {
                "astId": 370,
                "contract": "contracts/VeriFlowMarketplace.sol:VeriFlowMarketplace",
                "label": "buyer",
                "offset": 0,
                "slot": "2",
                "type": "t_address"
              },
              {
                "astId": 372,
                "contract": "contracts/VeriFlowMarketplace.sol:VeriFlowMarketplace",
                "label": "amount",
                "offset": 0,
                "slot": "3",
                "type": "t_uint256"
              },
              {
                "astId": 374,
                "contract": "contracts/VeriFlowMarketplace.sol:VeriFlowMarketplace",
                "label": "timestamp",
                "offset": 0,
                "slot": "4",
                "type": "t_uint256"
              },
              {
                "astId": 376,
                "contract": "contracts/VeriFlowMarketplace.sol:VeriFlowMarketplace",
                "label": "isVerified",
                "offset": 0,
                "slot": "5",
                "type": "t_bool"
              }
            ],
            "numberOfBytes": "192"
          },
          "t_uint256": {
            "encoding": "inplace",
            "label": "uint256",
            "numberOfBytes": "32"
          },
          "t_uint64": {
            "encoding": "inplace",
            "label": "uint64",
            "numberOfBytes": "8"
          }
        }
      },
      "userdoc": {
        "kind": "user",
        "methods": {
          "constructor": {
            "notice": "Constructor"
          },
          "datasetCounter()": {
            "notice": "Current dataset ID counter"
          },
          "datasets(uint256)": {
            "notice": "Mapping from dataset ID to dataset info"
          },
          "getDataset(uint256)": {
            "notice": "Get dataset information"
          },
          "getPurchase(uint256)": {
            "notice": "Get purchase information"
          },
          "isDatasetDealActive(uint256)": {
            "notice": "Check if a dataset has an active Filecoin deal"
          },
          "listDataset(string,uint256,uint64)": {
            "notice": "List a new dataset for sale"
          },
          "platformFeeRate()": {
            "notice": "Platform fee (in basis points, 250 = 2.5%)"
          },
          "providerStakeAmount()": {
            "notice": "Minimum stake amount for providers"
          },
          "providerStakes(address)": {
            "notice": "Provider stakes"
          },
          "purchaseCounter()": {
            "notice": "Purchase counter"
          },
          "purchaseData(uint256,uint256)": {
            "notice": "Purchase training data"
          },
          "purchases(uint256)": {
            "notice": "Mapping from purchase ID to purchase info"
          },
          "stakeAsProvider(uint256)": {
            "notice": "Stake USDFC to become a data provider"
          },
          "treasury()": {
            "notice": "Treasury address for fees"
          },
          "updatePlatformFeeRate(uint256)": {
            "notice": "Update platform fee rate (owner only)"
          },
          "updateProviderStakeAmount(uint256)": {
            "notice": "Update provider stake requirement (owner only)"
          },
          "usdfc()": {
            "notice": "USDFC token contract for payments"
          }
        },
        "notice": "Verifiable AI Training Data Marketplace for Protocol Labs Genesis Hackathon 2025",
        "version": 1
      }
    }
  }
}